{
  "_format": "hh-sol-artifact-1",
  "contractName": "portfolio",
  "sourceName": "contracts/portfolio.sol",
  "abi": [
    {
      "inputs": [],
      "stateMutability": "nonpayable",
      "type": "constructor"
    },
    {
      "anonymous": false,
      "inputs": [
        {
          "indexed": true,
          "internalType": "address",
          "name": "owner",
          "type": "address"
        },
        {
          "indexed": true,
          "internalType": "address",
          "name": "spender",
          "type": "address"
        },
        {
          "indexed": true,
          "internalType": "uint256",
          "name": "id",
          "type": "uint256"
        }
      ],
      "name": "Approval",
      "type": "event"
    },
    {
      "anonymous": false,
      "inputs": [
        {
          "indexed": true,
          "internalType": "address",
          "name": "owner",
          "type": "address"
        },
        {
          "indexed": true,
          "internalType": "address",
          "name": "operator",
          "type": "address"
        },
        {
          "indexed": false,
          "internalType": "bool",
          "name": "approved",
          "type": "bool"
        }
      ],
      "name": "ApprovalForAll",
      "type": "event"
    },
    {
      "anonymous": false,
      "inputs": [
        {
          "indexed": true,
          "internalType": "address",
          "name": "from",
          "type": "address"
        },
        {
          "indexed": true,
          "internalType": "address",
          "name": "to",
          "type": "address"
        },
        {
          "indexed": true,
          "internalType": "uint256",
          "name": "id",
          "type": "uint256"
        }
      ],
      "name": "Transfer",
      "type": "event"
    },
    {
      "inputs": [
        {
          "internalType": "address",
          "name": "",
          "type": "address"
        }
      ],
      "name": "_ownedToken",
      "outputs": [
        {
          "internalType": "uint256",
          "name": "",
          "type": "uint256"
        }
      ],
      "stateMutability": "view",
      "type": "function"
    },
    {
      "inputs": [
        {
          "internalType": "address",
          "name": "",
          "type": "address"
        },
        {
          "internalType": "uint256",
          "name": "",
          "type": "uint256"
        }
      ],
      "name": "_stocksForSale",
      "outputs": [
        {
          "internalType": "address",
          "name": "seller",
          "type": "address"
        },
        {
          "internalType": "uint256",
          "name": "count",
          "type": "uint256"
        }
      ],
      "stateMutability": "view",
      "type": "function"
    },
    {
      "inputs": [
        {
          "internalType": "uint256",
          "name": "",
          "type": "uint256"
        },
        {
          "internalType": "address",
          "name": "",
          "type": "address"
        }
      ],
      "name": "_tokenHasStock",
      "outputs": [
        {
          "internalType": "bool",
          "name": "",
          "type": "bool"
        }
      ],
      "stateMutability": "view",
      "type": "function"
    },
    {
      "inputs": [
        {
          "internalType": "address",
          "name": "",
          "type": "address"
        }
      ],
      "name": "_totalSellCount",
      "outputs": [
        {
          "internalType": "uint256",
          "name": "",
          "type": "uint256"
        }
      ],
      "stateMutability": "view",
      "type": "function"
    },
    {
      "inputs": [
        {
          "internalType": "address",
          "name": "spender",
          "type": "address"
        },
        {
          "internalType": "uint256",
          "name": "id",
          "type": "uint256"
        }
      ],
      "name": "approve",
      "outputs": [],
      "stateMutability": "nonpayable",
      "type": "function"
    },
    {
      "inputs": [
        {
          "internalType": "address",
          "name": "owner",
          "type": "address"
        }
      ],
      "name": "balanceOf",
      "outputs": [
        {
          "internalType": "uint256",
          "name": "",
          "type": "uint256"
        }
      ],
      "stateMutability": "view",
      "type": "function"
    },
    {
      "inputs": [
        {
          "internalType": "address",
          "name": "stockFtAddress",
          "type": "address"
        },
        {
          "internalType": "uint256",
          "name": "count",
          "type": "uint256"
        }
      ],
      "name": "buy",
      "outputs": [],
      "stateMutability": "payable",
      "type": "function"
    },
    {
      "inputs": [
        {
          "internalType": "address",
          "name": "stockFtAddress",
          "type": "address"
        },
        {
          "internalType": "uint256",
          "name": "listingIndex",
          "type": "uint256"
        }
      ],
      "name": "delistStockListing",
      "outputs": [],
      "stateMutability": "nonpayable",
      "type": "function"
    },
    {
      "inputs": [
        {
          "internalType": "uint256",
          "name": "id",
          "type": "uint256"
        }
      ],
      "name": "getApproved",
      "outputs": [
        {
          "internalType": "address",
          "name": "",
          "type": "address"
        }
      ],
      "stateMutability": "view",
      "type": "function"
    },
    {
      "inputs": [
        {
          "internalType": "address",
          "name": "stockFtAddress",
          "type": "address"
        },
        {
          "internalType": "uint256",
          "name": "count",
          "type": "uint256"
        }
      ],
      "name": "getPrice",
      "outputs": [
        {
          "internalType": "uint256",
          "name": "",
          "type": "uint256"
        }
      ],
      "stateMutability": "view",
      "type": "function"
    },
    {
      "inputs": [
        {
          "internalType": "address",
          "name": "",
          "type": "address"
        },
        {
          "internalType": "address",
          "name": "",
          "type": "address"
        }
      ],
      "name": "isApprovedForAll",
      "outputs": [
        {
          "internalType": "bool",
          "name": "",
          "type": "bool"
        }
      ],
      "stateMutability": "view",
      "type": "function"
    },
    {
      "inputs": [
        {
          "internalType": "address",
          "name": "stockFtAddress",
          "type": "address"
        },
        {
          "internalType": "uint256",
          "name": "count",
          "type": "uint256"
        }
      ],
      "name": "list_stock_to_sell",
      "outputs": [],
      "stateMutability": "nonpayable",
      "type": "function"
    },
    {
      "inputs": [],
      "name": "mint",
      "outputs": [],
      "stateMutability": "nonpayable",
      "type": "function"
    },
    {
      "inputs": [
        {
          "internalType": "uint256",
          "name": "id",
          "type": "uint256"
        }
      ],
      "name": "ownerOf",
      "outputs": [
        {
          "internalType": "address",
          "name": "owner",
          "type": "address"
        }
      ],
      "stateMutability": "view",
      "type": "function"
    },
    {
      "inputs": [
        {
          "internalType": "address",
          "name": "from",
          "type": "address"
        },
        {
          "internalType": "address",
          "name": "to",
          "type": "address"
        },
        {
          "internalType": "uint256",
          "name": "id",
          "type": "uint256"
        }
      ],
      "name": "safeTransferFrom",
      "outputs": [],
      "stateMutability": "nonpayable",
      "type": "function"
    },
    {
      "inputs": [
        {
          "internalType": "address",
          "name": "from",
          "type": "address"
        },
        {
          "internalType": "address",
          "name": "to",
          "type": "address"
        },
        {
          "internalType": "uint256",
          "name": "id",
          "type": "uint256"
        },
        {
          "internalType": "bytes",
          "name": "data",
          "type": "bytes"
        }
      ],
      "name": "safeTransferFrom",
      "outputs": [],
      "stateMutability": "nonpayable",
      "type": "function"
    },
    {
      "inputs": [
        {
          "internalType": "address",
          "name": "operator",
          "type": "address"
        },
        {
          "internalType": "bool",
          "name": "approved",
          "type": "bool"
        }
      ],
      "name": "setApprovalForAll",
      "outputs": [],
      "stateMutability": "nonpayable",
      "type": "function"
    },
    {
      "inputs": [
        {
          "internalType": "bytes4",
          "name": "interfaceId",
          "type": "bytes4"
        }
      ],
      "name": "supportsInterface",
      "outputs": [
        {
          "internalType": "bool",
          "name": "",
          "type": "bool"
        }
      ],
      "stateMutability": "pure",
      "type": "function"
    },
    {
      "inputs": [],
      "name": "tokenCount",
      "outputs": [
        {
          "internalType": "uint256",
          "name": "",
          "type": "uint256"
        }
      ],
      "stateMutability": "view",
      "type": "function"
    },
    {
      "inputs": [
        {
          "internalType": "address",
          "name": "from",
          "type": "address"
        },
        {
          "internalType": "address",
          "name": "to",
          "type": "address"
        },
        {
          "internalType": "uint256",
          "name": "id",
          "type": "uint256"
        }
      ],
      "name": "transferFrom",
      "outputs": [],
      "stateMutability": "nonpayable",
      "type": "function"
    },
    {
      "inputs": [
        {
          "internalType": "address",
          "name": "stockFtAddress",
          "type": "address"
        }
      ],
      "name": "updatePortfolio",
      "outputs": [
        {
          "internalType": "uint256",
          "name": "",
          "type": "uint256"
        }
      ],
      "stateMutability": "nonpayable",
      "type": "function"
    }
  ],
  "bytecode": "0x6080604052348015600f57600080fd5b5060006004819055506138f9806100276000396000f3fe60806040526004361061012a5760003560e01c80636c13e651116100ab578063a22cb4651161006f578063a22cb4651461043b578063b88d4fde14610464578063cce7ec131461048d578063d24b20f5146104a9578063d2863e75146104d2578063e985e9c51461050f5761012a565b80636c13e6511461031b57806370a082311461035857806385ad5085146103955780639b232ab0146103d25780639f181b5e146104105761012a565b806323b872dd116100f257806323b872dd146102265780633a042db71461024f57806342842e0e14610278578063449e815d146102a15780636352211e146102de5761012a565b806301ffc9a71461012f578063078a235e1461016c578063081812fc146101a9578063095ea7b3146101e65780631249c58b1461020f575b600080fd5b34801561013b57600080fd5b5061015660048036038101906101519190612740565b61054c565b6040516101639190612788565b60405180910390f35b34801561017857600080fd5b50610193600480360381019061018e9190612801565b61061e565b6040516101a09190612847565b60405180910390f35b3480156101b557600080fd5b506101d060048036038101906101cb919061288e565b6108e8565b6040516101dd91906128ca565b60405180910390f35b3480156101f257600080fd5b5061020d600480360381019061020891906128e5565b6109c5565b005b34801561021b57600080fd5b50610224610bad565b005b34801561023257600080fd5b5061024d60048036038101906102489190612925565b610d92565b005b34801561025b57600080fd5b50610276600480360381019061027191906128e5565b61107c565b005b34801561028457600080fd5b5061029f600480360381019061029a9190612925565b61136c565b005b3480156102ad57600080fd5b506102c860048036038101906102c391906128e5565b6114a4565b6040516102d59190612847565b60405180910390f35b3480156102ea57600080fd5b506103056004803603810190610300919061288e565b6115f3565b60405161031291906128ca565b60405180910390f35b34801561032757600080fd5b50610342600480360381019061033d9190612801565b61169e565b60405161034f9190612847565b60405180910390f35b34801561036457600080fd5b5061037f600480360381019061037a9190612801565b6116b6565b60405161038c9190612847565b60405180910390f35b3480156103a157600080fd5b506103bc60048036038101906103b79190612801565b61176d565b6040516103c99190612847565b60405180910390f35b3480156103de57600080fd5b506103f960048036038101906103f491906128e5565b611785565b604051610407929190612978565b60405180910390f35b34801561041c57600080fd5b506104256117e6565b6040516104329190612847565b60405180910390f35b34801561044757600080fd5b50610462600480360381019061045d91906129cd565b6117ec565b005b34801561047057600080fd5b5061048b60048036038101906104869190612a72565b6118e9565b005b6104a760048036038101906104a291906128e5565b611a27565b005b3480156104b557600080fd5b506104d060048036038101906104cb91906128e5565b612042565b005b3480156104de57600080fd5b506104f960048036038101906104f49190612afa565b61254c565b6040516105069190612788565b60405180910390f35b34801561051b57600080fd5b5061053660048036038101906105319190612b3a565b61257b565b6040516105439190612788565b60405180910390f35b60007f80ac58cd000000000000000000000000000000000000000000000000000000007bffffffffffffffffffffffffffffffffffffffffffffffffffffffff1916827bffffffffffffffffffffffffffffffffffffffffffffffffffffffff1916148061061757507f01ffc9a7000000000000000000000000000000000000000000000000000000007bffffffffffffffffffffffffffffffffffffffffffffffffffffffff1916827bffffffffffffffffffffffffffffffffffffffffffffffffffffffff1916145b9050919050565b6000808273ffffffffffffffffffffffffffffffffffffffff166318160ddd6040518163ffffffff1660e01b8152600401602060405180830381865afa15801561066c573d6000803e3d6000fd5b505050506040513d601f19601f820116820180604052508101906106909190612b8f565b116106d0576040517f08c379a00000000000000000000000000000000000000000000000000000000081526004016106c790612c19565b60405180910390fd5b6000600660003373ffffffffffffffffffffffffffffffffffffffff1673ffffffffffffffffffffffffffffffffffffffff1681526020019081526020016000205490503373ffffffffffffffffffffffffffffffffffffffff1660008083815260200190815260200160002060009054906101000a900473ffffffffffffffffffffffffffffffffffffffff1673ffffffffffffffffffffffffffffffffffffffff16146107b4576040517f08c379a00000000000000000000000000000000000000000000000000000000081526004016107ab90612cab565b60405180910390fd5b60008373ffffffffffffffffffffffffffffffffffffffff166370a08231336040518263ffffffff1660e01b81526004016107ef91906128ca565b602060405180830381865afa15801561080c573d6000803e3d6000fd5b505050506040513d601f19601f820116820180604052508101906108309190612b8f565b905060008111610875576040517f08c379a000000000000000000000000000000000000000000000000000000000815260040161086c90612d3d565b60405180910390fd5b60016005600084815260200190815260200160002060008673ffffffffffffffffffffffffffffffffffffffff1673ffffffffffffffffffffffffffffffffffffffff16815260200190815260200160002060006101000a81548160ff0219169083151502179055508092505050919050565b60008073ffffffffffffffffffffffffffffffffffffffff1660008084815260200190815260200160002060009054906101000a900473ffffffffffffffffffffffffffffffffffffffff1673ffffffffffffffffffffffffffffffffffffffff160361098a576040517f08c379a000000000000000000000000000000000000000000000000000000000815260040161098190612da9565b60405180910390fd5b6002600083815260200190815260200160002060009054906101000a900473ffffffffffffffffffffffffffffffffffffffff169050919050565b600080600083815260200190815260200160002060009054906101000a900473ffffffffffffffffffffffffffffffffffffffff1690508073ffffffffffffffffffffffffffffffffffffffff163373ffffffffffffffffffffffffffffffffffffffff161480610abc5750600360008273ffffffffffffffffffffffffffffffffffffffff1673ffffffffffffffffffffffffffffffffffffffff16815260200190815260200160002060003373ffffffffffffffffffffffffffffffffffffffff1673ffffffffffffffffffffffffffffffffffffffff16815260200190815260200160002060009054906101000a900460ff165b610afb576040517f08c379a0000000000000000000000000000000000000000000000000000000008152600401610af290612e15565b60405180910390fd5b826002600084815260200190815260200160002060006101000a81548173ffffffffffffffffffffffffffffffffffffffff021916908373ffffffffffffffffffffffffffffffffffffffff160217905550818373ffffffffffffffffffffffffffffffffffffffff168273ffffffffffffffffffffffffffffffffffffffff167f8c5be1e5ebec7d5bd14f71427d1e84f3dd0314c0f7b2291e5b200ac8c7c3b92560405160405180910390a4505050565b6000600160003373ffffffffffffffffffffffffffffffffffffffff1673ffffffffffffffffffffffffffffffffffffffff1681526020019081526020016000205414610c2f576040517f08c379a0000000000000000000000000000000000000000000000000000000008152600401610c2690612ea7565b60405180910390fd5b6001600454610c3e9190612ef6565b600481905550600160003373ffffffffffffffffffffffffffffffffffffffff1673ffffffffffffffffffffffffffffffffffffffff1681526020019081526020016000206000815480929190610c9490612f2a565b919050555033600080600454815260200190815260200160002060006101000a81548173ffffffffffffffffffffffffffffffffffffffff021916908373ffffffffffffffffffffffffffffffffffffffff160217905550600454600660003373ffffffffffffffffffffffffffffffffffffffff1673ffffffffffffffffffffffffffffffffffffffff168152602001908152602001600020819055506004543373ffffffffffffffffffffffffffffffffffffffff16600073ffffffffffffffffffffffffffffffffffffffff167fddf252ad1be2c89b69c2b068fc378daa952ba7f163c4a11628f55a4df523b3ef60405160405180910390a4565b60008082815260200190815260200160002060009054906101000a900473ffffffffffffffffffffffffffffffffffffffff1673ffffffffffffffffffffffffffffffffffffffff168373ffffffffffffffffffffffffffffffffffffffff1614610e32576040517f08c379a0000000000000000000000000000000000000000000000000000000008152600401610e2990612fbe565b60405180910390fd5b600073ffffffffffffffffffffffffffffffffffffffff168273ffffffffffffffffffffffffffffffffffffffff1603610ea1576040517f08c379a0000000000000000000000000000000000000000000000000000000008152600401610e989061302a565b60405180910390fd5b610eac8333836125aa565b610eeb576040517f08c379a0000000000000000000000000000000000000000000000000000000008152600401610ee290612e15565b60405180910390fd5b600160008473ffffffffffffffffffffffffffffffffffffffff1673ffffffffffffffffffffffffffffffffffffffff1681526020019081526020016000206000815480929190610f3b9061304a565b9190505550600160008373ffffffffffffffffffffffffffffffffffffffff1673ffffffffffffffffffffffffffffffffffffffff1681526020019081526020016000206000815480929190610f9090612f2a565b91905055508160008083815260200190815260200160002060006101000a81548173ffffffffffffffffffffffffffffffffffffffff021916908373ffffffffffffffffffffffffffffffffffffffff1602179055506002600082815260200190815260200160002060006101000a81549073ffffffffffffffffffffffffffffffffffffffff0219169055808273ffffffffffffffffffffffffffffffffffffffff168473ffffffffffffffffffffffffffffffffffffffff167fddf252ad1be2c89b69c2b068fc378daa952ba7f163c4a11628f55a4df523b3ef60405160405180910390a4505050565b600760008373ffffffffffffffffffffffffffffffffffffffff1673ffffffffffffffffffffffffffffffffffffffff168152602001908152602001600020805490508110611100576040517f08c379a00000000000000000000000000000000000000000000000000000000081526004016110f7906130bf565b60405180910390fd5b6000600760008473ffffffffffffffffffffffffffffffffffffffff1673ffffffffffffffffffffffffffffffffffffffff1681526020019081526020016000206001600760008673ffffffffffffffffffffffffffffffffffffffff1673ffffffffffffffffffffffffffffffffffffffff1681526020019081526020016000208054905061119091906130df565b815481106111a1576111a0613113565b5b90600052602060002090600202016040518060400160405290816000820160009054906101000a900473ffffffffffffffffffffffffffffffffffffffff1673ffffffffffffffffffffffffffffffffffffffff1673ffffffffffffffffffffffffffffffffffffffff168152602001600182015481525050905080600760008573ffffffffffffffffffffffffffffffffffffffff1673ffffffffffffffffffffffffffffffffffffffff168152602001908152602001600020838154811061126e5761126d613113565b5b906000526020600020906002020160008201518160000160006101000a81548173ffffffffffffffffffffffffffffffffffffffff021916908373ffffffffffffffffffffffffffffffffffffffff16021790555060208201518160010155905050600760008473ffffffffffffffffffffffffffffffffffffffff1673ffffffffffffffffffffffffffffffffffffffff16815260200190815260200160002080548061131f5761131e613142565b5b6001900381819060005260206000209060020201600080820160006101000a81549073ffffffffffffffffffffffffffffffffffffffff0219169055600182016000905550509055505050565b611377838383610d92565b60008273ffffffffffffffffffffffffffffffffffffffff163b1480611460575063150b7a0260e01b7bffffffffffffffffffffffffffffffffffffffffffffffffffffffff19168273ffffffffffffffffffffffffffffffffffffffff1663150b7a023386856040518463ffffffff1660e01b81526004016113fc939291906131a8565b6020604051808303816000875af115801561141b573d6000803e3d6000fd5b505050506040513d601f19601f8201168201806040525081019061143f9190613207565b7bffffffffffffffffffffffffffffffffffffffffffffffffffffffff1916145b61149f576040517f08c379a000000000000000000000000000000000000000000000000000000000815260040161149690613280565b60405180910390fd5b505050565b6000808373ffffffffffffffffffffffffffffffffffffffff166318160ddd6040518163ffffffff1660e01b8152600401602060405180830381865afa1580156114f2573d6000803e3d6000fd5b505050506040513d601f19601f820116820180604052508101906115169190612b8f565b11611556576040517f08c379a000000000000000000000000000000000000000000000000000000000815260040161154d90612c19565b60405180910390fd5b81600860008573ffffffffffffffffffffffffffffffffffffffff1673ffffffffffffffffffffffffffffffffffffffff1681526020019081526020016000205410156115d8576040517f08c379a00000000000000000000000000000000000000000000000000000000081526004016115cf90613312565b60405180910390fd5b60006064905082816115ea9190613332565b91505092915050565b600080600083815260200190815260200160002060009054906101000a900473ffffffffffffffffffffffffffffffffffffffff169050600073ffffffffffffffffffffffffffffffffffffffff168173ffffffffffffffffffffffffffffffffffffffff1603611699576040517f08c379a000000000000000000000000000000000000000000000000000000000815260040161169090612da9565b60405180910390fd5b919050565b60086020528060005260406000206000915090505481565b60008073ffffffffffffffffffffffffffffffffffffffff168273ffffffffffffffffffffffffffffffffffffffff1603611726576040517f08c379a000000000000000000000000000000000000000000000000000000000815260040161171d906133c0565b60405180910390fd5b600160008373ffffffffffffffffffffffffffffffffffffffff1673ffffffffffffffffffffffffffffffffffffffff168152602001908152602001600020549050919050565b60066020528060005260406000206000915090505481565b600760205281600052604060002081815481106117a157600080fd5b9060005260206000209060020201600091509150508060000160009054906101000a900473ffffffffffffffffffffffffffffffffffffffff16908060010154905082565b60045481565b80600360003373ffffffffffffffffffffffffffffffffffffffff1673ffffffffffffffffffffffffffffffffffffffff16815260200190815260200160002060008473ffffffffffffffffffffffffffffffffffffffff1673ffffffffffffffffffffffffffffffffffffffff16815260200190815260200160002060006101000a81548160ff0219169083151502179055508173ffffffffffffffffffffffffffffffffffffffff163373ffffffffffffffffffffffffffffffffffffffff167f17307eab39ab6107e8899845ad3d59bd9653f200f220920489ca2b5937696c31836040516118dd9190612788565b60405180910390a35050565b6118f4858585610d92565b60008473ffffffffffffffffffffffffffffffffffffffff163b14806119e1575063150b7a0260e01b7bffffffffffffffffffffffffffffffffffffffffffffffffffffffff19168473ffffffffffffffffffffffffffffffffffffffff1663150b7a0233888787876040518663ffffffff1660e01b815260040161197d95949392919061342d565b6020604051808303816000875af115801561199c573d6000803e3d6000fd5b505050506040513d601f19601f820116820180604052508101906119c09190613207565b7bffffffffffffffffffffffffffffffffffffffffffffffffffffffff1916145b611a20576040517f08c379a0000000000000000000000000000000000000000000000000000000008152600401611a1790613280565b60405180910390fd5b5050505050565b60008273ffffffffffffffffffffffffffffffffffffffff166318160ddd6040518163ffffffff1660e01b8152600401602060405180830381865afa158015611a74573d6000803e3d6000fd5b505050506040513d601f19601f82011682018060405250810190611a989190612b8f565b11611ad8576040517f08c379a0000000000000000000000000000000000000000000000000000000008152600401611acf90612c19565b60405180910390fd5b80600860008473ffffffffffffffffffffffffffffffffffffffff1673ffffffffffffffffffffffffffffffffffffffff168152602001908152602001600020541015611b5a576040517f08c379a0000000000000000000000000000000000000000000000000000000008152600401611b51906134ed565b60405180910390fd5b6000600660003373ffffffffffffffffffffffffffffffffffffffff1673ffffffffffffffffffffffffffffffffffffffff1681526020019081526020016000205490503373ffffffffffffffffffffffffffffffffffffffff1660008083815260200190815260200160002060009054906101000a900473ffffffffffffffffffffffffffffffffffffffff1673ffffffffffffffffffffffffffffffffffffffff1614611c3e576040517f08c379a0000000000000000000000000000000000000000000000000000000008152600401611c359061357f565b60405180910390fd5b6000611c4a84846114a4565b905080341015611c8f576040517f08c379a0000000000000000000000000000000000000000000000000000000008152600401611c86906135eb565b60405180910390fd5b600083905060005b600760008773ffffffffffffffffffffffffffffffffffffffff1673ffffffffffffffffffffffffffffffffffffffff1681526020019081526020016000208054905081108015611ce85750600082115b15611fae576000600760008873ffffffffffffffffffffffffffffffffffffffff1673ffffffffffffffffffffffffffffffffffffffff1681526020019081526020016000208281548110611d4057611d3f613113565b5b9060005260206000209060020201905080600101548310611e7f578673ffffffffffffffffffffffffffffffffffffffff166323b872dd8260000160009054906101000a900473ffffffffffffffffffffffffffffffffffffffff163384600101546040518463ffffffff1660e01b8152600401611dc09392919061360b565b6020604051808303816000875af1158015611ddf573d6000803e3d6000fd5b505050506040513d601f19601f82011682018060405250810190611e039190613657565b50806001015483611e1491906130df565b92508060010154600860008973ffffffffffffffffffffffffffffffffffffffff1673ffffffffffffffffffffffffffffffffffffffff1681526020019081526020016000206000828254611e6991906130df565b92505081905550611e7a878361107c565b611fa8565b8673ffffffffffffffffffffffffffffffffffffffff166323b872dd8260000160009054906101000a900473ffffffffffffffffffffffffffffffffffffffff1633866040518463ffffffff1660e01b8152600401611ee09392919061360b565b6020604051808303816000875af1158015611eff573d6000803e3d6000fd5b505050506040513d601f19601f82011682018060405250810190611f239190613657565b5082816001016000828254611f3891906130df565b9250508190555082600860008973ffffffffffffffffffffffffffffffffffffffff1673ffffffffffffffffffffffffffffffffffffffff1681526020019081526020016000206000828254611f8e91906130df565b92505081905550600092508180611fa490612f2a565b9250505b50611c97565b611fb78661061e565b5060008584611fc691906136b3565b90508281611fd49190613332565b341115612039573373ffffffffffffffffffffffffffffffffffffffff166108fc84836120019190613332565b3461200c91906130df565b9081150290604051600060405180830381858888f19350505050158015612037573d6000803e3d6000fd5b505b50505050505050565b6000600660003373ffffffffffffffffffffffffffffffffffffffff1673ffffffffffffffffffffffffffffffffffffffff16815260200190815260200160002054905061208f8361061e565b5060008373ffffffffffffffffffffffffffffffffffffffff166318160ddd6040518163ffffffff1660e01b8152600401602060405180830381865afa1580156120dd573d6000803e3d6000fd5b505050506040513d601f19601f820116820180604052508101906121019190612b8f565b11612141576040517f08c379a000000000000000000000000000000000000000000000000000000000815260040161213890612c19565b60405180910390fd5b3373ffffffffffffffffffffffffffffffffffffffff1660008083815260200190815260200160002060009054906101000a900473ffffffffffffffffffffffffffffffffffffffff1673ffffffffffffffffffffffffffffffffffffffff16146121e1576040517f08c379a00000000000000000000000000000000000000000000000000000000081526004016121d890612cab565b60405180910390fd5b600115156005600083815260200190815260200160002060008573ffffffffffffffffffffffffffffffffffffffff1673ffffffffffffffffffffffffffffffffffffffff16815260200190815260200160002060009054906101000a900460ff16151514612285576040517f08c379a000000000000000000000000000000000000000000000000000000000815260040161227c90613756565b60405180910390fd5b60008373ffffffffffffffffffffffffffffffffffffffff166370a08231336040518263ffffffff1660e01b81526004016122c091906128ca565b602060405180830381865afa1580156122dd573d6000803e3d6000fd5b505050506040513d601f19601f820116820180604052508101906123019190612b8f565b905080831115612346576040517f08c379a000000000000000000000000000000000000000000000000000000000815260040161233d906137e8565b60405180910390fd5b60008473ffffffffffffffffffffffffffffffffffffffff1663dd62ed3e33306040518363ffffffff1660e01b8152600401612383929190613808565b602060405180830381865afa1580156123a0573d6000803e3d6000fd5b505050506040513d601f19601f820116820180604052508101906123c49190612b8f565b905083811015612409576040517f08c379a0000000000000000000000000000000000000000000000000000000008152600401612400906138a3565b60405180910390fd5b600760008673ffffffffffffffffffffffffffffffffffffffff1673ffffffffffffffffffffffffffffffffffffffff16815260200190815260200160002060405180604001604052803373ffffffffffffffffffffffffffffffffffffffff16815260200186815250908060018154018082558091505060019003906000526020600020906002020160009091909190915060008201518160000160006101000a81548173ffffffffffffffffffffffffffffffffffffffff021916908373ffffffffffffffffffffffffffffffffffffffff16021790555060208201518160010155505083600860008773ffffffffffffffffffffffffffffffffffffffff1673ffffffffffffffffffffffffffffffffffffffff168152602001908152602001600020600082825461253e9190612ef6565b925050819055505050505050565b60056020528160005260406000206020528060005260406000206000915091509054906101000a900460ff1681565b60036020528160005260406000206020528060005260406000206000915091509054906101000a900460ff1681565b60008373ffffffffffffffffffffffffffffffffffffffff168373ffffffffffffffffffffffffffffffffffffffff16148061266c5750600360008573ffffffffffffffffffffffffffffffffffffffff1673ffffffffffffffffffffffffffffffffffffffff16815260200190815260200160002060008473ffffffffffffffffffffffffffffffffffffffff1673ffffffffffffffffffffffffffffffffffffffff16815260200190815260200160002060009054906101000a900460ff165b806126d557506002600083815260200190815260200160002060009054906101000a900473ffffffffffffffffffffffffffffffffffffffff1673ffffffffffffffffffffffffffffffffffffffff168373ffffffffffffffffffffffffffffffffffffffff16145b90509392505050565b600080fd5b600080fd5b60007fffffffff0000000000000000000000000000000000000000000000000000000082169050919050565b61271d816126e8565b811461272857600080fd5b50565b60008135905061273a81612714565b92915050565b600060208284031215612756576127556126de565b5b60006127648482850161272b565b91505092915050565b60008115159050919050565b6127828161276d565b82525050565b600060208201905061279d6000830184612779565b92915050565b600073ffffffffffffffffffffffffffffffffffffffff82169050919050565b60006127ce826127a3565b9050919050565b6127de816127c3565b81146127e957600080fd5b50565b6000813590506127fb816127d5565b92915050565b600060208284031215612817576128166126de565b5b6000612825848285016127ec565b91505092915050565b6000819050919050565b6128418161282e565b82525050565b600060208201905061285c6000830184612838565b92915050565b61286b8161282e565b811461287657600080fd5b50565b60008135905061288881612862565b92915050565b6000602082840312156128a4576128a36126de565b5b60006128b284828501612879565b91505092915050565b6128c4816127c3565b82525050565b60006020820190506128df60008301846128bb565b92915050565b600080604083850312156128fc576128fb6126de565b5b600061290a858286016127ec565b925050602061291b85828601612879565b9150509250929050565b60008060006060848603121561293e5761293d6126de565b5b600061294c868287016127ec565b935050602061295d868287016127ec565b925050604061296e86828701612879565b9150509250925092565b600060408201905061298d60008301856128bb565b61299a6020830184612838565b9392505050565b6129aa8161276d565b81146129b557600080fd5b50565b6000813590506129c7816129a1565b92915050565b600080604083850312156129e4576129e36126de565b5b60006129f2858286016127ec565b9250506020612a03858286016129b8565b9150509250929050565b600080fd5b600080fd5b600080fd5b60008083601f840112612a3257612a31612a0d565b5b8235905067ffffffffffffffff811115612a4f57612a4e612a12565b5b602083019150836001820283011115612a6b57612a6a612a17565b5b9250929050565b600080600080600060808688031215612a8e57612a8d6126de565b5b6000612a9c888289016127ec565b9550506020612aad888289016127ec565b9450506040612abe88828901612879565b935050606086013567ffffffffffffffff811115612adf57612ade6126e3565b5b612aeb88828901612a1c565b92509250509295509295909350565b60008060408385031215612b1157612b106126de565b5b6000612b1f85828601612879565b9250506020612b30858286016127ec565b9150509250929050565b60008060408385031215612b5157612b506126de565b5b6000612b5f858286016127ec565b9250506020612b70858286016127ec565b9150509250929050565b600081519050612b8981612862565b92915050565b600060208284031215612ba557612ba46126de565b5b6000612bb384828501612b7a565b91505092915050565b600082825260208201905092915050565b7f496e76616c6964204552432d323020636f6e7472616374000000000000000000600082015250565b6000612c03601783612bbc565b9150612c0e82612bcd565b602082019050919050565b60006020820190508181036000830152612c3281612bf6565b9050919050565b7f796f7520617265206e6f7420746865206f776e6572206f66207468697320706f60008201527f7274666f6c696f21000000000000000000000000000000000000000000000000602082015250565b6000612c95602883612bbc565b9150612ca082612c39565b604082019050919050565b60006020820190508181036000830152612cc481612c88565b9050919050565b7f796f7520646f6e74206f776e20616e792073746f636b20696e2074686973206360008201527f6f6d70616e792021210000000000000000000000000000000000000000000000602082015250565b6000612d27602983612bbc565b9150612d3282612ccb565b604082019050919050565b60006020820190508181036000830152612d5681612d1a565b9050919050565b7f746f6b656e20646f65736e277420657869737400000000000000000000000000600082015250565b6000612d93601383612bbc565b9150612d9e82612d5d565b602082019050919050565b60006020820190508181036000830152612dc281612d86565b9050919050565b7f6e6f7420617574686f72697a6564000000000000000000000000000000000000600082015250565b6000612dff600e83612bbc565b9150612e0a82612dc9565b602082019050919050565b60006020820190508181036000830152612e2e81612df2565b9050919050565b7f796f75206861766520616c726561647920616c7265616479206d696e7465642060008201527f796f757220706f7274666f6c696f202100000000000000000000000000000000602082015250565b6000612e91603083612bbc565b9150612e9c82612e35565b604082019050919050565b60006020820190508181036000830152612ec081612e84565b9050919050565b7f4e487b7100000000000000000000000000000000000000000000000000000000600052601160045260246000fd5b6000612f018261282e565b9150612f0c8361282e565b9250828201905080821115612f2457612f23612ec7565b5b92915050565b6000612f358261282e565b91507fffffffffffffffffffffffffffffffffffffffffffffffffffffffffffffffff8203612f6757612f66612ec7565b5b600182019050919050565b7f66726f6d20213d206f776e657200000000000000000000000000000000000000600082015250565b6000612fa8600d83612bbc565b9150612fb382612f72565b602082019050919050565b60006020820190508181036000830152612fd781612f9b565b9050919050565b7f7472616e7366657220746f207a65726f20616464726573730000000000000000600082015250565b6000613014601883612bbc565b915061301f82612fde565b602082019050919050565b6000602082019050818103600083015261304381613007565b9050919050565b60006130558261282e565b91506000820361306857613067612ec7565b5b600182039050919050565b7f496e76616c6964206c697374696e6720696e6465780000000000000000000000600082015250565b60006130a9601583612bbc565b91506130b482613073565b602082019050919050565b600060208201905081810360008301526130d88161309c565b9050919050565b60006130ea8261282e565b91506130f58361282e565b925082820390508181111561310d5761310c612ec7565b5b92915050565b7f4e487b7100000000000000000000000000000000000000000000000000000000600052603260045260246000fd5b7f4e487b7100000000000000000000000000000000000000000000000000000000600052603160045260246000fd5b600082825260208201905092915050565b50565b6000613192600083613171565b915061319d82613182565b600082019050919050565b60006080820190506131bd60008301866128bb565b6131ca60208301856128bb565b6131d76040830184612838565b81810360608301526131e881613185565b9050949350505050565b60008151905061320181612714565b92915050565b60006020828403121561321d5761321c6126de565b5b600061322b848285016131f2565b91505092915050565b7f756e7361666520726563697069656e7400000000000000000000000000000000600082015250565b600061326a601083612bbc565b915061327582613234565b602082019050919050565b600060208201905081810360008301526132998161325d565b9050919050565b7f736f727279202c206e6f7420656e6f7567682073746f636b206861732062656560008201527f6e206c697374656420757020666f722073616c65000000000000000000000000602082015250565b60006132fc603483612bbc565b9150613307826132a0565b604082019050919050565b6000602082019050818103600083015261332b816132ef565b9050919050565b600061333d8261282e565b91506133488361282e565b92508282026133568161282e565b9150828204841483151761336d5761336c612ec7565b5b5092915050565b7f6f776e6572203d207a65726f2061646472657373000000000000000000000000600082015250565b60006133aa601483612bbc565b91506133b582613374565b602082019050919050565b600060208201905081810360008301526133d98161339d565b9050919050565b82818337600083830152505050565b6000601f19601f8301169050919050565b600061340c8385613171565b93506134198385846133e0565b613422836133ef565b840190509392505050565b600060808201905061344260008301886128bb565b61344f60208301876128bb565b61345c6040830186612838565b818103606083015261346f818486613400565b90509695505050505050565b7f4e6f7420656e6f7567682073746f636b20617661696c61626c6520666f72207360008201527f616c650000000000000000000000000000000000000000000000000000000000602082015250565b60006134d7602383612bbc565b91506134e28261347b565b604082019050919050565b60006020820190508181036000830152613506816134ca565b9050919050565b7f596f7520617265206e6f7420746865206f776e6572206f66207468697320706f60008201527f7274666f6c696f21000000000000000000000000000000000000000000000000602082015250565b6000613569602883612bbc565b91506135748261350d565b604082019050919050565b600060208201905081810360008301526135988161355c565b9050919050565b7f496e73756666696369656e74207061796d656e74000000000000000000000000600082015250565b60006135d5601483612bbc565b91506135e08261359f565b602082019050919050565b60006020820190508181036000830152613604816135c8565b9050919050565b600060608201905061362060008301866128bb565b61362d60208301856128bb565b61363a6040830184612838565b949350505050565b600081519050613651816129a1565b92915050565b60006020828403121561366d5761366c6126de565b5b600061367b84828501613642565b91505092915050565b7f4e487b7100000000000000000000000000000000000000000000000000000000600052601260045260246000fd5b60006136be8261282e565b91506136c98361282e565b9250826136d9576136d8613684565b5b828204905092915050565b7f796f757220706f7274666f6c696f28746f6b656e6e49442920686173206e6f2060008201527f73746f636b207468697320636f6d70616e790000000000000000000000000000602082015250565b6000613740603283612bbc565b915061374b826136e4565b604082019050919050565b6000602082019050818103600083015261376f81613733565b9050919050565b7f796f752063616e74206c697374206d6f72652073746f636b207468616e20796f60008201527f75206f776e20696e2074686520636f6d70616e79212100000000000000000000602082015250565b60006137d2603683612bbc565b91506137dd82613776565b604082019050919050565b60006020820190508181036000830152613801816137c5565b9050919050565b600060408201905061381d60008301856128bb565b61382a60208301846128bb565b9392505050565b7f6e6f7420656e6f7567682073746f636b20697320617574686f72697a6564207460008201527f6f20626520736f6c640000000000000000000000000000000000000000000000602082015250565b600061388d602983612bbc565b915061389882613831565b604082019050919050565b600060208201905081810360008301526138bc81613880565b905091905056fea2646970667358221220d5629992fdfa9049a38dde2add8f0d991d0a4de41c40301d0576c0696e7b316964736f6c634300081c0033",
  "linkReferences": {},
  "deployedLinkReferences": {}
}