{
  "_format": "hh-sol-artifact-1",
  "contractName": "portfolio",
  "sourceName": "contracts/portfolio.sol",
  "abi": [
    {
      "inputs": [],
      "stateMutability": "nonpayable",
      "type": "constructor"
    },
    {
      "anonymous": false,
      "inputs": [
        {
          "indexed": true,
          "internalType": "address",
          "name": "owner",
          "type": "address"
        },
        {
          "indexed": true,
          "internalType": "address",
          "name": "spender",
          "type": "address"
        },
        {
          "indexed": true,
          "internalType": "uint256",
          "name": "id",
          "type": "uint256"
        }
      ],
      "name": "Approval",
      "type": "event"
    },
    {
      "anonymous": false,
      "inputs": [
        {
          "indexed": true,
          "internalType": "address",
          "name": "owner",
          "type": "address"
        },
        {
          "indexed": true,
          "internalType": "address",
          "name": "operator",
          "type": "address"
        },
        {
          "indexed": false,
          "internalType": "bool",
          "name": "approved",
          "type": "bool"
        }
      ],
      "name": "ApprovalForAll",
      "type": "event"
    },
    {
      "anonymous": false,
      "inputs": [
        {
          "indexed": true,
          "internalType": "address",
          "name": "from",
          "type": "address"
        },
        {
          "indexed": true,
          "internalType": "address",
          "name": "to",
          "type": "address"
        },
        {
          "indexed": true,
          "internalType": "uint256",
          "name": "id",
          "type": "uint256"
        }
      ],
      "name": "Transfer",
      "type": "event"
    },
    {
      "inputs": [
        {
          "internalType": "uint256",
          "name": "",
          "type": "uint256"
        }
      ],
      "name": "_isPortfolioForSale",
      "outputs": [
        {
          "internalType": "bool",
          "name": "",
          "type": "bool"
        }
      ],
      "stateMutability": "view",
      "type": "function"
    },
    {
      "inputs": [
        {
          "internalType": "uint256",
          "name": "",
          "type": "uint256"
        }
      ],
      "name": "_listedPortfolioOwner",
      "outputs": [
        {
          "internalType": "address",
          "name": "",
          "type": "address"
        }
      ],
      "stateMutability": "view",
      "type": "function"
    },
    {
      "inputs": [
        {
          "internalType": "address",
          "name": "",
          "type": "address"
        }
      ],
      "name": "_ownedToken",
      "outputs": [
        {
          "internalType": "uint256",
          "name": "",
          "type": "uint256"
        }
      ],
      "stateMutability": "view",
      "type": "function"
    },
    {
      "inputs": [
        {
          "internalType": "address",
          "name": "",
          "type": "address"
        },
        {
          "internalType": "uint256",
          "name": "",
          "type": "uint256"
        }
      ],
      "name": "_stocksForSale",
      "outputs": [
        {
          "internalType": "address",
          "name": "seller",
          "type": "address"
        },
        {
          "internalType": "uint256",
          "name": "count",
          "type": "uint256"
        }
      ],
      "stateMutability": "view",
      "type": "function"
    },
    {
      "inputs": [
        {
          "internalType": "uint256",
          "name": "",
          "type": "uint256"
        },
        {
          "internalType": "address",
          "name": "",
          "type": "address"
        }
      ],
      "name": "_tokenHasStock",
      "outputs": [
        {
          "internalType": "bool",
          "name": "",
          "type": "bool"
        }
      ],
      "stateMutability": "view",
      "type": "function"
    },
    {
      "inputs": [
        {
          "internalType": "uint256",
          "name": "",
          "type": "uint256"
        },
        {
          "internalType": "uint256",
          "name": "",
          "type": "uint256"
        }
      ],
      "name": "_tokenStockAddresses",
      "outputs": [
        {
          "internalType": "address",
          "name": "",
          "type": "address"
        }
      ],
      "stateMutability": "view",
      "type": "function"
    },
    {
      "inputs": [
        {
          "internalType": "address",
          "name": "",
          "type": "address"
        }
      ],
      "name": "_totalSellCount",
      "outputs": [
        {
          "internalType": "uint256",
          "name": "",
          "type": "uint256"
        }
      ],
      "stateMutability": "view",
      "type": "function"
    },
    {
      "inputs": [
        {
          "internalType": "address",
          "name": "",
          "type": "address"
        },
        {
          "internalType": "address",
          "name": "",
          "type": "address"
        }
      ],
      "name": "_userListedStocks",
      "outputs": [
        {
          "internalType": "uint256",
          "name": "",
          "type": "uint256"
        }
      ],
      "stateMutability": "view",
      "type": "function"
    },
    {
      "inputs": [
        {
          "internalType": "address",
          "name": "spender",
          "type": "address"
        },
        {
          "internalType": "uint256",
          "name": "id",
          "type": "uint256"
        }
      ],
      "name": "approve",
      "outputs": [],
      "stateMutability": "nonpayable",
      "type": "function"
    },
    {
      "inputs": [
        {
          "internalType": "address",
          "name": "owner",
          "type": "address"
        }
      ],
      "name": "balanceOf",
      "outputs": [
        {
          "internalType": "uint256",
          "name": "",
          "type": "uint256"
        }
      ],
      "stateMutability": "view",
      "type": "function"
    },
    {
      "inputs": [
        {
          "internalType": "address",
          "name": "stockFtAddress",
          "type": "address"
        },
        {
          "internalType": "uint256",
          "name": "count",
          "type": "uint256"
        }
      ],
      "name": "buy",
      "outputs": [],
      "stateMutability": "payable",
      "type": "function"
    },
    {
      "inputs": [
        {
          "internalType": "uint256",
          "name": "token_id",
          "type": "uint256"
        }
      ],
      "name": "buyPortfolio",
      "outputs": [],
      "stateMutability": "payable",
      "type": "function"
    },
    {
      "inputs": [
        {
          "internalType": "address",
          "name": "stockFtAddress",
          "type": "address"
        }
      ],
      "name": "getAPrice",
      "outputs": [
        {
          "internalType": "uint256",
          "name": "",
          "type": "uint256"
        }
      ],
      "stateMutability": "pure",
      "type": "function"
    },
    {
      "inputs": [
        {
          "internalType": "uint256",
          "name": "id",
          "type": "uint256"
        }
      ],
      "name": "getApproved",
      "outputs": [
        {
          "internalType": "address",
          "name": "",
          "type": "address"
        }
      ],
      "stateMutability": "view",
      "type": "function"
    },
    {
      "inputs": [
        {
          "internalType": "address",
          "name": "stockFtAddress",
          "type": "address"
        },
        {
          "internalType": "uint256",
          "name": "count",
          "type": "uint256"
        }
      ],
      "name": "getPrice",
      "outputs": [
        {
          "internalType": "uint256",
          "name": "",
          "type": "uint256"
        }
      ],
      "stateMutability": "view",
      "type": "function"
    },
    {
      "inputs": [
        {
          "internalType": "address",
          "name": "stockAddress",
          "type": "address"
        }
      ],
      "name": "getStockListingsLength",
      "outputs": [
        {
          "internalType": "uint256",
          "name": "",
          "type": "uint256"
        }
      ],
      "stateMutability": "view",
      "type": "function"
    },
    {
      "inputs": [
        {
          "internalType": "uint256",
          "name": "tokenId",
          "type": "uint256"
        }
      ],
      "name": "getTokenStockAddresses",
      "outputs": [
        {
          "internalType": "address[]",
          "name": "",
          "type": "address[]"
        }
      ],
      "stateMutability": "view",
      "type": "function"
    },
    {
      "inputs": [
        {
          "internalType": "address",
          "name": "",
          "type": "address"
        },
        {
          "internalType": "address",
          "name": "",
          "type": "address"
        }
      ],
      "name": "isApprovedForAll",
      "outputs": [
        {
          "internalType": "bool",
          "name": "",
          "type": "bool"
        }
      ],
      "stateMutability": "view",
      "type": "function"
    },
    {
      "inputs": [],
      "name": "listPortfolioToSell",
      "outputs": [],
      "stateMutability": "nonpayable",
      "type": "function"
    },
    {
      "inputs": [
        {
          "internalType": "address",
          "name": "stockFtAddress",
          "type": "address"
        },
        {
          "internalType": "uint256",
          "name": "count",
          "type": "uint256"
        }
      ],
      "name": "list_stock_to_sell",
      "outputs": [],
      "stateMutability": "nonpayable",
      "type": "function"
    },
    {
      "inputs": [],
      "name": "mint",
      "outputs": [],
      "stateMutability": "nonpayable",
      "type": "function"
    },
    {
      "inputs": [
        {
          "internalType": "address",
          "name": "from",
          "type": "address"
        },
        {
          "internalType": "address",
          "name": "to",
          "type": "address"
        },
        {
          "internalType": "uint256",
          "name": "id",
          "type": "uint256"
        }
      ],
      "name": "myTransferFrom",
      "outputs": [],
      "stateMutability": "nonpayable",
      "type": "function"
    },
    {
      "inputs": [
        {
          "internalType": "uint256",
          "name": "id",
          "type": "uint256"
        }
      ],
      "name": "ownerOf",
      "outputs": [
        {
          "internalType": "address",
          "name": "owner",
          "type": "address"
        }
      ],
      "stateMutability": "view",
      "type": "function"
    },
    {
      "inputs": [
        {
          "internalType": "address",
          "name": "from",
          "type": "address"
        },
        {
          "internalType": "address",
          "name": "to",
          "type": "address"
        },
        {
          "internalType": "uint256",
          "name": "id",
          "type": "uint256"
        }
      ],
      "name": "safeTransferFrom",
      "outputs": [],
      "stateMutability": "nonpayable",
      "type": "function"
    },
    {
      "inputs": [
        {
          "internalType": "address",
          "name": "from",
          "type": "address"
        },
        {
          "internalType": "address",
          "name": "to",
          "type": "address"
        },
        {
          "internalType": "uint256",
          "name": "id",
          "type": "uint256"
        },
        {
          "internalType": "bytes",
          "name": "data",
          "type": "bytes"
        }
      ],
      "name": "safeTransferFrom",
      "outputs": [],
      "stateMutability": "nonpayable",
      "type": "function"
    },
    {
      "inputs": [
        {
          "internalType": "address",
          "name": "operator",
          "type": "address"
        },
        {
          "internalType": "bool",
          "name": "approved",
          "type": "bool"
        }
      ],
      "name": "setApprovalForAll",
      "outputs": [],
      "stateMutability": "nonpayable",
      "type": "function"
    },
    {
      "inputs": [
        {
          "internalType": "bytes4",
          "name": "interfaceId",
          "type": "bytes4"
        }
      ],
      "name": "supportsInterface",
      "outputs": [
        {
          "internalType": "bool",
          "name": "",
          "type": "bool"
        }
      ],
      "stateMutability": "pure",
      "type": "function"
    },
    {
      "inputs": [],
      "name": "tokenCount",
      "outputs": [
        {
          "internalType": "uint256",
          "name": "",
          "type": "uint256"
        }
      ],
      "stateMutability": "view",
      "type": "function"
    },
    {
      "inputs": [
        {
          "internalType": "address",
          "name": "from",
          "type": "address"
        },
        {
          "internalType": "address",
          "name": "to",
          "type": "address"
        },
        {
          "internalType": "uint256",
          "name": "id",
          "type": "uint256"
        }
      ],
      "name": "transferFrom",
      "outputs": [],
      "stateMutability": "nonpayable",
      "type": "function"
    },
    {
      "inputs": [
        {
          "internalType": "address",
          "name": "stockFtAddress",
          "type": "address"
        }
      ],
      "name": "updatePortfolio",
      "outputs": [
        {
          "internalType": "uint256",
          "name": "",
          "type": "uint256"
        }
      ],
      "stateMutability": "nonpayable",
      "type": "function"
    }
  ],
  "bytecode": "0x6080604052348015600f57600080fd5b5060006004819055506152c6806100276000396000f3fe6080604052600436106101cd5760003560e01c80636352211e116100f7578063a22cb46511610095578063d24b20f511610064578063d24b20f5146106ed578063d2863e7514610716578063d7305c8314610753578063e985e9c514610790576101cd565b8063a22cb46514610663578063afb21f2f1461068c578063b88d4fde146106a8578063cce7ec13146106d1576101cd565b806373bd5bb4116100d157806373bd5bb41461058057806385ad5085146105bd5780639b232ab0146105fa5780639f181b5e14610638576101cd565b80636352211e146104c95780636c13e6511461050657806370a0823114610543576101cd565b80631249c58b1161016f578063449e815d1161013e578063449e815d146103d5578063567241151461041257806356a8c1171461044f5780635ba5f5101461048c576101cd565b80631249c58b1461035557806312e67db41461036c57806323b872dd1461038357806342842e0e146103ac576101cd565b8063078a235e116101ab578063078a235e14610275578063081812fc146102b2578063095ea7b3146102ef5780630dbf53e814610318576101cd565b8063016e44e7146101d25780630175b22f1461020f57806301ffc9a714610238575b600080fd5b3480156101de57600080fd5b506101f960048036038101906101f49190613c41565b6107cd565b6040516102069190613c87565b60405180910390f35b34801561021b57600080fd5b5061023660048036038101906102319190613cce565b610819565b005b34801561024457600080fd5b5061025f600480360381019061025a9190613d79565b610a83565b60405161026c9190613dc1565b60405180910390f35b34801561028157600080fd5b5061029c60048036038101906102979190613c41565b610b55565b6040516102a99190613c87565b60405180910390f35b3480156102be57600080fd5b506102d960048036038101906102d49190613ddc565b610efd565b6040516102e69190613e18565b60405180910390f35b3480156102fb57600080fd5b5061031660048036038101906103119190613e33565b610fda565b005b34801561032457600080fd5b5061033f600480360381019061033a9190613ddc565b6111c2565b60405161034c9190613e18565b60405180910390f35b34801561036157600080fd5b5061036a6111f5565b005b34801561037857600080fd5b506103816113da565b005b34801561038f57600080fd5b506103aa60048036038101906103a59190613cce565b6115a6565b005b3480156103b857600080fd5b506103d360048036038101906103ce9190613cce565b611890565b005b3480156103e157600080fd5b506103fc60048036038101906103f79190613e33565b6119c8565b6040516104099190613c87565b60405180910390f35b34801561041e57600080fd5b5061043960048036038101906104349190613ddc565b611b17565b6040516104469190613dc1565b60405180910390f35b34801561045b57600080fd5b5061047660048036038101906104719190613ddc565b611b37565b6040516104839190613f31565b60405180910390f35b34801561049857600080fd5b506104b360048036038101906104ae9190613f53565b611c31565b6040516104c09190613c87565b60405180910390f35b3480156104d557600080fd5b506104f060048036038101906104eb9190613ddc565b611c56565b6040516104fd9190613e18565b60405180910390f35b34801561051257600080fd5b5061052d60048036038101906105289190613c41565b611d01565b60405161053a9190613c87565b60405180910390f35b34801561054f57600080fd5b5061056a60048036038101906105659190613c41565b611d19565b6040516105779190613c87565b60405180910390f35b34801561058c57600080fd5b506105a760048036038101906105a29190613c41565b611dd0565b6040516105b49190613c87565b60405180910390f35b3480156105c957600080fd5b506105e460048036038101906105df9190613c41565b611e4f565b6040516105f19190613c87565b60405180910390f35b34801561060657600080fd5b50610621600480360381019061061c9190613e33565b611e67565b60405161062f929190613f93565b60405180910390f35b34801561064457600080fd5b5061064d611ec8565b60405161065a9190613c87565b60405180910390f35b34801561066f57600080fd5b5061068a60048036038101906106859190613fe8565b611ece565b005b6106a660048036038101906106a19190613ddc565b611fcb565b005b3480156106b457600080fd5b506106cf60048036038101906106ca919061408d565b612644565b005b6106eb60048036038101906106e69190613e33565b612782565b005b3480156106f957600080fd5b50610714600480360381019061070f9190613e33565b612f0f565b005b34801561072257600080fd5b5061073d60048036038101906107389190614115565b61357c565b60405161074a9190613dc1565b60405180910390f35b34801561075f57600080fd5b5061077a60048036038101906107759190614155565b6135ab565b6040516107879190613e18565b60405180910390f35b34801561079c57600080fd5b506107b760048036038101906107b29190613f53565b6135f9565b6040516107c49190613dc1565b60405180910390f35b6000600760008373ffffffffffffffffffffffffffffffffffffffff1673ffffffffffffffffffffffffffffffffffffffff168152602001908152602001600020805490509050919050565b60008082815260200190815260200160002060009054906101000a900473ffffffffffffffffffffffffffffffffffffffff1673ffffffffffffffffffffffffffffffffffffffff168373ffffffffffffffffffffffffffffffffffffffff16146108b9576040517f08c379a00000000000000000000000000000000000000000000000000000000081526004016108b0906141f2565b60405180910390fd5b600073ffffffffffffffffffffffffffffffffffffffff168273ffffffffffffffffffffffffffffffffffffffff1603610928576040517f08c379a000000000000000000000000000000000000000000000000000000000815260040161091f9061425e565b60405180910390fd5b600160008473ffffffffffffffffffffffffffffffffffffffff1673ffffffffffffffffffffffffffffffffffffffff1681526020019081526020016000206000815480929190610978906142ad565b9190505550600160008373ffffffffffffffffffffffffffffffffffffffff1673ffffffffffffffffffffffffffffffffffffffff16815260200190815260200160002060008154809291906109cd906142d6565b91905055508160008083815260200190815260200160002060006101000a81548173ffffffffffffffffffffffffffffffffffffffff021916908373ffffffffffffffffffffffffffffffffffffffff160217905550808273ffffffffffffffffffffffffffffffffffffffff168473ffffffffffffffffffffffffffffffffffffffff167fddf252ad1be2c89b69c2b068fc378daa952ba7f163c4a11628f55a4df523b3ef60405160405180910390a4505050565b60007f80ac58cd000000000000000000000000000000000000000000000000000000007bffffffffffffffffffffffffffffffffffffffffffffffffffffffff1916827bffffffffffffffffffffffffffffffffffffffffffffffffffffffff19161480610b4e57507f01ffc9a7000000000000000000000000000000000000000000000000000000007bffffffffffffffffffffffffffffffffffffffffffffffffffffffff1916827bffffffffffffffffffffffffffffffffffffffffffffffffffffffff1916145b9050919050565b6000808273ffffffffffffffffffffffffffffffffffffffff166318160ddd6040518163ffffffff1660e01b8152600401602060405180830381865afa158015610ba3573d6000803e3d6000fd5b505050506040513d601f19601f82011682018060405250810190610bc79190614333565b11610c07576040517f08c379a0000000000000000000000000000000000000000000000000000000008152600401610bfe906143ac565b60405180910390fd5b6000600660003373ffffffffffffffffffffffffffffffffffffffff1673ffffffffffffffffffffffffffffffffffffffff1681526020019081526020016000205490503373ffffffffffffffffffffffffffffffffffffffff1660008083815260200190815260200160002060009054906101000a900473ffffffffffffffffffffffffffffffffffffffff1673ffffffffffffffffffffffffffffffffffffffff1614610ceb576040517f08c379a0000000000000000000000000000000000000000000000000000000008152600401610ce29061443e565b60405180910390fd5b60008373ffffffffffffffffffffffffffffffffffffffff166370a08231336040518263ffffffff1660e01b8152600401610d269190613e18565b602060405180830381865afa158015610d43573d6000803e3d6000fd5b505050506040513d601f19601f82011682018060405250810190610d679190614333565b905060008111610dac576040517f08c379a0000000000000000000000000000000000000000000000000000000008152600401610da3906144d0565b60405180910390fd5b600115156005600084815260200190815260200160002060008673ffffffffffffffffffffffffffffffffffffffff1673ffffffffffffffffffffffffffffffffffffffff16815260200190815260200160002060009054906101000a900460ff16151514610ef35760016005600084815260200190815260200160002060008673ffffffffffffffffffffffffffffffffffffffff1673ffffffffffffffffffffffffffffffffffffffff16815260200190815260200160002060006101000a81548160ff021916908315150217905550600b6000838152602001908152602001600020849080600181540180825580915050600190039060005260206000200160009091909190916101000a81548173ffffffffffffffffffffffffffffffffffffffff021916908373ffffffffffffffffffffffffffffffffffffffff1602179055505b8092505050919050565b60008073ffffffffffffffffffffffffffffffffffffffff1660008084815260200190815260200160002060009054906101000a900473ffffffffffffffffffffffffffffffffffffffff1673ffffffffffffffffffffffffffffffffffffffff1603610f9f576040517f08c379a0000000000000000000000000000000000000000000000000000000008152600401610f969061453c565b60405180910390fd5b6002600083815260200190815260200160002060009054906101000a900473ffffffffffffffffffffffffffffffffffffffff169050919050565b600080600083815260200190815260200160002060009054906101000a900473ffffffffffffffffffffffffffffffffffffffff1690508073ffffffffffffffffffffffffffffffffffffffff163373ffffffffffffffffffffffffffffffffffffffff1614806110d15750600360008273ffffffffffffffffffffffffffffffffffffffff1673ffffffffffffffffffffffffffffffffffffffff16815260200190815260200160002060003373ffffffffffffffffffffffffffffffffffffffff1673ffffffffffffffffffffffffffffffffffffffff16815260200190815260200160002060009054906101000a900460ff165b611110576040517f08c379a0000000000000000000000000000000000000000000000000000000008152600401611107906145a8565b60405180910390fd5b826002600084815260200190815260200160002060006101000a81548173ffffffffffffffffffffffffffffffffffffffff021916908373ffffffffffffffffffffffffffffffffffffffff160217905550818373ffffffffffffffffffffffffffffffffffffffff168273ffffffffffffffffffffffffffffffffffffffff167f8c5be1e5ebec7d5bd14f71427d1e84f3dd0314c0f7b2291e5b200ac8c7c3b92560405160405180910390a4505050565b600c6020528060005260406000206000915054906101000a900473ffffffffffffffffffffffffffffffffffffffff1681565b6000600160003373ffffffffffffffffffffffffffffffffffffffff1673ffffffffffffffffffffffffffffffffffffffff1681526020019081526020016000205414611277576040517f08c379a000000000000000000000000000000000000000000000000000000000815260040161126e9061463a565b60405180910390fd5b6001600454611286919061465a565b600481905550600160003373ffffffffffffffffffffffffffffffffffffffff1673ffffffffffffffffffffffffffffffffffffffff16815260200190815260200160002060008154809291906112dc906142d6565b919050555033600080600454815260200190815260200160002060006101000a81548173ffffffffffffffffffffffffffffffffffffffff021916908373ffffffffffffffffffffffffffffffffffffffff160217905550600454600660003373ffffffffffffffffffffffffffffffffffffffff1673ffffffffffffffffffffffffffffffffffffffff168152602001908152602001600020819055506004543373ffffffffffffffffffffffffffffffffffffffff16600073ffffffffffffffffffffffffffffffffffffffff167fddf252ad1be2c89b69c2b068fc378daa952ba7f163c4a11628f55a4df523b3ef60405160405180910390a4565b6000600660003373ffffffffffffffffffffffffffffffffffffffff1673ffffffffffffffffffffffffffffffffffffffff1681526020019081526020016000205490503373ffffffffffffffffffffffffffffffffffffffff1660008083815260200190815260200160002060009054906101000a900473ffffffffffffffffffffffffffffffffffffffff1673ffffffffffffffffffffffffffffffffffffffff16146114be576040517f08c379a00000000000000000000000000000000000000000000000000000000081526004016114b59061443e565b60405180910390fd5b60001515600a600083815260200190815260200160002060009054906101000a900460ff16151514611525576040517f08c379a000000000000000000000000000000000000000000000000000000000815260040161151c90614700565b60405180910390fd5b6001600a600083815260200190815260200160002060006101000a81548160ff02191690831515021790555033600c600083815260200190815260200160002060006101000a81548173ffffffffffffffffffffffffffffffffffffffff021916908373ffffffffffffffffffffffffffffffffffffffff16021790555050565b60008082815260200190815260200160002060009054906101000a900473ffffffffffffffffffffffffffffffffffffffff1673ffffffffffffffffffffffffffffffffffffffff168373ffffffffffffffffffffffffffffffffffffffff1614611646576040517f08c379a000000000000000000000000000000000000000000000000000000000815260040161163d906141f2565b60405180910390fd5b600073ffffffffffffffffffffffffffffffffffffffff168273ffffffffffffffffffffffffffffffffffffffff16036116b5576040517f08c379a00000000000000000000000000000000000000000000000000000000081526004016116ac9061425e565b60405180910390fd5b6116c0833383613628565b6116ff576040517f08c379a00000000000000000000000000000000000000000000000000000000081526004016116f6906145a8565b60405180910390fd5b600160008473ffffffffffffffffffffffffffffffffffffffff1673ffffffffffffffffffffffffffffffffffffffff168152602001908152602001600020600081548092919061174f906142ad565b9190505550600160008373ffffffffffffffffffffffffffffffffffffffff1673ffffffffffffffffffffffffffffffffffffffff16815260200190815260200160002060008154809291906117a4906142d6565b91905055508160008083815260200190815260200160002060006101000a81548173ffffffffffffffffffffffffffffffffffffffff021916908373ffffffffffffffffffffffffffffffffffffffff1602179055506002600082815260200190815260200160002060006101000a81549073ffffffffffffffffffffffffffffffffffffffff0219169055808273ffffffffffffffffffffffffffffffffffffffff168473ffffffffffffffffffffffffffffffffffffffff167fddf252ad1be2c89b69c2b068fc378daa952ba7f163c4a11628f55a4df523b3ef60405160405180910390a4505050565b61189b8383836115a6565b60008273ffffffffffffffffffffffffffffffffffffffff163b1480611984575063150b7a0260e01b7bffffffffffffffffffffffffffffffffffffffffffffffffffffffff19168273ffffffffffffffffffffffffffffffffffffffff1663150b7a023386856040518463ffffffff1660e01b815260040161192093929190614757565b6020604051808303816000875af115801561193f573d6000803e3d6000fd5b505050506040513d601f19601f8201168201806040525081019061196391906147b6565b7bffffffffffffffffffffffffffffffffffffffffffffffffffffffff1916145b6119c3576040517f08c379a00000000000000000000000000000000000000000000000000000000081526004016119ba9061482f565b60405180910390fd5b505050565b6000808373ffffffffffffffffffffffffffffffffffffffff166318160ddd6040518163ffffffff1660e01b8152600401602060405180830381865afa158015611a16573d6000803e3d6000fd5b505050506040513d601f19601f82011682018060405250810190611a3a9190614333565b11611a7a576040517f08c379a0000000000000000000000000000000000000000000000000000000008152600401611a71906143ac565b60405180910390fd5b81600860008573ffffffffffffffffffffffffffffffffffffffff1673ffffffffffffffffffffffffffffffffffffffff168152602001908152602001600020541015611afc576040517f08c379a0000000000000000000000000000000000000000000000000000000008152600401611af3906148c1565b60405180910390fd5b6000606490508281611b0e91906148e1565b91505092915050565b600a6020528060005260406000206000915054906101000a900460ff1681565b60606000600b60008481526020019081526020016000208054905011611b92576040517f08c379a0000000000000000000000000000000000000000000000000000000008152600401611b8990614995565b60405180910390fd5b600b6000838152602001908152602001600020805480602002602001604051908101604052809291908181526020018280548015611c2557602002820191906000526020600020905b8160009054906101000a900473ffffffffffffffffffffffffffffffffffffffff1673ffffffffffffffffffffffffffffffffffffffff1681526020019060010190808311611bdb575b50505050509050919050565b6009602052816000526040600020602052806000526040600020600091509150505481565b600080600083815260200190815260200160002060009054906101000a900473ffffffffffffffffffffffffffffffffffffffff169050600073ffffffffffffffffffffffffffffffffffffffff168173ffffffffffffffffffffffffffffffffffffffff1603611cfc576040517f08c379a0000000000000000000000000000000000000000000000000000000008152600401611cf39061453c565b60405180910390fd5b919050565b60086020528060005260406000206000915090505481565b60008073ffffffffffffffffffffffffffffffffffffffff168273ffffffffffffffffffffffffffffffffffffffff1603611d89576040517f08c379a0000000000000000000000000000000000000000000000000000000008152600401611d8090614a01565b60405180910390fd5b600160008373ffffffffffffffffffffffffffffffffffffffff1673ffffffffffffffffffffffffffffffffffffffff168152602001908152602001600020549050919050565b60008073ffffffffffffffffffffffffffffffffffffffff168273ffffffffffffffffffffffffffffffffffffffff1603611e40576040517f08c379a0000000000000000000000000000000000000000000000000000000008152600401611e3790614a6d565b60405180910390fd5b60006064905080915050919050565b60066020528060005260406000206000915090505481565b60076020528160005260406000208181548110611e8357600080fd5b9060005260206000209060020201600091509150508060000160009054906101000a900473ffffffffffffffffffffffffffffffffffffffff16908060010154905082565b60045481565b80600360003373ffffffffffffffffffffffffffffffffffffffff1673ffffffffffffffffffffffffffffffffffffffff16815260200190815260200160002060008473ffffffffffffffffffffffffffffffffffffffff1673ffffffffffffffffffffffffffffffffffffffff16815260200190815260200160002060006101000a81548160ff0219169083151502179055508173ffffffffffffffffffffffffffffffffffffffff163373ffffffffffffffffffffffffffffffffffffffff167f17307eab39ab6107e8899845ad3d59bd9653f200f220920489ca2b5937696c3183604051611fbf9190613dc1565b60405180910390a35050565b600a600082815260200190815260200160002060009054906101000a900460ff1661202b576040517f08c379a000000000000000000000000000000000000000000000000000000000815260040161202290614aff565b60405180910390fd5b6000600c600083815260200190815260200160002060009054906101000a900473ffffffffffffffffffffffffffffffffffffffff169050600073ffffffffffffffffffffffffffffffffffffffff168173ffffffffffffffffffffffffffffffffffffffff16036120d2576040517f08c379a00000000000000000000000000000000000000000000000000000000081526004016120c990614b6b565b60405180910390fd5b3373ffffffffffffffffffffffffffffffffffffffff168173ffffffffffffffffffffffffffffffffffffffff1603612140576040517f08c379a000000000000000000000000000000000000000000000000000000000815260040161213790614bfd565b60405180910390fd5b6000805b600b6000858152602001908152602001600020805490508110156122ce576000600b6000868152602001908152602001600020828154811061218957612188614c1d565b5b9060005260206000200160009054906101000a900473ffffffffffffffffffffffffffffffffffffffff1690506005600086815260200190815260200160002060008273ffffffffffffffffffffffffffffffffffffffff1673ffffffffffffffffffffffffffffffffffffffff16815260200190815260200160002060009054906101000a900460ff16156122c05760008173ffffffffffffffffffffffffffffffffffffffff166370a08231866040518263ffffffff1660e01b81526004016122549190613e18565b602060405180830381865afa158015612271573d6000803e3d6000fd5b505050506040513d601f19601f820116820180604052508101906122959190614333565b905060006122a283611dd0565b905081816122b091906148e1565b856122bb919061465a565b945050505b508080600101915050612144565b5080341015612312576040517f08c379a000000000000000000000000000000000000000000000000000000000815260040161230990614c98565b60405180910390fd5b60005b600b600085815260200190815260200160002080549050811015612503576000600b6000868152602001908152602001600020828154811061235a57612359614c1d565b5b9060005260206000200160009054906101000a900473ffffffffffffffffffffffffffffffffffffffff1690506005600086815260200190815260200160002060008273ffffffffffffffffffffffffffffffffffffffff1673ffffffffffffffffffffffffffffffffffffffff16815260200190815260200160002060009054906101000a900460ff16156124f55760008173ffffffffffffffffffffffffffffffffffffffff166370a08231866040518263ffffffff1660e01b81526004016124259190613e18565b602060405180830381865afa158015612442573d6000803e3d6000fd5b505050506040513d601f19601f820116820180604052508101906124669190614333565b905060008111156124f3578173ffffffffffffffffffffffffffffffffffffffff166323b872dd8633846040518463ffffffff1660e01b81526004016124ae93929190614cb8565b6020604051808303816000875af11580156124cd573d6000803e3d6000fd5b505050506040513d601f19601f820116820180604052508101906124f19190614d04565b505b505b508080600101915050612315565b5061250f823385610819565b82600660003373ffffffffffffffffffffffffffffffffffffffff1673ffffffffffffffffffffffffffffffffffffffff16815260200190815260200160002081905550600660008373ffffffffffffffffffffffffffffffffffffffff1673ffffffffffffffffffffffffffffffffffffffff168152602001908152602001600020600090556000600a600085815260200190815260200160002060006101000a81548160ff021916908315150217905550600c600084815260200190815260200160002060006101000a81549073ffffffffffffffffffffffffffffffffffffffff02191690558173ffffffffffffffffffffffffffffffffffffffff166108fc349081150290604051600060405180830381858888f1935050505015801561263e573d6000803e3d6000fd5b50505050565b61264f8585856115a6565b60008473ffffffffffffffffffffffffffffffffffffffff163b148061273c575063150b7a0260e01b7bffffffffffffffffffffffffffffffffffffffffffffffffffffffff19168473ffffffffffffffffffffffffffffffffffffffff1663150b7a0233888787876040518663ffffffff1660e01b81526004016126d8959493929190614d7e565b6020604051808303816000875af11580156126f7573d6000803e3d6000fd5b505050506040513d601f19601f8201168201806040525081019061271b91906147b6565b7bffffffffffffffffffffffffffffffffffffffffffffffffffffffff1916145b61277b576040517f08c379a00000000000000000000000000000000000000000000000000000000081526004016127729061482f565b60405180910390fd5b5050505050565b60008273ffffffffffffffffffffffffffffffffffffffff166318160ddd6040518163ffffffff1660e01b8152600401602060405180830381865afa1580156127cf573d6000803e3d6000fd5b505050506040513d601f19601f820116820180604052508101906127f39190614333565b11612833576040517f08c379a000000000000000000000000000000000000000000000000000000000815260040161282a906143ac565b60405180910390fd5b80600860008473ffffffffffffffffffffffffffffffffffffffff1673ffffffffffffffffffffffffffffffffffffffff1681526020019081526020016000205410156128b5576040517f08c379a00000000000000000000000000000000000000000000000000000000081526004016128ac90614e3e565b60405180910390fd5b6000600660003373ffffffffffffffffffffffffffffffffffffffff1673ffffffffffffffffffffffffffffffffffffffff1681526020019081526020016000205490503373ffffffffffffffffffffffffffffffffffffffff1660008083815260200190815260200160002060009054906101000a900473ffffffffffffffffffffffffffffffffffffffff1673ffffffffffffffffffffffffffffffffffffffff1614612999576040517f08c379a000000000000000000000000000000000000000000000000000000000815260040161299090614ed0565b60405180910390fd5b60006129a584846119c8565b9050803410156129ea576040517f08c379a00000000000000000000000000000000000000000000000000000000081526004016129e190614c98565b60405180910390fd5b600083905060005b600760008773ffffffffffffffffffffffffffffffffffffffff1673ffffffffffffffffffffffffffffffffffffffff1681526020019081526020016000208054905081108015612a435750600082115b15612e7b576000600760008873ffffffffffffffffffffffffffffffffffffffff1673ffffffffffffffffffffffffffffffffffffffff1681526020019081526020016000208281548110612a9b57612a9a614c1d565b5b9060005260206000209060020201905080600101548310612c95578673ffffffffffffffffffffffffffffffffffffffff166323b872dd8260000160009054906101000a900473ffffffffffffffffffffffffffffffffffffffff163384600101546040518463ffffffff1660e01b8152600401612b1b93929190614cb8565b6020604051808303816000875af1158015612b3a573d6000803e3d6000fd5b505050506040513d601f19601f82011682018060405250810190612b5e9190614d04565b50806001015483612b6f9190614ef0565b92508060010154600860008973ffffffffffffffffffffffffffffffffffffffff1673ffffffffffffffffffffffffffffffffffffffff1681526020019081526020016000206000828254612bc49190614ef0565b925050819055508060010154600960008360000160009054906101000a900473ffffffffffffffffffffffffffffffffffffffff1673ffffffffffffffffffffffffffffffffffffffff1673ffffffffffffffffffffffffffffffffffffffff16815260200190815260200160002060008973ffffffffffffffffffffffffffffffffffffffff1673ffffffffffffffffffffffffffffffffffffffff1681526020019081526020016000206000828254612c7f9190614ef0565b92505081905550612c90878361375c565b612e75565b8673ffffffffffffffffffffffffffffffffffffffff166323b872dd8260000160009054906101000a900473ffffffffffffffffffffffffffffffffffffffff1633866040518463ffffffff1660e01b8152600401612cf693929190614cb8565b6020604051808303816000875af1158015612d15573d6000803e3d6000fd5b505050506040513d601f19601f82011682018060405250810190612d399190614d04565b5082816001016000828254612d4e9190614ef0565b9250508190555082600860008973ffffffffffffffffffffffffffffffffffffffff1673ffffffffffffffffffffffffffffffffffffffff1681526020019081526020016000206000828254612da49190614ef0565b9250508190555082600960008360000160009054906101000a900473ffffffffffffffffffffffffffffffffffffffff1673ffffffffffffffffffffffffffffffffffffffff1673ffffffffffffffffffffffffffffffffffffffff16815260200190815260200160002060008973ffffffffffffffffffffffffffffffffffffffff1673ffffffffffffffffffffffffffffffffffffffff1681526020019081526020016000206000828254612e5b9190614ef0565b92505081905550600092508180612e71906142d6565b9250505b506129f2565b612e8486610b55565b5060008584612e939190614f53565b90508281612ea191906148e1565b341115612f06573373ffffffffffffffffffffffffffffffffffffffff166108fc8483612ece91906148e1565b34612ed99190614ef0565b9081150290604051600060405180830381858888f19350505050158015612f04573d6000803e3d6000fd5b505b50505050505050565b6000600660003373ffffffffffffffffffffffffffffffffffffffff1673ffffffffffffffffffffffffffffffffffffffff168152602001908152602001600020549050612f5c83610b55565b5060008373ffffffffffffffffffffffffffffffffffffffff166318160ddd6040518163ffffffff1660e01b8152600401602060405180830381865afa158015612faa573d6000803e3d6000fd5b505050506040513d601f19601f82011682018060405250810190612fce9190614333565b1161300e576040517f08c379a0000000000000000000000000000000000000000000000000000000008152600401613005906143ac565b60405180910390fd5b3373ffffffffffffffffffffffffffffffffffffffff1660008083815260200190815260200160002060009054906101000a900473ffffffffffffffffffffffffffffffffffffffff1673ffffffffffffffffffffffffffffffffffffffff16146130ae576040517f08c379a00000000000000000000000000000000000000000000000000000000081526004016130a59061443e565b60405180910390fd5b600115156005600083815260200190815260200160002060008573ffffffffffffffffffffffffffffffffffffffff1673ffffffffffffffffffffffffffffffffffffffff16815260200190815260200160002060009054906101000a900460ff16151514613152576040517f08c379a000000000000000000000000000000000000000000000000000000000815260040161314990614ff6565b60405180910390fd5b60008373ffffffffffffffffffffffffffffffffffffffff166370a08231336040518263ffffffff1660e01b815260040161318d9190613e18565b602060405180830381865afa1580156131aa573d6000803e3d6000fd5b505050506040513d601f19601f820116820180604052508101906131ce9190614333565b905080831115613213576040517f08c379a000000000000000000000000000000000000000000000000000000000815260040161320a90615088565b60405180910390fd5b6000600960003373ffffffffffffffffffffffffffffffffffffffff1673ffffffffffffffffffffffffffffffffffffffff16815260200190815260200160002060008673ffffffffffffffffffffffffffffffffffffffff1673ffffffffffffffffffffffffffffffffffffffff1681526020019081526020016000205490508184826132a1919061465a565b11156132e2576040517f08c379a00000000000000000000000000000000000000000000000000000000081526004016132d99061511a565b60405180910390fd5b60008573ffffffffffffffffffffffffffffffffffffffff1663dd62ed3e33306040518363ffffffff1660e01b815260040161331f92919061513a565b602060405180830381865afa15801561333c573d6000803e3d6000fd5b505050506040513d601f19601f820116820180604052508101906133609190614333565b9050848110156133a5576040517f08c379a000000000000000000000000000000000000000000000000000000000815260040161339c906151d5565b60405180910390fd5b600760008773ffffffffffffffffffffffffffffffffffffffff1673ffffffffffffffffffffffffffffffffffffffff16815260200190815260200160002060405180604001604052803373ffffffffffffffffffffffffffffffffffffffff16815260200187815250908060018154018082558091505060019003906000526020600020906002020160009091909190915060008201518160000160006101000a81548173ffffffffffffffffffffffffffffffffffffffff021916908373ffffffffffffffffffffffffffffffffffffffff16021790555060208201518160010155505084600860008873ffffffffffffffffffffffffffffffffffffffff1673ffffffffffffffffffffffffffffffffffffffff16815260200190815260200160002060008282546134da919061465a565b9250508190555084600960003373ffffffffffffffffffffffffffffffffffffffff1673ffffffffffffffffffffffffffffffffffffffff16815260200190815260200160002060008873ffffffffffffffffffffffffffffffffffffffff1673ffffffffffffffffffffffffffffffffffffffff168152602001908152602001600020600082825461356d919061465a565b92505081905550505050505050565b60056020528160005260406000206020528060005260406000206000915091509054906101000a900460ff1681565b600b60205281600052604060002081815481106135c757600080fd5b906000526020600020016000915091509054906101000a900473ffffffffffffffffffffffffffffffffffffffff1681565b60036020528160005260406000206020528060005260406000206000915091509054906101000a900460ff1681565b60008373ffffffffffffffffffffffffffffffffffffffff168373ffffffffffffffffffffffffffffffffffffffff1614806136ea5750600360008573ffffffffffffffffffffffffffffffffffffffff1673ffffffffffffffffffffffffffffffffffffffff16815260200190815260200160002060008473ffffffffffffffffffffffffffffffffffffffff1673ffffffffffffffffffffffffffffffffffffffff16815260200190815260200160002060009054906101000a900460ff165b8061375357506002600083815260200190815260200160002060009054906101000a900473ffffffffffffffffffffffffffffffffffffffff1673ffffffffffffffffffffffffffffffffffffffff168373ffffffffffffffffffffffffffffffffffffffff16145b90509392505050565b600760008373ffffffffffffffffffffffffffffffffffffffff1673ffffffffffffffffffffffffffffffffffffffff1681526020019081526020016000208054905081106137e0576040517f08c379a00000000000000000000000000000000000000000000000000000000081526004016137d790615241565b60405180910390fd5b6000600760008473ffffffffffffffffffffffffffffffffffffffff1673ffffffffffffffffffffffffffffffffffffffff168152602001908152602001600020828154811061383357613832614c1d565b5b906000526020600020906002020160000160009054906101000a900473ffffffffffffffffffffffffffffffffffffffff1690506000600960008373ffffffffffffffffffffffffffffffffffffffff1673ffffffffffffffffffffffffffffffffffffffff16815260200190815260200160002060008573ffffffffffffffffffffffffffffffffffffffff1673ffffffffffffffffffffffffffffffffffffffff168152602001908152602001600020540361396c57600960008273ffffffffffffffffffffffffffffffffffffffff1673ffffffffffffffffffffffffffffffffffffffff16815260200190815260200160002060008473ffffffffffffffffffffffffffffffffffffffff1673ffffffffffffffffffffffffffffffffffffffff168152602001908152602001600020600090555b6000600760008573ffffffffffffffffffffffffffffffffffffffff1673ffffffffffffffffffffffffffffffffffffffff1681526020019081526020016000206001600760008773ffffffffffffffffffffffffffffffffffffffff1673ffffffffffffffffffffffffffffffffffffffff168152602001908152602001600020805490506139fc9190614ef0565b81548110613a0d57613a0c614c1d565b5b90600052602060002090600202016040518060400160405290816000820160009054906101000a900473ffffffffffffffffffffffffffffffffffffffff1673ffffffffffffffffffffffffffffffffffffffff1673ffffffffffffffffffffffffffffffffffffffff168152602001600182015481525050905080600760008673ffffffffffffffffffffffffffffffffffffffff1673ffffffffffffffffffffffffffffffffffffffff1681526020019081526020016000208481548110613ada57613ad9614c1d565b5b906000526020600020906002020160008201518160000160006101000a81548173ffffffffffffffffffffffffffffffffffffffff021916908373ffffffffffffffffffffffffffffffffffffffff16021790555060208201518160010155905050600760008573ffffffffffffffffffffffffffffffffffffffff1673ffffffffffffffffffffffffffffffffffffffff168152602001908152602001600020805480613b8b57613b8a615261565b5b6001900381819060005260206000209060020201600080820160006101000a81549073ffffffffffffffffffffffffffffffffffffffff021916905560018201600090555050905550505050565b600080fd5b600080fd5b600073ffffffffffffffffffffffffffffffffffffffff82169050919050565b6000613c0e82613be3565b9050919050565b613c1e81613c03565b8114613c2957600080fd5b50565b600081359050613c3b81613c15565b92915050565b600060208284031215613c5757613c56613bd9565b5b6000613c6584828501613c2c565b91505092915050565b6000819050919050565b613c8181613c6e565b82525050565b6000602082019050613c9c6000830184613c78565b92915050565b613cab81613c6e565b8114613cb657600080fd5b50565b600081359050613cc881613ca2565b92915050565b600080600060608486031215613ce757613ce6613bd9565b5b6000613cf586828701613c2c565b9350506020613d0686828701613c2c565b9250506040613d1786828701613cb9565b9150509250925092565b60007fffffffff0000000000000000000000000000000000000000000000000000000082169050919050565b613d5681613d21565b8114613d6157600080fd5b50565b600081359050613d7381613d4d565b92915050565b600060208284031215613d8f57613d8e613bd9565b5b6000613d9d84828501613d64565b91505092915050565b60008115159050919050565b613dbb81613da6565b82525050565b6000602082019050613dd66000830184613db2565b92915050565b600060208284031215613df257613df1613bd9565b5b6000613e0084828501613cb9565b91505092915050565b613e1281613c03565b82525050565b6000602082019050613e2d6000830184613e09565b92915050565b60008060408385031215613e4a57613e49613bd9565b5b6000613e5885828601613c2c565b9250506020613e6985828601613cb9565b9150509250929050565b600081519050919050565b600082825260208201905092915050565b6000819050602082019050919050565b613ea881613c03565b82525050565b6000613eba8383613e9f565b60208301905092915050565b6000602082019050919050565b6000613ede82613e73565b613ee88185613e7e565b9350613ef383613e8f565b8060005b83811015613f24578151613f0b8882613eae565b9750613f1683613ec6565b925050600181019050613ef7565b5085935050505092915050565b60006020820190508181036000830152613f4b8184613ed3565b905092915050565b60008060408385031215613f6a57613f69613bd9565b5b6000613f7885828601613c2c565b9250506020613f8985828601613c2c565b9150509250929050565b6000604082019050613fa86000830185613e09565b613fb56020830184613c78565b9392505050565b613fc581613da6565b8114613fd057600080fd5b50565b600081359050613fe281613fbc565b92915050565b60008060408385031215613fff57613ffe613bd9565b5b600061400d85828601613c2c565b925050602061401e85828601613fd3565b9150509250929050565b600080fd5b600080fd5b600080fd5b60008083601f84011261404d5761404c614028565b5b8235905067ffffffffffffffff81111561406a5761406961402d565b5b60208301915083600182028301111561408657614085614032565b5b9250929050565b6000806000806000608086880312156140a9576140a8613bd9565b5b60006140b788828901613c2c565b95505060206140c888828901613c2c565b94505060406140d988828901613cb9565b935050606086013567ffffffffffffffff8111156140fa576140f9613bde565b5b61410688828901614037565b92509250509295509295909350565b6000806040838503121561412c5761412b613bd9565b5b600061413a85828601613cb9565b925050602061414b85828601613c2c565b9150509250929050565b6000806040838503121561416c5761416b613bd9565b5b600061417a85828601613cb9565b925050602061418b85828601613cb9565b9150509250929050565b600082825260208201905092915050565b7f66726f6d20213d206f776e657200000000000000000000000000000000000000600082015250565b60006141dc600d83614195565b91506141e7826141a6565b602082019050919050565b6000602082019050818103600083015261420b816141cf565b9050919050565b7f7472616e7366657220746f207a65726f20616464726573730000000000000000600082015250565b6000614248601883614195565b915061425382614212565b602082019050919050565b600060208201905081810360008301526142778161423b565b9050919050565b7f4e487b7100000000000000000000000000000000000000000000000000000000600052601160045260246000fd5b60006142b882613c6e565b9150600082036142cb576142ca61427e565b5b600182039050919050565b60006142e182613c6e565b91507fffffffffffffffffffffffffffffffffffffffffffffffffffffffffffffffff82036143135761431261427e565b5b600182019050919050565b60008151905061432d81613ca2565b92915050565b60006020828403121561434957614348613bd9565b5b60006143578482850161431e565b91505092915050565b7f496e76616c6964204552432d323020636f6e7472616374000000000000000000600082015250565b6000614396601783614195565b91506143a182614360565b602082019050919050565b600060208201905081810360008301526143c581614389565b9050919050565b7f796f7520617265206e6f7420746865206f776e6572206f66207468697320706f60008201527f7274666f6c696f21000000000000000000000000000000000000000000000000602082015250565b6000614428602883614195565b9150614433826143cc565b604082019050919050565b600060208201905081810360008301526144578161441b565b9050919050565b7f796f7520646f6e74206f776e20616e792073746f636b20696e2074686973206360008201527f6f6d70616e792021210000000000000000000000000000000000000000000000602082015250565b60006144ba602983614195565b91506144c58261445e565b604082019050919050565b600060208201905081810360008301526144e9816144ad565b9050919050565b7f746f6b656e20646f65736e277420657869737400000000000000000000000000600082015250565b6000614526601383614195565b9150614531826144f0565b602082019050919050565b6000602082019050818103600083015261455581614519565b9050919050565b7f6e6f7420617574686f72697a6564000000000000000000000000000000000000600082015250565b6000614592600e83614195565b915061459d8261455c565b602082019050919050565b600060208201905081810360008301526145c181614585565b9050919050565b7f796f75206861766520616c726561647920616c7265616479206d696e7465642060008201527f796f757220706f7274666f6c696f202100000000000000000000000000000000602082015250565b6000614624603083614195565b915061462f826145c8565b604082019050919050565b6000602082019050818103600083015261465381614617565b9050919050565b600061466582613c6e565b915061467083613c6e565b92508282019050808211156146885761468761427e565b5b92915050565b7f796f757220706f7274666f6c696f2068617320616c7265616479206265656e2060008201527f6c697374656420666f722073616c650000000000000000000000000000000000602082015250565b60006146ea602f83614195565b91506146f58261468e565b604082019050919050565b60006020820190508181036000830152614719816146dd565b9050919050565b600082825260208201905092915050565b50565b6000614741600083614720565b915061474c82614731565b600082019050919050565b600060808201905061476c6000830186613e09565b6147796020830185613e09565b6147866040830184613c78565b818103606083015261479781614734565b9050949350505050565b6000815190506147b081613d4d565b92915050565b6000602082840312156147cc576147cb613bd9565b5b60006147da848285016147a1565b91505092915050565b7f756e7361666520726563697069656e7400000000000000000000000000000000600082015250565b6000614819601083614195565b9150614824826147e3565b602082019050919050565b600060208201905081810360008301526148488161480c565b9050919050565b7f736f727279202c206e6f7420656e6f7567682073746f636b206861732062656560008201527f6e206c697374656420757020666f722073616c65000000000000000000000000602082015250565b60006148ab603483614195565b91506148b68261484f565b604082019050919050565b600060208201905081810360008301526148da8161489e565b9050919050565b60006148ec82613c6e565b91506148f783613c6e565b925082820261490581613c6e565b9150828204841483151761491c5761491b61427e565b5b5092915050565b7f4e6f2073746f636b7320666f756e6420666f72207468697320746f6b656e204960008201527f4400000000000000000000000000000000000000000000000000000000000000602082015250565b600061497f602183614195565b915061498a82614923565b604082019050919050565b600060208201905081810360008301526149ae81614972565b9050919050565b7f6f776e6572203d207a65726f2061646472657373000000000000000000000000600082015250565b60006149eb601483614195565b91506149f6826149b5565b602082019050919050565b60006020820190508181036000830152614a1a816149de565b9050919050565b7f796f752073656e74207a65726f20616464726573732100000000000000000000600082015250565b6000614a57601683614195565b9150614a6282614a21565b602082019050919050565b60006020820190508181036000830152614a8681614a4a565b9050919050565b7f74686520706f7274666f6c696f206861736e2774206265656e206c697374656460008201527f20666f722073616c652079657400000000000000000000000000000000000000602082015250565b6000614ae9602d83614195565b9150614af482614a8d565b604082019050919050565b60006020820190508181036000830152614b1881614adc565b9050919050565b7f496e76616c696420706f7274666f6c696f206f776e6572000000000000000000600082015250565b6000614b55601783614195565b9150614b6082614b1f565b602082019050919050565b60006020820190508181036000830152614b8481614b48565b9050919050565b7f596f752063616e6e6f742062757920796f7572206f776e20706f7274666f6c6960008201527f6f00000000000000000000000000000000000000000000000000000000000000602082015250565b6000614be7602183614195565b9150614bf282614b8b565b604082019050919050565b60006020820190508181036000830152614c1681614bda565b9050919050565b7f4e487b7100000000000000000000000000000000000000000000000000000000600052603260045260246000fd5b7f496e73756666696369656e74207061796d656e74000000000000000000000000600082015250565b6000614c82601483614195565b9150614c8d82614c4c565b602082019050919050565b60006020820190508181036000830152614cb181614c75565b9050919050565b6000606082019050614ccd6000830186613e09565b614cda6020830185613e09565b614ce76040830184613c78565b949350505050565b600081519050614cfe81613fbc565b92915050565b600060208284031215614d1a57614d19613bd9565b5b6000614d2884828501614cef565b91505092915050565b82818337600083830152505050565b6000601f19601f8301169050919050565b6000614d5d8385614720565b9350614d6a838584614d31565b614d7383614d40565b840190509392505050565b6000608082019050614d936000830188613e09565b614da06020830187613e09565b614dad6040830186613c78565b8181036060830152614dc0818486614d51565b90509695505050505050565b7f4e6f7420656e6f7567682073746f636b20617661696c61626c6520666f72207360008201527f616c650000000000000000000000000000000000000000000000000000000000602082015250565b6000614e28602383614195565b9150614e3382614dcc565b604082019050919050565b60006020820190508181036000830152614e5781614e1b565b9050919050565b7f596f7520617265206e6f7420746865206f776e6572206f66207468697320706f60008201527f7274666f6c696f21000000000000000000000000000000000000000000000000602082015250565b6000614eba602883614195565b9150614ec582614e5e565b604082019050919050565b60006020820190508181036000830152614ee981614ead565b9050919050565b6000614efb82613c6e565b9150614f0683613c6e565b9250828203905081811115614f1e57614f1d61427e565b5b92915050565b7f4e487b7100000000000000000000000000000000000000000000000000000000600052601260045260246000fd5b6000614f5e82613c6e565b9150614f6983613c6e565b925082614f7957614f78614f24565b5b828204905092915050565b7f796f757220706f7274666f6c696f28746f6b656e6e49442920686173206e6f2060008201527f73746f636b207468697320636f6d70616e790000000000000000000000000000602082015250565b6000614fe0603283614195565b9150614feb82614f84565b604082019050919050565b6000602082019050818103600083015261500f81614fd3565b9050919050565b7f796f752063616e74206c697374206d6f72652073746f636b207468616e20796f60008201527f75206f776e20696e2074686520636f6d70616e79212100000000000000000000602082015250565b6000615072603683614195565b915061507d82615016565b604082019050919050565b600060208201905081810360008301526150a181615065565b9050919050565b7f546f74616c206c697374656420616d6f756e7420776f756c642065786365656460008201527f206f776e65642062616c616e6365000000000000000000000000000000000000602082015250565b6000615104602e83614195565b915061510f826150a8565b604082019050919050565b60006020820190508181036000830152615133816150f7565b9050919050565b600060408201905061514f6000830185613e09565b61515c6020830184613e09565b9392505050565b7f6e6f7420656e6f7567682073746f636b20697320617574686f72697a6564207460008201527f6f20626520736f6c640000000000000000000000000000000000000000000000602082015250565b60006151bf602983614195565b91506151ca82615163565b604082019050919050565b600060208201905081810360008301526151ee816151b2565b9050919050565b7f496e76616c6964206c697374696e6720696e6465780000000000000000000000600082015250565b600061522b601583614195565b9150615236826151f5565b602082019050919050565b6000602082019050818103600083015261525a8161521e565b9050919050565b7f4e487b7100000000000000000000000000000000000000000000000000000000600052603160045260246000fdfea2646970667358221220318752079f0863ab752b476d4444e6600bb264db11ee0de32b0f9b3df54510fb64736f6c634300081c0033",
  "linkReferences": {},
  "deployedLinkReferences": {}
}