{
  "_format": "hh-sol-artifact-1",
  "contractName": "portfolio",
  "sourceName": "contracts/portfolio.sol",
  "abi": [
    {
      "inputs": [],
      "stateMutability": "nonpayable",
      "type": "constructor"
    },
    {
      "anonymous": false,
      "inputs": [
        {
          "indexed": true,
          "internalType": "address",
          "name": "owner",
          "type": "address"
        },
        {
          "indexed": true,
          "internalType": "address",
          "name": "spender",
          "type": "address"
        },
        {
          "indexed": true,
          "internalType": "uint256",
          "name": "id",
          "type": "uint256"
        }
      ],
      "name": "Approval",
      "type": "event"
    },
    {
      "anonymous": false,
      "inputs": [
        {
          "indexed": true,
          "internalType": "address",
          "name": "owner",
          "type": "address"
        },
        {
          "indexed": true,
          "internalType": "address",
          "name": "operator",
          "type": "address"
        },
        {
          "indexed": false,
          "internalType": "bool",
          "name": "approved",
          "type": "bool"
        }
      ],
      "name": "ApprovalForAll",
      "type": "event"
    },
    {
      "anonymous": false,
      "inputs": [
        {
          "indexed": true,
          "internalType": "address",
          "name": "from",
          "type": "address"
        },
        {
          "indexed": true,
          "internalType": "address",
          "name": "to",
          "type": "address"
        },
        {
          "indexed": true,
          "internalType": "uint256",
          "name": "id",
          "type": "uint256"
        }
      ],
      "name": "Transfer",
      "type": "event"
    },
    {
      "inputs": [
        {
          "internalType": "address",
          "name": "",
          "type": "address"
        }
      ],
      "name": "_ownedToken",
      "outputs": [
        {
          "internalType": "uint256",
          "name": "",
          "type": "uint256"
        }
      ],
      "stateMutability": "view",
      "type": "function"
    },
    {
      "inputs": [
        {
          "internalType": "address",
          "name": "",
          "type": "address"
        },
        {
          "internalType": "uint256",
          "name": "",
          "type": "uint256"
        }
      ],
      "name": "_stocksForSale",
      "outputs": [
        {
          "internalType": "address",
          "name": "seller",
          "type": "address"
        },
        {
          "internalType": "uint256",
          "name": "count",
          "type": "uint256"
        }
      ],
      "stateMutability": "view",
      "type": "function"
    },
    {
      "inputs": [
        {
          "internalType": "uint256",
          "name": "",
          "type": "uint256"
        },
        {
          "internalType": "address",
          "name": "",
          "type": "address"
        }
      ],
      "name": "_tokenHasStock",
      "outputs": [
        {
          "internalType": "bool",
          "name": "",
          "type": "bool"
        }
      ],
      "stateMutability": "view",
      "type": "function"
    },
    {
      "inputs": [
        {
          "internalType": "address",
          "name": "",
          "type": "address"
        }
      ],
      "name": "_totalSellCount",
      "outputs": [
        {
          "internalType": "uint256",
          "name": "",
          "type": "uint256"
        }
      ],
      "stateMutability": "view",
      "type": "function"
    },
    {
      "inputs": [
        {
          "internalType": "address",
          "name": "",
          "type": "address"
        },
        {
          "internalType": "address",
          "name": "",
          "type": "address"
        }
      ],
      "name": "_userListedStocks",
      "outputs": [
        {
          "internalType": "uint256",
          "name": "",
          "type": "uint256"
        }
      ],
      "stateMutability": "view",
      "type": "function"
    },
    {
      "inputs": [
        {
          "internalType": "address",
          "name": "spender",
          "type": "address"
        },
        {
          "internalType": "uint256",
          "name": "id",
          "type": "uint256"
        }
      ],
      "name": "approve",
      "outputs": [],
      "stateMutability": "nonpayable",
      "type": "function"
    },
    {
      "inputs": [
        {
          "internalType": "address",
          "name": "owner",
          "type": "address"
        }
      ],
      "name": "balanceOf",
      "outputs": [
        {
          "internalType": "uint256",
          "name": "",
          "type": "uint256"
        }
      ],
      "stateMutability": "view",
      "type": "function"
    },
    {
      "inputs": [
        {
          "internalType": "address",
          "name": "stockFtAddress",
          "type": "address"
        },
        {
          "internalType": "uint256",
          "name": "count",
          "type": "uint256"
        }
      ],
      "name": "buy",
      "outputs": [],
      "stateMutability": "payable",
      "type": "function"
    },
    {
      "inputs": [
        {
          "internalType": "uint256",
          "name": "id",
          "type": "uint256"
        }
      ],
      "name": "getApproved",
      "outputs": [
        {
          "internalType": "address",
          "name": "",
          "type": "address"
        }
      ],
      "stateMutability": "view",
      "type": "function"
    },
    {
      "inputs": [
        {
          "internalType": "address",
          "name": "stockFtAddress",
          "type": "address"
        },
        {
          "internalType": "uint256",
          "name": "count",
          "type": "uint256"
        }
      ],
      "name": "getPrice",
      "outputs": [
        {
          "internalType": "uint256",
          "name": "",
          "type": "uint256"
        }
      ],
      "stateMutability": "view",
      "type": "function"
    },
    {
      "inputs": [
        {
          "internalType": "address",
          "name": "stockAddress",
          "type": "address"
        }
      ],
      "name": "getStockListingsLength",
      "outputs": [
        {
          "internalType": "uint256",
          "name": "",
          "type": "uint256"
        }
      ],
      "stateMutability": "view",
      "type": "function"
    },
    {
      "inputs": [
        {
          "internalType": "address",
          "name": "",
          "type": "address"
        },
        {
          "internalType": "address",
          "name": "",
          "type": "address"
        }
      ],
      "name": "isApprovedForAll",
      "outputs": [
        {
          "internalType": "bool",
          "name": "",
          "type": "bool"
        }
      ],
      "stateMutability": "view",
      "type": "function"
    },
    {
      "inputs": [
        {
          "internalType": "address",
          "name": "stockFtAddress",
          "type": "address"
        },
        {
          "internalType": "uint256",
          "name": "count",
          "type": "uint256"
        }
      ],
      "name": "list_stock_to_sell",
      "outputs": [],
      "stateMutability": "nonpayable",
      "type": "function"
    },
    {
      "inputs": [],
      "name": "mint",
      "outputs": [],
      "stateMutability": "nonpayable",
      "type": "function"
    },
    {
      "inputs": [
        {
          "internalType": "uint256",
          "name": "id",
          "type": "uint256"
        }
      ],
      "name": "ownerOf",
      "outputs": [
        {
          "internalType": "address",
          "name": "owner",
          "type": "address"
        }
      ],
      "stateMutability": "view",
      "type": "function"
    },
    {
      "inputs": [
        {
          "internalType": "address",
          "name": "from",
          "type": "address"
        },
        {
          "internalType": "address",
          "name": "to",
          "type": "address"
        },
        {
          "internalType": "uint256",
          "name": "id",
          "type": "uint256"
        }
      ],
      "name": "safeTransferFrom",
      "outputs": [],
      "stateMutability": "nonpayable",
      "type": "function"
    },
    {
      "inputs": [
        {
          "internalType": "address",
          "name": "from",
          "type": "address"
        },
        {
          "internalType": "address",
          "name": "to",
          "type": "address"
        },
        {
          "internalType": "uint256",
          "name": "id",
          "type": "uint256"
        },
        {
          "internalType": "bytes",
          "name": "data",
          "type": "bytes"
        }
      ],
      "name": "safeTransferFrom",
      "outputs": [],
      "stateMutability": "nonpayable",
      "type": "function"
    },
    {
      "inputs": [
        {
          "internalType": "address",
          "name": "operator",
          "type": "address"
        },
        {
          "internalType": "bool",
          "name": "approved",
          "type": "bool"
        }
      ],
      "name": "setApprovalForAll",
      "outputs": [],
      "stateMutability": "nonpayable",
      "type": "function"
    },
    {
      "inputs": [
        {
          "internalType": "bytes4",
          "name": "interfaceId",
          "type": "bytes4"
        }
      ],
      "name": "supportsInterface",
      "outputs": [
        {
          "internalType": "bool",
          "name": "",
          "type": "bool"
        }
      ],
      "stateMutability": "pure",
      "type": "function"
    },
    {
      "inputs": [],
      "name": "tokenCount",
      "outputs": [
        {
          "internalType": "uint256",
          "name": "",
          "type": "uint256"
        }
      ],
      "stateMutability": "view",
      "type": "function"
    },
    {
      "inputs": [
        {
          "internalType": "address",
          "name": "from",
          "type": "address"
        },
        {
          "internalType": "address",
          "name": "to",
          "type": "address"
        },
        {
          "internalType": "uint256",
          "name": "id",
          "type": "uint256"
        }
      ],
      "name": "transferFrom",
      "outputs": [],
      "stateMutability": "nonpayable",
      "type": "function"
    },
    {
      "inputs": [
        {
          "internalType": "address",
          "name": "stockFtAddress",
          "type": "address"
        }
      ],
      "name": "updatePortfolio",
      "outputs": [
        {
          "internalType": "uint256",
          "name": "",
          "type": "uint256"
        }
      ],
      "stateMutability": "nonpayable",
      "type": "function"
    }
  ],
  "bytecode": "0x6080604052348015600f57600080fd5b506000600481905550613eba806100276000396000f3fe6080604052600436106101355760003560e01c80636c13e651116100ab578063a22cb4651161006f578063a22cb46514610497578063b88d4fde146104c0578063cce7ec13146104e9578063d24b20f514610505578063d2863e751461052e578063e985e9c51461056b57610135565b80636c13e6511461037757806370a08231146103b457806385ad5085146103f15780639b232ab01461042e5780639f181b5e1461046c57610135565b80631249c58b116100fd5780631249c58b1461025757806323b872dd1461026e57806342842e0e14610297578063449e815d146102c05780635ba5f510146102fd5780636352211e1461033a57610135565b8063016e44e71461013a57806301ffc9a714610177578063078a235e146101b4578063081812fc146101f1578063095ea7b31461022e575b600080fd5b34801561014657600080fd5b50610161600480360381019061015c9190612c75565b6105a8565b60405161016e9190612cbb565b60405180910390f35b34801561018357600080fd5b5061019e60048036038101906101999190612d2e565b6105f4565b6040516101ab9190612d76565b60405180910390f35b3480156101c057600080fd5b506101db60048036038101906101d69190612c75565b6106c6565b6040516101e89190612cbb565b60405180910390f35b3480156101fd57600080fd5b5061021860048036038101906102139190612dbd565b610990565b6040516102259190612df9565b60405180910390f35b34801561023a57600080fd5b5061025560048036038101906102509190612e14565b610a6d565b005b34801561026357600080fd5b5061026c610c55565b005b34801561027a57600080fd5b5061029560048036038101906102909190612e54565b610e3a565b005b3480156102a357600080fd5b506102be60048036038101906102b99190612e54565b611124565b005b3480156102cc57600080fd5b506102e760048036038101906102e29190612e14565b61125c565b6040516102f49190612cbb565b60405180910390f35b34801561030957600080fd5b50610324600480360381019061031f9190612ea7565b6113ab565b6040516103319190612cbb565b60405180910390f35b34801561034657600080fd5b50610361600480360381019061035c9190612dbd565b6113d0565b60405161036e9190612df9565b60405180910390f35b34801561038357600080fd5b5061039e60048036038101906103999190612c75565b61147b565b6040516103ab9190612cbb565b60405180910390f35b3480156103c057600080fd5b506103db60048036038101906103d69190612c75565b611493565b6040516103e89190612cbb565b60405180910390f35b3480156103fd57600080fd5b5061041860048036038101906104139190612c75565b61154a565b6040516104259190612cbb565b60405180910390f35b34801561043a57600080fd5b5061045560048036038101906104509190612e14565b611562565b604051610463929190612ee7565b60405180910390f35b34801561047857600080fd5b506104816115c3565b60405161048e9190612cbb565b60405180910390f35b3480156104a357600080fd5b506104be60048036038101906104b99190612f3c565b6115c9565b005b3480156104cc57600080fd5b506104e760048036038101906104e29190612fe1565b6116c6565b005b61050360048036038101906104fe9190612e14565b611804565b005b34801561051157600080fd5b5061052c60048036038101906105279190612e14565b611f91565b005b34801561053a57600080fd5b5061055560048036038101906105509190613069565b6125fe565b6040516105629190612d76565b60405180910390f35b34801561057757600080fd5b50610592600480360381019061058d9190612ea7565b61262d565b60405161059f9190612d76565b60405180910390f35b6000600760008373ffffffffffffffffffffffffffffffffffffffff1673ffffffffffffffffffffffffffffffffffffffff168152602001908152602001600020805490509050919050565b60007f80ac58cd000000000000000000000000000000000000000000000000000000007bffffffffffffffffffffffffffffffffffffffffffffffffffffffff1916827bffffffffffffffffffffffffffffffffffffffffffffffffffffffff191614806106bf57507f01ffc9a7000000000000000000000000000000000000000000000000000000007bffffffffffffffffffffffffffffffffffffffffffffffffffffffff1916827bffffffffffffffffffffffffffffffffffffffffffffffffffffffff1916145b9050919050565b6000808273ffffffffffffffffffffffffffffffffffffffff166318160ddd6040518163ffffffff1660e01b8152600401602060405180830381865afa158015610714573d6000803e3d6000fd5b505050506040513d601f19601f8201168201806040525081019061073891906130be565b11610778576040517f08c379a000000000000000000000000000000000000000000000000000000000815260040161076f90613148565b60405180910390fd5b6000600660003373ffffffffffffffffffffffffffffffffffffffff1673ffffffffffffffffffffffffffffffffffffffff1681526020019081526020016000205490503373ffffffffffffffffffffffffffffffffffffffff1660008083815260200190815260200160002060009054906101000a900473ffffffffffffffffffffffffffffffffffffffff1673ffffffffffffffffffffffffffffffffffffffff161461085c576040517f08c379a0000000000000000000000000000000000000000000000000000000008152600401610853906131da565b60405180910390fd5b60008373ffffffffffffffffffffffffffffffffffffffff166370a08231336040518263ffffffff1660e01b81526004016108979190612df9565b602060405180830381865afa1580156108b4573d6000803e3d6000fd5b505050506040513d601f19601f820116820180604052508101906108d891906130be565b90506000811161091d576040517f08c379a00000000000000000000000000000000000000000000000000000000081526004016109149061326c565b60405180910390fd5b60016005600084815260200190815260200160002060008673ffffffffffffffffffffffffffffffffffffffff1673ffffffffffffffffffffffffffffffffffffffff16815260200190815260200160002060006101000a81548160ff0219169083151502179055508092505050919050565b60008073ffffffffffffffffffffffffffffffffffffffff1660008084815260200190815260200160002060009054906101000a900473ffffffffffffffffffffffffffffffffffffffff1673ffffffffffffffffffffffffffffffffffffffff1603610a32576040517f08c379a0000000000000000000000000000000000000000000000000000000008152600401610a29906132d8565b60405180910390fd5b6002600083815260200190815260200160002060009054906101000a900473ffffffffffffffffffffffffffffffffffffffff169050919050565b600080600083815260200190815260200160002060009054906101000a900473ffffffffffffffffffffffffffffffffffffffff1690508073ffffffffffffffffffffffffffffffffffffffff163373ffffffffffffffffffffffffffffffffffffffff161480610b645750600360008273ffffffffffffffffffffffffffffffffffffffff1673ffffffffffffffffffffffffffffffffffffffff16815260200190815260200160002060003373ffffffffffffffffffffffffffffffffffffffff1673ffffffffffffffffffffffffffffffffffffffff16815260200190815260200160002060009054906101000a900460ff165b610ba3576040517f08c379a0000000000000000000000000000000000000000000000000000000008152600401610b9a90613344565b60405180910390fd5b826002600084815260200190815260200160002060006101000a81548173ffffffffffffffffffffffffffffffffffffffff021916908373ffffffffffffffffffffffffffffffffffffffff160217905550818373ffffffffffffffffffffffffffffffffffffffff168273ffffffffffffffffffffffffffffffffffffffff167f8c5be1e5ebec7d5bd14f71427d1e84f3dd0314c0f7b2291e5b200ac8c7c3b92560405160405180910390a4505050565b6000600160003373ffffffffffffffffffffffffffffffffffffffff1673ffffffffffffffffffffffffffffffffffffffff1681526020019081526020016000205414610cd7576040517f08c379a0000000000000000000000000000000000000000000000000000000008152600401610cce906133d6565b60405180910390fd5b6001600454610ce69190613425565b600481905550600160003373ffffffffffffffffffffffffffffffffffffffff1673ffffffffffffffffffffffffffffffffffffffff1681526020019081526020016000206000815480929190610d3c90613459565b919050555033600080600454815260200190815260200160002060006101000a81548173ffffffffffffffffffffffffffffffffffffffff021916908373ffffffffffffffffffffffffffffffffffffffff160217905550600454600660003373ffffffffffffffffffffffffffffffffffffffff1673ffffffffffffffffffffffffffffffffffffffff168152602001908152602001600020819055506004543373ffffffffffffffffffffffffffffffffffffffff16600073ffffffffffffffffffffffffffffffffffffffff167fddf252ad1be2c89b69c2b068fc378daa952ba7f163c4a11628f55a4df523b3ef60405160405180910390a4565b60008082815260200190815260200160002060009054906101000a900473ffffffffffffffffffffffffffffffffffffffff1673ffffffffffffffffffffffffffffffffffffffff168373ffffffffffffffffffffffffffffffffffffffff1614610eda576040517f08c379a0000000000000000000000000000000000000000000000000000000008152600401610ed1906134ed565b60405180910390fd5b600073ffffffffffffffffffffffffffffffffffffffff168273ffffffffffffffffffffffffffffffffffffffff1603610f49576040517f08c379a0000000000000000000000000000000000000000000000000000000008152600401610f4090613559565b60405180910390fd5b610f5483338361265c565b610f93576040517f08c379a0000000000000000000000000000000000000000000000000000000008152600401610f8a90613344565b60405180910390fd5b600160008473ffffffffffffffffffffffffffffffffffffffff1673ffffffffffffffffffffffffffffffffffffffff1681526020019081526020016000206000815480929190610fe390613579565b9190505550600160008373ffffffffffffffffffffffffffffffffffffffff1673ffffffffffffffffffffffffffffffffffffffff168152602001908152602001600020600081548092919061103890613459565b91905055508160008083815260200190815260200160002060006101000a81548173ffffffffffffffffffffffffffffffffffffffff021916908373ffffffffffffffffffffffffffffffffffffffff1602179055506002600082815260200190815260200160002060006101000a81549073ffffffffffffffffffffffffffffffffffffffff0219169055808273ffffffffffffffffffffffffffffffffffffffff168473ffffffffffffffffffffffffffffffffffffffff167fddf252ad1be2c89b69c2b068fc378daa952ba7f163c4a11628f55a4df523b3ef60405160405180910390a4505050565b61112f838383610e3a565b60008273ffffffffffffffffffffffffffffffffffffffff163b1480611218575063150b7a0260e01b7bffffffffffffffffffffffffffffffffffffffffffffffffffffffff19168273ffffffffffffffffffffffffffffffffffffffff1663150b7a023386856040518463ffffffff1660e01b81526004016111b4939291906135d9565b6020604051808303816000875af11580156111d3573d6000803e3d6000fd5b505050506040513d601f19601f820116820180604052508101906111f79190613638565b7bffffffffffffffffffffffffffffffffffffffffffffffffffffffff1916145b611257576040517f08c379a000000000000000000000000000000000000000000000000000000000815260040161124e906136b1565b60405180910390fd5b505050565b6000808373ffffffffffffffffffffffffffffffffffffffff166318160ddd6040518163ffffffff1660e01b8152600401602060405180830381865afa1580156112aa573d6000803e3d6000fd5b505050506040513d601f19601f820116820180604052508101906112ce91906130be565b1161130e576040517f08c379a000000000000000000000000000000000000000000000000000000000815260040161130590613148565b60405180910390fd5b81600860008573ffffffffffffffffffffffffffffffffffffffff1673ffffffffffffffffffffffffffffffffffffffff168152602001908152602001600020541015611390576040517f08c379a000000000000000000000000000000000000000000000000000000000815260040161138790613743565b60405180910390fd5b60006064905082816113a29190613763565b91505092915050565b6009602052816000526040600020602052806000526040600020600091509150505481565b600080600083815260200190815260200160002060009054906101000a900473ffffffffffffffffffffffffffffffffffffffff169050600073ffffffffffffffffffffffffffffffffffffffff168173ffffffffffffffffffffffffffffffffffffffff1603611476576040517f08c379a000000000000000000000000000000000000000000000000000000000815260040161146d906132d8565b60405180910390fd5b919050565b60086020528060005260406000206000915090505481565b60008073ffffffffffffffffffffffffffffffffffffffff168273ffffffffffffffffffffffffffffffffffffffff1603611503576040517f08c379a00000000000000000000000000000000000000000000000000000000081526004016114fa906137f1565b60405180910390fd5b600160008373ffffffffffffffffffffffffffffffffffffffff1673ffffffffffffffffffffffffffffffffffffffff168152602001908152602001600020549050919050565b60066020528060005260406000206000915090505481565b6007602052816000526040600020818154811061157e57600080fd5b9060005260206000209060020201600091509150508060000160009054906101000a900473ffffffffffffffffffffffffffffffffffffffff16908060010154905082565b60045481565b80600360003373ffffffffffffffffffffffffffffffffffffffff1673ffffffffffffffffffffffffffffffffffffffff16815260200190815260200160002060008473ffffffffffffffffffffffffffffffffffffffff1673ffffffffffffffffffffffffffffffffffffffff16815260200190815260200160002060006101000a81548160ff0219169083151502179055508173ffffffffffffffffffffffffffffffffffffffff163373ffffffffffffffffffffffffffffffffffffffff167f17307eab39ab6107e8899845ad3d59bd9653f200f220920489ca2b5937696c31836040516116ba9190612d76565b60405180910390a35050565b6116d1858585610e3a565b60008473ffffffffffffffffffffffffffffffffffffffff163b14806117be575063150b7a0260e01b7bffffffffffffffffffffffffffffffffffffffffffffffffffffffff19168473ffffffffffffffffffffffffffffffffffffffff1663150b7a0233888787876040518663ffffffff1660e01b815260040161175a95949392919061385e565b6020604051808303816000875af1158015611779573d6000803e3d6000fd5b505050506040513d601f19601f8201168201806040525081019061179d9190613638565b7bffffffffffffffffffffffffffffffffffffffffffffffffffffffff1916145b6117fd576040517f08c379a00000000000000000000000000000000000000000000000000000000081526004016117f4906136b1565b60405180910390fd5b5050505050565b60008273ffffffffffffffffffffffffffffffffffffffff166318160ddd6040518163ffffffff1660e01b8152600401602060405180830381865afa158015611851573d6000803e3d6000fd5b505050506040513d601f19601f8201168201806040525081019061187591906130be565b116118b5576040517f08c379a00000000000000000000000000000000000000000000000000000000081526004016118ac90613148565b60405180910390fd5b80600860008473ffffffffffffffffffffffffffffffffffffffff1673ffffffffffffffffffffffffffffffffffffffff168152602001908152602001600020541015611937576040517f08c379a000000000000000000000000000000000000000000000000000000000815260040161192e9061391e565b60405180910390fd5b6000600660003373ffffffffffffffffffffffffffffffffffffffff1673ffffffffffffffffffffffffffffffffffffffff1681526020019081526020016000205490503373ffffffffffffffffffffffffffffffffffffffff1660008083815260200190815260200160002060009054906101000a900473ffffffffffffffffffffffffffffffffffffffff1673ffffffffffffffffffffffffffffffffffffffff1614611a1b576040517f08c379a0000000000000000000000000000000000000000000000000000000008152600401611a12906139b0565b60405180910390fd5b6000611a27848461125c565b905080341015611a6c576040517f08c379a0000000000000000000000000000000000000000000000000000000008152600401611a6390613a1c565b60405180910390fd5b600083905060005b600760008773ffffffffffffffffffffffffffffffffffffffff1673ffffffffffffffffffffffffffffffffffffffff1681526020019081526020016000208054905081108015611ac55750600082115b15611efd576000600760008873ffffffffffffffffffffffffffffffffffffffff1673ffffffffffffffffffffffffffffffffffffffff1681526020019081526020016000208281548110611b1d57611b1c613a3c565b5b9060005260206000209060020201905080600101548310611d17578673ffffffffffffffffffffffffffffffffffffffff166323b872dd8260000160009054906101000a900473ffffffffffffffffffffffffffffffffffffffff163384600101546040518463ffffffff1660e01b8152600401611b9d93929190613a6b565b6020604051808303816000875af1158015611bbc573d6000803e3d6000fd5b505050506040513d601f19601f82011682018060405250810190611be09190613ab7565b50806001015483611bf19190613ae4565b92508060010154600860008973ffffffffffffffffffffffffffffffffffffffff1673ffffffffffffffffffffffffffffffffffffffff1681526020019081526020016000206000828254611c469190613ae4565b925050819055508060010154600960008360000160009054906101000a900473ffffffffffffffffffffffffffffffffffffffff1673ffffffffffffffffffffffffffffffffffffffff1673ffffffffffffffffffffffffffffffffffffffff16815260200190815260200160002060008973ffffffffffffffffffffffffffffffffffffffff1673ffffffffffffffffffffffffffffffffffffffff1681526020019081526020016000206000828254611d019190613ae4565b92505081905550611d128783612790565b611ef7565b8673ffffffffffffffffffffffffffffffffffffffff166323b872dd8260000160009054906101000a900473ffffffffffffffffffffffffffffffffffffffff1633866040518463ffffffff1660e01b8152600401611d7893929190613a6b565b6020604051808303816000875af1158015611d97573d6000803e3d6000fd5b505050506040513d601f19601f82011682018060405250810190611dbb9190613ab7565b5082816001016000828254611dd09190613ae4565b9250508190555082600860008973ffffffffffffffffffffffffffffffffffffffff1673ffffffffffffffffffffffffffffffffffffffff1681526020019081526020016000206000828254611e269190613ae4565b9250508190555082600960008360000160009054906101000a900473ffffffffffffffffffffffffffffffffffffffff1673ffffffffffffffffffffffffffffffffffffffff1673ffffffffffffffffffffffffffffffffffffffff16815260200190815260200160002060008973ffffffffffffffffffffffffffffffffffffffff1673ffffffffffffffffffffffffffffffffffffffff1681526020019081526020016000206000828254611edd9190613ae4565b92505081905550600092508180611ef390613459565b9250505b50611a74565b611f06866106c6565b5060008584611f159190613b47565b90508281611f239190613763565b341115611f88573373ffffffffffffffffffffffffffffffffffffffff166108fc8483611f509190613763565b34611f5b9190613ae4565b9081150290604051600060405180830381858888f19350505050158015611f86573d6000803e3d6000fd5b505b50505050505050565b6000600660003373ffffffffffffffffffffffffffffffffffffffff1673ffffffffffffffffffffffffffffffffffffffff168152602001908152602001600020549050611fde836106c6565b5060008373ffffffffffffffffffffffffffffffffffffffff166318160ddd6040518163ffffffff1660e01b8152600401602060405180830381865afa15801561202c573d6000803e3d6000fd5b505050506040513d601f19601f8201168201806040525081019061205091906130be565b11612090576040517f08c379a000000000000000000000000000000000000000000000000000000000815260040161208790613148565b60405180910390fd5b3373ffffffffffffffffffffffffffffffffffffffff1660008083815260200190815260200160002060009054906101000a900473ffffffffffffffffffffffffffffffffffffffff1673ffffffffffffffffffffffffffffffffffffffff1614612130576040517f08c379a0000000000000000000000000000000000000000000000000000000008152600401612127906131da565b60405180910390fd5b600115156005600083815260200190815260200160002060008573ffffffffffffffffffffffffffffffffffffffff1673ffffffffffffffffffffffffffffffffffffffff16815260200190815260200160002060009054906101000a900460ff161515146121d4576040517f08c379a00000000000000000000000000000000000000000000000000000000081526004016121cb90613bea565b60405180910390fd5b60008373ffffffffffffffffffffffffffffffffffffffff166370a08231336040518263ffffffff1660e01b815260040161220f9190612df9565b602060405180830381865afa15801561222c573d6000803e3d6000fd5b505050506040513d601f19601f8201168201806040525081019061225091906130be565b905080831115612295576040517f08c379a000000000000000000000000000000000000000000000000000000000815260040161228c90613c7c565b60405180910390fd5b6000600960003373ffffffffffffffffffffffffffffffffffffffff1673ffffffffffffffffffffffffffffffffffffffff16815260200190815260200160002060008673ffffffffffffffffffffffffffffffffffffffff1673ffffffffffffffffffffffffffffffffffffffff1681526020019081526020016000205490508184826123239190613425565b1115612364576040517f08c379a000000000000000000000000000000000000000000000000000000000815260040161235b90613d0e565b60405180910390fd5b60008573ffffffffffffffffffffffffffffffffffffffff1663dd62ed3e33306040518363ffffffff1660e01b81526004016123a1929190613d2e565b602060405180830381865afa1580156123be573d6000803e3d6000fd5b505050506040513d601f19601f820116820180604052508101906123e291906130be565b905084811015612427576040517f08c379a000000000000000000000000000000000000000000000000000000000815260040161241e90613dc9565b60405180910390fd5b600760008773ffffffffffffffffffffffffffffffffffffffff1673ffffffffffffffffffffffffffffffffffffffff16815260200190815260200160002060405180604001604052803373ffffffffffffffffffffffffffffffffffffffff16815260200187815250908060018154018082558091505060019003906000526020600020906002020160009091909190915060008201518160000160006101000a81548173ffffffffffffffffffffffffffffffffffffffff021916908373ffffffffffffffffffffffffffffffffffffffff16021790555060208201518160010155505084600860008873ffffffffffffffffffffffffffffffffffffffff1673ffffffffffffffffffffffffffffffffffffffff168152602001908152602001600020600082825461255c9190613425565b9250508190555084600960003373ffffffffffffffffffffffffffffffffffffffff1673ffffffffffffffffffffffffffffffffffffffff16815260200190815260200160002060008873ffffffffffffffffffffffffffffffffffffffff1673ffffffffffffffffffffffffffffffffffffffff16815260200190815260200160002060008282546125ef9190613425565b92505081905550505050505050565b60056020528160005260406000206020528060005260406000206000915091509054906101000a900460ff1681565b60036020528160005260406000206020528060005260406000206000915091509054906101000a900460ff1681565b60008373ffffffffffffffffffffffffffffffffffffffff168373ffffffffffffffffffffffffffffffffffffffff16148061271e5750600360008573ffffffffffffffffffffffffffffffffffffffff1673ffffffffffffffffffffffffffffffffffffffff16815260200190815260200160002060008473ffffffffffffffffffffffffffffffffffffffff1673ffffffffffffffffffffffffffffffffffffffff16815260200190815260200160002060009054906101000a900460ff165b8061278757506002600083815260200190815260200160002060009054906101000a900473ffffffffffffffffffffffffffffffffffffffff1673ffffffffffffffffffffffffffffffffffffffff168373ffffffffffffffffffffffffffffffffffffffff16145b90509392505050565b600760008373ffffffffffffffffffffffffffffffffffffffff1673ffffffffffffffffffffffffffffffffffffffff168152602001908152602001600020805490508110612814576040517f08c379a000000000000000000000000000000000000000000000000000000000815260040161280b90613e35565b60405180910390fd5b6000600760008473ffffffffffffffffffffffffffffffffffffffff1673ffffffffffffffffffffffffffffffffffffffff168152602001908152602001600020828154811061286757612866613a3c565b5b906000526020600020906002020160000160009054906101000a900473ffffffffffffffffffffffffffffffffffffffff1690506000600960008373ffffffffffffffffffffffffffffffffffffffff1673ffffffffffffffffffffffffffffffffffffffff16815260200190815260200160002060008573ffffffffffffffffffffffffffffffffffffffff1673ffffffffffffffffffffffffffffffffffffffff16815260200190815260200160002054036129a057600960008273ffffffffffffffffffffffffffffffffffffffff1673ffffffffffffffffffffffffffffffffffffffff16815260200190815260200160002060008473ffffffffffffffffffffffffffffffffffffffff1673ffffffffffffffffffffffffffffffffffffffff168152602001908152602001600020600090555b6000600760008573ffffffffffffffffffffffffffffffffffffffff1673ffffffffffffffffffffffffffffffffffffffff1681526020019081526020016000206001600760008773ffffffffffffffffffffffffffffffffffffffff1673ffffffffffffffffffffffffffffffffffffffff16815260200190815260200160002080549050612a309190613ae4565b81548110612a4157612a40613a3c565b5b90600052602060002090600202016040518060400160405290816000820160009054906101000a900473ffffffffffffffffffffffffffffffffffffffff1673ffffffffffffffffffffffffffffffffffffffff1673ffffffffffffffffffffffffffffffffffffffff168152602001600182015481525050905080600760008673ffffffffffffffffffffffffffffffffffffffff1673ffffffffffffffffffffffffffffffffffffffff1681526020019081526020016000208481548110612b0e57612b0d613a3c565b5b906000526020600020906002020160008201518160000160006101000a81548173ffffffffffffffffffffffffffffffffffffffff021916908373ffffffffffffffffffffffffffffffffffffffff16021790555060208201518160010155905050600760008573ffffffffffffffffffffffffffffffffffffffff1673ffffffffffffffffffffffffffffffffffffffff168152602001908152602001600020805480612bbf57612bbe613e55565b5b6001900381819060005260206000209060020201600080820160006101000a81549073ffffffffffffffffffffffffffffffffffffffff021916905560018201600090555050905550505050565b600080fd5b600080fd5b600073ffffffffffffffffffffffffffffffffffffffff82169050919050565b6000612c4282612c17565b9050919050565b612c5281612c37565b8114612c5d57600080fd5b50565b600081359050612c6f81612c49565b92915050565b600060208284031215612c8b57612c8a612c0d565b5b6000612c9984828501612c60565b91505092915050565b6000819050919050565b612cb581612ca2565b82525050565b6000602082019050612cd06000830184612cac565b92915050565b60007fffffffff0000000000000000000000000000000000000000000000000000000082169050919050565b612d0b81612cd6565b8114612d1657600080fd5b50565b600081359050612d2881612d02565b92915050565b600060208284031215612d4457612d43612c0d565b5b6000612d5284828501612d19565b91505092915050565b60008115159050919050565b612d7081612d5b565b82525050565b6000602082019050612d8b6000830184612d67565b92915050565b612d9a81612ca2565b8114612da557600080fd5b50565b600081359050612db781612d91565b92915050565b600060208284031215612dd357612dd2612c0d565b5b6000612de184828501612da8565b91505092915050565b612df381612c37565b82525050565b6000602082019050612e0e6000830184612dea565b92915050565b60008060408385031215612e2b57612e2a612c0d565b5b6000612e3985828601612c60565b9250506020612e4a85828601612da8565b9150509250929050565b600080600060608486031215612e6d57612e6c612c0d565b5b6000612e7b86828701612c60565b9350506020612e8c86828701612c60565b9250506040612e9d86828701612da8565b9150509250925092565b60008060408385031215612ebe57612ebd612c0d565b5b6000612ecc85828601612c60565b9250506020612edd85828601612c60565b9150509250929050565b6000604082019050612efc6000830185612dea565b612f096020830184612cac565b9392505050565b612f1981612d5b565b8114612f2457600080fd5b50565b600081359050612f3681612f10565b92915050565b60008060408385031215612f5357612f52612c0d565b5b6000612f6185828601612c60565b9250506020612f7285828601612f27565b9150509250929050565b600080fd5b600080fd5b600080fd5b60008083601f840112612fa157612fa0612f7c565b5b8235905067ffffffffffffffff811115612fbe57612fbd612f81565b5b602083019150836001820283011115612fda57612fd9612f86565b5b9250929050565b600080600080600060808688031215612ffd57612ffc612c0d565b5b600061300b88828901612c60565b955050602061301c88828901612c60565b945050604061302d88828901612da8565b935050606086013567ffffffffffffffff81111561304e5761304d612c12565b5b61305a88828901612f8b565b92509250509295509295909350565b600080604083850312156130805761307f612c0d565b5b600061308e85828601612da8565b925050602061309f85828601612c60565b9150509250929050565b6000815190506130b881612d91565b92915050565b6000602082840312156130d4576130d3612c0d565b5b60006130e2848285016130a9565b91505092915050565b600082825260208201905092915050565b7f496e76616c6964204552432d323020636f6e7472616374000000000000000000600082015250565b60006131326017836130eb565b915061313d826130fc565b602082019050919050565b6000602082019050818103600083015261316181613125565b9050919050565b7f796f7520617265206e6f7420746865206f776e6572206f66207468697320706f60008201527f7274666f6c696f21000000000000000000000000000000000000000000000000602082015250565b60006131c46028836130eb565b91506131cf82613168565b604082019050919050565b600060208201905081810360008301526131f3816131b7565b9050919050565b7f796f7520646f6e74206f776e20616e792073746f636b20696e2074686973206360008201527f6f6d70616e792021210000000000000000000000000000000000000000000000602082015250565b60006132566029836130eb565b9150613261826131fa565b604082019050919050565b6000602082019050818103600083015261328581613249565b9050919050565b7f746f6b656e20646f65736e277420657869737400000000000000000000000000600082015250565b60006132c26013836130eb565b91506132cd8261328c565b602082019050919050565b600060208201905081810360008301526132f1816132b5565b9050919050565b7f6e6f7420617574686f72697a6564000000000000000000000000000000000000600082015250565b600061332e600e836130eb565b9150613339826132f8565b602082019050919050565b6000602082019050818103600083015261335d81613321565b9050919050565b7f796f75206861766520616c726561647920616c7265616479206d696e7465642060008201527f796f757220706f7274666f6c696f202100000000000000000000000000000000602082015250565b60006133c06030836130eb565b91506133cb82613364565b604082019050919050565b600060208201905081810360008301526133ef816133b3565b9050919050565b7f4e487b7100000000000000000000000000000000000000000000000000000000600052601160045260246000fd5b600061343082612ca2565b915061343b83612ca2565b9250828201905080821115613453576134526133f6565b5b92915050565b600061346482612ca2565b91507fffffffffffffffffffffffffffffffffffffffffffffffffffffffffffffffff8203613496576134956133f6565b5b600182019050919050565b7f66726f6d20213d206f776e657200000000000000000000000000000000000000600082015250565b60006134d7600d836130eb565b91506134e2826134a1565b602082019050919050565b60006020820190508181036000830152613506816134ca565b9050919050565b7f7472616e7366657220746f207a65726f20616464726573730000000000000000600082015250565b60006135436018836130eb565b915061354e8261350d565b602082019050919050565b6000602082019050818103600083015261357281613536565b9050919050565b600061358482612ca2565b915060008203613597576135966133f6565b5b600182039050919050565b600082825260208201905092915050565b50565b60006135c36000836135a2565b91506135ce826135b3565b600082019050919050565b60006080820190506135ee6000830186612dea565b6135fb6020830185612dea565b6136086040830184612cac565b8181036060830152613619816135b6565b9050949350505050565b60008151905061363281612d02565b92915050565b60006020828403121561364e5761364d612c0d565b5b600061365c84828501613623565b91505092915050565b7f756e7361666520726563697069656e7400000000000000000000000000000000600082015250565b600061369b6010836130eb565b91506136a682613665565b602082019050919050565b600060208201905081810360008301526136ca8161368e565b9050919050565b7f736f727279202c206e6f7420656e6f7567682073746f636b206861732062656560008201527f6e206c697374656420757020666f722073616c65000000000000000000000000602082015250565b600061372d6034836130eb565b9150613738826136d1565b604082019050919050565b6000602082019050818103600083015261375c81613720565b9050919050565b600061376e82612ca2565b915061377983612ca2565b925082820261378781612ca2565b9150828204841483151761379e5761379d6133f6565b5b5092915050565b7f6f776e6572203d207a65726f2061646472657373000000000000000000000000600082015250565b60006137db6014836130eb565b91506137e6826137a5565b602082019050919050565b6000602082019050818103600083015261380a816137ce565b9050919050565b82818337600083830152505050565b6000601f19601f8301169050919050565b600061383d83856135a2565b935061384a838584613811565b61385383613820565b840190509392505050565b60006080820190506138736000830188612dea565b6138806020830187612dea565b61388d6040830186612cac565b81810360608301526138a0818486613831565b90509695505050505050565b7f4e6f7420656e6f7567682073746f636b20617661696c61626c6520666f72207360008201527f616c650000000000000000000000000000000000000000000000000000000000602082015250565b60006139086023836130eb565b9150613913826138ac565b604082019050919050565b60006020820190508181036000830152613937816138fb565b9050919050565b7f596f7520617265206e6f7420746865206f776e6572206f66207468697320706f60008201527f7274666f6c696f21000000000000000000000000000000000000000000000000602082015250565b600061399a6028836130eb565b91506139a58261393e565b604082019050919050565b600060208201905081810360008301526139c98161398d565b9050919050565b7f496e73756666696369656e74207061796d656e74000000000000000000000000600082015250565b6000613a066014836130eb565b9150613a11826139d0565b602082019050919050565b60006020820190508181036000830152613a35816139f9565b9050919050565b7f4e487b7100000000000000000000000000000000000000000000000000000000600052603260045260246000fd5b6000606082019050613a806000830186612dea565b613a8d6020830185612dea565b613a9a6040830184612cac565b949350505050565b600081519050613ab181612f10565b92915050565b600060208284031215613acd57613acc612c0d565b5b6000613adb84828501613aa2565b91505092915050565b6000613aef82612ca2565b9150613afa83612ca2565b9250828203905081811115613b1257613b116133f6565b5b92915050565b7f4e487b7100000000000000000000000000000000000000000000000000000000600052601260045260246000fd5b6000613b5282612ca2565b9150613b5d83612ca2565b925082613b6d57613b6c613b18565b5b828204905092915050565b7f796f757220706f7274666f6c696f28746f6b656e6e49442920686173206e6f2060008201527f73746f636b207468697320636f6d70616e790000000000000000000000000000602082015250565b6000613bd46032836130eb565b9150613bdf82613b78565b604082019050919050565b60006020820190508181036000830152613c0381613bc7565b9050919050565b7f796f752063616e74206c697374206d6f72652073746f636b207468616e20796f60008201527f75206f776e20696e2074686520636f6d70616e79212100000000000000000000602082015250565b6000613c666036836130eb565b9150613c7182613c0a565b604082019050919050565b60006020820190508181036000830152613c9581613c59565b9050919050565b7f546f74616c206c697374656420616d6f756e7420776f756c642065786365656460008201527f206f776e65642062616c616e6365000000000000000000000000000000000000602082015250565b6000613cf8602e836130eb565b9150613d0382613c9c565b604082019050919050565b60006020820190508181036000830152613d2781613ceb565b9050919050565b6000604082019050613d436000830185612dea565b613d506020830184612dea565b9392505050565b7f6e6f7420656e6f7567682073746f636b20697320617574686f72697a6564207460008201527f6f20626520736f6c640000000000000000000000000000000000000000000000602082015250565b6000613db36029836130eb565b9150613dbe82613d57565b604082019050919050565b60006020820190508181036000830152613de281613da6565b9050919050565b7f496e76616c6964206c697374696e6720696e6465780000000000000000000000600082015250565b6000613e1f6015836130eb565b9150613e2a82613de9565b602082019050919050565b60006020820190508181036000830152613e4e81613e12565b9050919050565b7f4e487b7100000000000000000000000000000000000000000000000000000000600052603160045260246000fdfea264697066735822122083ec9c04fed6c2f7f26e005dbd74c24a65e8e0b027d394165c5ee6c8e43d385b64736f6c634300081c0033",
  "linkReferences": {},
  "deployedLinkReferences": {}
}