{
  "_format": "hh-sol-artifact-1",
  "contractName": "portfolio",
  "sourceName": "contracts/portfolio.sol",
  "abi": [
    {
      "inputs": [],
      "stateMutability": "nonpayable",
      "type": "constructor"
    },
    {
      "anonymous": false,
      "inputs": [
        {
          "indexed": true,
          "internalType": "address",
          "name": "owner",
          "type": "address"
        },
        {
          "indexed": true,
          "internalType": "address",
          "name": "spender",
          "type": "address"
        },
        {
          "indexed": true,
          "internalType": "uint256",
          "name": "id",
          "type": "uint256"
        }
      ],
      "name": "Approval",
      "type": "event"
    },
    {
      "anonymous": false,
      "inputs": [
        {
          "indexed": true,
          "internalType": "address",
          "name": "owner",
          "type": "address"
        },
        {
          "indexed": true,
          "internalType": "address",
          "name": "operator",
          "type": "address"
        },
        {
          "indexed": false,
          "internalType": "bool",
          "name": "approved",
          "type": "bool"
        }
      ],
      "name": "ApprovalForAll",
      "type": "event"
    },
    {
      "anonymous": false,
      "inputs": [
        {
          "indexed": true,
          "internalType": "address",
          "name": "from",
          "type": "address"
        },
        {
          "indexed": true,
          "internalType": "address",
          "name": "to",
          "type": "address"
        },
        {
          "indexed": true,
          "internalType": "uint256",
          "name": "id",
          "type": "uint256"
        }
      ],
      "name": "Transfer",
      "type": "event"
    },
    {
      "inputs": [
        {
          "internalType": "address",
          "name": "",
          "type": "address"
        }
      ],
      "name": "_ownedToken",
      "outputs": [
        {
          "internalType": "uint256",
          "name": "",
          "type": "uint256"
        }
      ],
      "stateMutability": "view",
      "type": "function"
    },
    {
      "inputs": [
        {
          "internalType": "address",
          "name": "",
          "type": "address"
        },
        {
          "internalType": "uint256",
          "name": "",
          "type": "uint256"
        }
      ],
      "name": "_stocksForSale",
      "outputs": [
        {
          "internalType": "address",
          "name": "seller",
          "type": "address"
        },
        {
          "internalType": "uint256",
          "name": "count",
          "type": "uint256"
        }
      ],
      "stateMutability": "view",
      "type": "function"
    },
    {
      "inputs": [
        {
          "internalType": "uint256",
          "name": "",
          "type": "uint256"
        },
        {
          "internalType": "address",
          "name": "",
          "type": "address"
        }
      ],
      "name": "_tokenHasStock",
      "outputs": [
        {
          "internalType": "bool",
          "name": "",
          "type": "bool"
        }
      ],
      "stateMutability": "view",
      "type": "function"
    },
    {
      "inputs": [
        {
          "internalType": "address",
          "name": "",
          "type": "address"
        }
      ],
      "name": "_totalSellCount",
      "outputs": [
        {
          "internalType": "uint256",
          "name": "",
          "type": "uint256"
        }
      ],
      "stateMutability": "view",
      "type": "function"
    },
    {
      "inputs": [
        {
          "internalType": "address",
          "name": "spender",
          "type": "address"
        },
        {
          "internalType": "uint256",
          "name": "id",
          "type": "uint256"
        }
      ],
      "name": "approve",
      "outputs": [],
      "stateMutability": "nonpayable",
      "type": "function"
    },
    {
      "inputs": [
        {
          "internalType": "address",
          "name": "owner",
          "type": "address"
        }
      ],
      "name": "balanceOf",
      "outputs": [
        {
          "internalType": "uint256",
          "name": "",
          "type": "uint256"
        }
      ],
      "stateMutability": "view",
      "type": "function"
    },
    {
      "inputs": [
        {
          "internalType": "address",
          "name": "stockFtAddress",
          "type": "address"
        },
        {
          "internalType": "uint256",
          "name": "count",
          "type": "uint256"
        }
      ],
      "name": "buy",
      "outputs": [],
      "stateMutability": "payable",
      "type": "function"
    },
    {
      "inputs": [
        {
          "internalType": "address",
          "name": "stockFtAddress",
          "type": "address"
        },
        {
          "internalType": "uint256",
          "name": "listingIndex",
          "type": "uint256"
        }
      ],
      "name": "delistStockListing",
      "outputs": [],
      "stateMutability": "nonpayable",
      "type": "function"
    },
    {
      "inputs": [
        {
          "internalType": "uint256",
          "name": "id",
          "type": "uint256"
        }
      ],
      "name": "getApproved",
      "outputs": [
        {
          "internalType": "address",
          "name": "",
          "type": "address"
        }
      ],
      "stateMutability": "view",
      "type": "function"
    },
    {
      "inputs": [
        {
          "internalType": "address",
          "name": "stockFtAddress",
          "type": "address"
        },
        {
          "internalType": "uint256",
          "name": "count",
          "type": "uint256"
        }
      ],
      "name": "getPrice",
      "outputs": [
        {
          "internalType": "uint256",
          "name": "",
          "type": "uint256"
        }
      ],
      "stateMutability": "view",
      "type": "function"
    },
    {
      "inputs": [
        {
          "internalType": "address",
          "name": "stockAddress",
          "type": "address"
        }
      ],
      "name": "getStockListingsLength",
      "outputs": [
        {
          "internalType": "uint256",
          "name": "",
          "type": "uint256"
        }
      ],
      "stateMutability": "view",
      "type": "function"
    },
    {
      "inputs": [
        {
          "internalType": "address",
          "name": "",
          "type": "address"
        },
        {
          "internalType": "address",
          "name": "",
          "type": "address"
        }
      ],
      "name": "isApprovedForAll",
      "outputs": [
        {
          "internalType": "bool",
          "name": "",
          "type": "bool"
        }
      ],
      "stateMutability": "view",
      "type": "function"
    },
    {
      "inputs": [
        {
          "internalType": "address",
          "name": "stockFtAddress",
          "type": "address"
        },
        {
          "internalType": "uint256",
          "name": "count",
          "type": "uint256"
        }
      ],
      "name": "list_stock_to_sell",
      "outputs": [],
      "stateMutability": "nonpayable",
      "type": "function"
    },
    {
      "inputs": [],
      "name": "mint",
      "outputs": [],
      "stateMutability": "nonpayable",
      "type": "function"
    },
    {
      "inputs": [
        {
          "internalType": "uint256",
          "name": "id",
          "type": "uint256"
        }
      ],
      "name": "ownerOf",
      "outputs": [
        {
          "internalType": "address",
          "name": "owner",
          "type": "address"
        }
      ],
      "stateMutability": "view",
      "type": "function"
    },
    {
      "inputs": [
        {
          "internalType": "address",
          "name": "from",
          "type": "address"
        },
        {
          "internalType": "address",
          "name": "to",
          "type": "address"
        },
        {
          "internalType": "uint256",
          "name": "id",
          "type": "uint256"
        }
      ],
      "name": "safeTransferFrom",
      "outputs": [],
      "stateMutability": "nonpayable",
      "type": "function"
    },
    {
      "inputs": [
        {
          "internalType": "address",
          "name": "from",
          "type": "address"
        },
        {
          "internalType": "address",
          "name": "to",
          "type": "address"
        },
        {
          "internalType": "uint256",
          "name": "id",
          "type": "uint256"
        },
        {
          "internalType": "bytes",
          "name": "data",
          "type": "bytes"
        }
      ],
      "name": "safeTransferFrom",
      "outputs": [],
      "stateMutability": "nonpayable",
      "type": "function"
    },
    {
      "inputs": [
        {
          "internalType": "address",
          "name": "operator",
          "type": "address"
        },
        {
          "internalType": "bool",
          "name": "approved",
          "type": "bool"
        }
      ],
      "name": "setApprovalForAll",
      "outputs": [],
      "stateMutability": "nonpayable",
      "type": "function"
    },
    {
      "inputs": [
        {
          "internalType": "bytes4",
          "name": "interfaceId",
          "type": "bytes4"
        }
      ],
      "name": "supportsInterface",
      "outputs": [
        {
          "internalType": "bool",
          "name": "",
          "type": "bool"
        }
      ],
      "stateMutability": "pure",
      "type": "function"
    },
    {
      "inputs": [],
      "name": "tokenCount",
      "outputs": [
        {
          "internalType": "uint256",
          "name": "",
          "type": "uint256"
        }
      ],
      "stateMutability": "view",
      "type": "function"
    },
    {
      "inputs": [
        {
          "internalType": "address",
          "name": "from",
          "type": "address"
        },
        {
          "internalType": "address",
          "name": "to",
          "type": "address"
        },
        {
          "internalType": "uint256",
          "name": "id",
          "type": "uint256"
        }
      ],
      "name": "transferFrom",
      "outputs": [],
      "stateMutability": "nonpayable",
      "type": "function"
    },
    {
      "inputs": [
        {
          "internalType": "address",
          "name": "stockFtAddress",
          "type": "address"
        }
      ],
      "name": "updatePortfolio",
      "outputs": [
        {
          "internalType": "uint256",
          "name": "",
          "type": "uint256"
        }
      ],
      "stateMutability": "nonpayable",
      "type": "function"
    }
  ],
  "bytecode": "0x6080604052348015600f57600080fd5b50600060048190555061398d806100276000396000f3fe6080604052600436106101355760003560e01c80636c13e651116100ab578063a22cb4651161006f578063a22cb46514610483578063b88d4fde146104ac578063cce7ec13146104d5578063d24b20f5146104f1578063d2863e751461051a578063e985e9c51461055757610135565b80636c13e6511461036357806370a08231146103a057806385ad5085146103dd5780639b232ab01461041a5780639f181b5e1461045857610135565b80631249c58b116100fd5780631249c58b1461025757806323b872dd1461026e5780633a042db71461029757806342842e0e146102c0578063449e815d146102e95780636352211e1461032657610135565b8063016e44e71461013a57806301ffc9a714610177578063078a235e146101b4578063081812fc146101f1578063095ea7b31461022e575b600080fd5b34801561014657600080fd5b50610161600480360381019061015c91906127da565b610594565b60405161016e9190612820565b60405180910390f35b34801561018357600080fd5b5061019e60048036038101906101999190612893565b6105e0565b6040516101ab91906128db565b60405180910390f35b3480156101c057600080fd5b506101db60048036038101906101d691906127da565b6106b2565b6040516101e89190612820565b60405180910390f35b3480156101fd57600080fd5b5061021860048036038101906102139190612922565b61097c565b604051610225919061295e565b60405180910390f35b34801561023a57600080fd5b5061025560048036038101906102509190612979565b610a59565b005b34801561026357600080fd5b5061026c610c41565b005b34801561027a57600080fd5b50610295600480360381019061029091906129b9565b610e26565b005b3480156102a357600080fd5b506102be60048036038101906102b99190612979565b611110565b005b3480156102cc57600080fd5b506102e760048036038101906102e291906129b9565b611400565b005b3480156102f557600080fd5b50610310600480360381019061030b9190612979565b611538565b60405161031d9190612820565b60405180910390f35b34801561033257600080fd5b5061034d60048036038101906103489190612922565b611687565b60405161035a919061295e565b60405180910390f35b34801561036f57600080fd5b5061038a600480360381019061038591906127da565b611732565b6040516103979190612820565b60405180910390f35b3480156103ac57600080fd5b506103c760048036038101906103c291906127da565b61174a565b6040516103d49190612820565b60405180910390f35b3480156103e957600080fd5b5061040460048036038101906103ff91906127da565b611801565b6040516104119190612820565b60405180910390f35b34801561042657600080fd5b50610441600480360381019061043c9190612979565b611819565b60405161044f929190612a0c565b60405180910390f35b34801561046457600080fd5b5061046d61187a565b60405161047a9190612820565b60405180910390f35b34801561048f57600080fd5b506104aa60048036038101906104a59190612a61565b611880565b005b3480156104b857600080fd5b506104d360048036038101906104ce9190612b06565b61197d565b005b6104ef60048036038101906104ea9190612979565b611abb565b005b3480156104fd57600080fd5b5061051860048036038101906105139190612979565b6120d6565b005b34801561052657600080fd5b50610541600480360381019061053c9190612b8e565b6125e0565b60405161054e91906128db565b60405180910390f35b34801561056357600080fd5b5061057e60048036038101906105799190612bce565b61260f565b60405161058b91906128db565b60405180910390f35b6000600760008373ffffffffffffffffffffffffffffffffffffffff1673ffffffffffffffffffffffffffffffffffffffff168152602001908152602001600020805490509050919050565b60007f80ac58cd000000000000000000000000000000000000000000000000000000007bffffffffffffffffffffffffffffffffffffffffffffffffffffffff1916827bffffffffffffffffffffffffffffffffffffffffffffffffffffffff191614806106ab57507f01ffc9a7000000000000000000000000000000000000000000000000000000007bffffffffffffffffffffffffffffffffffffffffffffffffffffffff1916827bffffffffffffffffffffffffffffffffffffffffffffffffffffffff1916145b9050919050565b6000808273ffffffffffffffffffffffffffffffffffffffff166318160ddd6040518163ffffffff1660e01b8152600401602060405180830381865afa158015610700573d6000803e3d6000fd5b505050506040513d601f19601f820116820180604052508101906107249190612c23565b11610764576040517f08c379a000000000000000000000000000000000000000000000000000000000815260040161075b90612cad565b60405180910390fd5b6000600660003373ffffffffffffffffffffffffffffffffffffffff1673ffffffffffffffffffffffffffffffffffffffff1681526020019081526020016000205490503373ffffffffffffffffffffffffffffffffffffffff1660008083815260200190815260200160002060009054906101000a900473ffffffffffffffffffffffffffffffffffffffff1673ffffffffffffffffffffffffffffffffffffffff1614610848576040517f08c379a000000000000000000000000000000000000000000000000000000000815260040161083f90612d3f565b60405180910390fd5b60008373ffffffffffffffffffffffffffffffffffffffff166370a08231336040518263ffffffff1660e01b8152600401610883919061295e565b602060405180830381865afa1580156108a0573d6000803e3d6000fd5b505050506040513d601f19601f820116820180604052508101906108c49190612c23565b905060008111610909576040517f08c379a000000000000000000000000000000000000000000000000000000000815260040161090090612dd1565b60405180910390fd5b60016005600084815260200190815260200160002060008673ffffffffffffffffffffffffffffffffffffffff1673ffffffffffffffffffffffffffffffffffffffff16815260200190815260200160002060006101000a81548160ff0219169083151502179055508092505050919050565b60008073ffffffffffffffffffffffffffffffffffffffff1660008084815260200190815260200160002060009054906101000a900473ffffffffffffffffffffffffffffffffffffffff1673ffffffffffffffffffffffffffffffffffffffff1603610a1e576040517f08c379a0000000000000000000000000000000000000000000000000000000008152600401610a1590612e3d565b60405180910390fd5b6002600083815260200190815260200160002060009054906101000a900473ffffffffffffffffffffffffffffffffffffffff169050919050565b600080600083815260200190815260200160002060009054906101000a900473ffffffffffffffffffffffffffffffffffffffff1690508073ffffffffffffffffffffffffffffffffffffffff163373ffffffffffffffffffffffffffffffffffffffff161480610b505750600360008273ffffffffffffffffffffffffffffffffffffffff1673ffffffffffffffffffffffffffffffffffffffff16815260200190815260200160002060003373ffffffffffffffffffffffffffffffffffffffff1673ffffffffffffffffffffffffffffffffffffffff16815260200190815260200160002060009054906101000a900460ff165b610b8f576040517f08c379a0000000000000000000000000000000000000000000000000000000008152600401610b8690612ea9565b60405180910390fd5b826002600084815260200190815260200160002060006101000a81548173ffffffffffffffffffffffffffffffffffffffff021916908373ffffffffffffffffffffffffffffffffffffffff160217905550818373ffffffffffffffffffffffffffffffffffffffff168273ffffffffffffffffffffffffffffffffffffffff167f8c5be1e5ebec7d5bd14f71427d1e84f3dd0314c0f7b2291e5b200ac8c7c3b92560405160405180910390a4505050565b6000600160003373ffffffffffffffffffffffffffffffffffffffff1673ffffffffffffffffffffffffffffffffffffffff1681526020019081526020016000205414610cc3576040517f08c379a0000000000000000000000000000000000000000000000000000000008152600401610cba90612f3b565b60405180910390fd5b6001600454610cd29190612f8a565b600481905550600160003373ffffffffffffffffffffffffffffffffffffffff1673ffffffffffffffffffffffffffffffffffffffff1681526020019081526020016000206000815480929190610d2890612fbe565b919050555033600080600454815260200190815260200160002060006101000a81548173ffffffffffffffffffffffffffffffffffffffff021916908373ffffffffffffffffffffffffffffffffffffffff160217905550600454600660003373ffffffffffffffffffffffffffffffffffffffff1673ffffffffffffffffffffffffffffffffffffffff168152602001908152602001600020819055506004543373ffffffffffffffffffffffffffffffffffffffff16600073ffffffffffffffffffffffffffffffffffffffff167fddf252ad1be2c89b69c2b068fc378daa952ba7f163c4a11628f55a4df523b3ef60405160405180910390a4565b60008082815260200190815260200160002060009054906101000a900473ffffffffffffffffffffffffffffffffffffffff1673ffffffffffffffffffffffffffffffffffffffff168373ffffffffffffffffffffffffffffffffffffffff1614610ec6576040517f08c379a0000000000000000000000000000000000000000000000000000000008152600401610ebd90613052565b60405180910390fd5b600073ffffffffffffffffffffffffffffffffffffffff168273ffffffffffffffffffffffffffffffffffffffff1603610f35576040517f08c379a0000000000000000000000000000000000000000000000000000000008152600401610f2c906130be565b60405180910390fd5b610f4083338361263e565b610f7f576040517f08c379a0000000000000000000000000000000000000000000000000000000008152600401610f7690612ea9565b60405180910390fd5b600160008473ffffffffffffffffffffffffffffffffffffffff1673ffffffffffffffffffffffffffffffffffffffff1681526020019081526020016000206000815480929190610fcf906130de565b9190505550600160008373ffffffffffffffffffffffffffffffffffffffff1673ffffffffffffffffffffffffffffffffffffffff168152602001908152602001600020600081548092919061102490612fbe565b91905055508160008083815260200190815260200160002060006101000a81548173ffffffffffffffffffffffffffffffffffffffff021916908373ffffffffffffffffffffffffffffffffffffffff1602179055506002600082815260200190815260200160002060006101000a81549073ffffffffffffffffffffffffffffffffffffffff0219169055808273ffffffffffffffffffffffffffffffffffffffff168473ffffffffffffffffffffffffffffffffffffffff167fddf252ad1be2c89b69c2b068fc378daa952ba7f163c4a11628f55a4df523b3ef60405160405180910390a4505050565b600760008373ffffffffffffffffffffffffffffffffffffffff1673ffffffffffffffffffffffffffffffffffffffff168152602001908152602001600020805490508110611194576040517f08c379a000000000000000000000000000000000000000000000000000000000815260040161118b90613153565b60405180910390fd5b6000600760008473ffffffffffffffffffffffffffffffffffffffff1673ffffffffffffffffffffffffffffffffffffffff1681526020019081526020016000206001600760008673ffffffffffffffffffffffffffffffffffffffff1673ffffffffffffffffffffffffffffffffffffffff168152602001908152602001600020805490506112249190613173565b81548110611235576112346131a7565b5b90600052602060002090600202016040518060400160405290816000820160009054906101000a900473ffffffffffffffffffffffffffffffffffffffff1673ffffffffffffffffffffffffffffffffffffffff1673ffffffffffffffffffffffffffffffffffffffff168152602001600182015481525050905080600760008573ffffffffffffffffffffffffffffffffffffffff1673ffffffffffffffffffffffffffffffffffffffff1681526020019081526020016000208381548110611302576113016131a7565b5b906000526020600020906002020160008201518160000160006101000a81548173ffffffffffffffffffffffffffffffffffffffff021916908373ffffffffffffffffffffffffffffffffffffffff16021790555060208201518160010155905050600760008473ffffffffffffffffffffffffffffffffffffffff1673ffffffffffffffffffffffffffffffffffffffff1681526020019081526020016000208054806113b3576113b26131d6565b5b6001900381819060005260206000209060020201600080820160006101000a81549073ffffffffffffffffffffffffffffffffffffffff0219169055600182016000905550509055505050565b61140b838383610e26565b60008273ffffffffffffffffffffffffffffffffffffffff163b14806114f4575063150b7a0260e01b7bffffffffffffffffffffffffffffffffffffffffffffffffffffffff19168273ffffffffffffffffffffffffffffffffffffffff1663150b7a023386856040518463ffffffff1660e01b81526004016114909392919061323c565b6020604051808303816000875af11580156114af573d6000803e3d6000fd5b505050506040513d601f19601f820116820180604052508101906114d3919061329b565b7bffffffffffffffffffffffffffffffffffffffffffffffffffffffff1916145b611533576040517f08c379a000000000000000000000000000000000000000000000000000000000815260040161152a90613314565b60405180910390fd5b505050565b6000808373ffffffffffffffffffffffffffffffffffffffff166318160ddd6040518163ffffffff1660e01b8152600401602060405180830381865afa158015611586573d6000803e3d6000fd5b505050506040513d601f19601f820116820180604052508101906115aa9190612c23565b116115ea576040517f08c379a00000000000000000000000000000000000000000000000000000000081526004016115e190612cad565b60405180910390fd5b81600860008573ffffffffffffffffffffffffffffffffffffffff1673ffffffffffffffffffffffffffffffffffffffff16815260200190815260200160002054101561166c576040517f08c379a0000000000000000000000000000000000000000000000000000000008152600401611663906133a6565b60405180910390fd5b600060649050828161167e91906133c6565b91505092915050565b600080600083815260200190815260200160002060009054906101000a900473ffffffffffffffffffffffffffffffffffffffff169050600073ffffffffffffffffffffffffffffffffffffffff168173ffffffffffffffffffffffffffffffffffffffff160361172d576040517f08c379a000000000000000000000000000000000000000000000000000000000815260040161172490612e3d565b60405180910390fd5b919050565b60086020528060005260406000206000915090505481565b60008073ffffffffffffffffffffffffffffffffffffffff168273ffffffffffffffffffffffffffffffffffffffff16036117ba576040517f08c379a00000000000000000000000000000000000000000000000000000000081526004016117b190613454565b60405180910390fd5b600160008373ffffffffffffffffffffffffffffffffffffffff1673ffffffffffffffffffffffffffffffffffffffff168152602001908152602001600020549050919050565b60066020528060005260406000206000915090505481565b6007602052816000526040600020818154811061183557600080fd5b9060005260206000209060020201600091509150508060000160009054906101000a900473ffffffffffffffffffffffffffffffffffffffff16908060010154905082565b60045481565b80600360003373ffffffffffffffffffffffffffffffffffffffff1673ffffffffffffffffffffffffffffffffffffffff16815260200190815260200160002060008473ffffffffffffffffffffffffffffffffffffffff1673ffffffffffffffffffffffffffffffffffffffff16815260200190815260200160002060006101000a81548160ff0219169083151502179055508173ffffffffffffffffffffffffffffffffffffffff163373ffffffffffffffffffffffffffffffffffffffff167f17307eab39ab6107e8899845ad3d59bd9653f200f220920489ca2b5937696c318360405161197191906128db565b60405180910390a35050565b611988858585610e26565b60008473ffffffffffffffffffffffffffffffffffffffff163b1480611a75575063150b7a0260e01b7bffffffffffffffffffffffffffffffffffffffffffffffffffffffff19168473ffffffffffffffffffffffffffffffffffffffff1663150b7a0233888787876040518663ffffffff1660e01b8152600401611a119594939291906134c1565b6020604051808303816000875af1158015611a30573d6000803e3d6000fd5b505050506040513d601f19601f82011682018060405250810190611a54919061329b565b7bffffffffffffffffffffffffffffffffffffffffffffffffffffffff1916145b611ab4576040517f08c379a0000000000000000000000000000000000000000000000000000000008152600401611aab90613314565b60405180910390fd5b5050505050565b60008273ffffffffffffffffffffffffffffffffffffffff166318160ddd6040518163ffffffff1660e01b8152600401602060405180830381865afa158015611b08573d6000803e3d6000fd5b505050506040513d601f19601f82011682018060405250810190611b2c9190612c23565b11611b6c576040517f08c379a0000000000000000000000000000000000000000000000000000000008152600401611b6390612cad565b60405180910390fd5b80600860008473ffffffffffffffffffffffffffffffffffffffff1673ffffffffffffffffffffffffffffffffffffffff168152602001908152602001600020541015611bee576040517f08c379a0000000000000000000000000000000000000000000000000000000008152600401611be590613581565b60405180910390fd5b6000600660003373ffffffffffffffffffffffffffffffffffffffff1673ffffffffffffffffffffffffffffffffffffffff1681526020019081526020016000205490503373ffffffffffffffffffffffffffffffffffffffff1660008083815260200190815260200160002060009054906101000a900473ffffffffffffffffffffffffffffffffffffffff1673ffffffffffffffffffffffffffffffffffffffff1614611cd2576040517f08c379a0000000000000000000000000000000000000000000000000000000008152600401611cc990613613565b60405180910390fd5b6000611cde8484611538565b905080341015611d23576040517f08c379a0000000000000000000000000000000000000000000000000000000008152600401611d1a9061367f565b60405180910390fd5b600083905060005b600760008773ffffffffffffffffffffffffffffffffffffffff1673ffffffffffffffffffffffffffffffffffffffff1681526020019081526020016000208054905081108015611d7c5750600082115b15612042576000600760008873ffffffffffffffffffffffffffffffffffffffff1673ffffffffffffffffffffffffffffffffffffffff1681526020019081526020016000208281548110611dd457611dd36131a7565b5b9060005260206000209060020201905080600101548310611f13578673ffffffffffffffffffffffffffffffffffffffff166323b872dd8260000160009054906101000a900473ffffffffffffffffffffffffffffffffffffffff163384600101546040518463ffffffff1660e01b8152600401611e549392919061369f565b6020604051808303816000875af1158015611e73573d6000803e3d6000fd5b505050506040513d601f19601f82011682018060405250810190611e9791906136eb565b50806001015483611ea89190613173565b92508060010154600860008973ffffffffffffffffffffffffffffffffffffffff1673ffffffffffffffffffffffffffffffffffffffff1681526020019081526020016000206000828254611efd9190613173565b92505081905550611f0e8783611110565b61203c565b8673ffffffffffffffffffffffffffffffffffffffff166323b872dd8260000160009054906101000a900473ffffffffffffffffffffffffffffffffffffffff1633866040518463ffffffff1660e01b8152600401611f749392919061369f565b6020604051808303816000875af1158015611f93573d6000803e3d6000fd5b505050506040513d601f19601f82011682018060405250810190611fb791906136eb565b5082816001016000828254611fcc9190613173565b9250508190555082600860008973ffffffffffffffffffffffffffffffffffffffff1673ffffffffffffffffffffffffffffffffffffffff16815260200190815260200160002060008282546120229190613173565b9250508190555060009250818061203890612fbe565b9250505b50611d2b565b61204b866106b2565b506000858461205a9190613747565b9050828161206891906133c6565b3411156120cd573373ffffffffffffffffffffffffffffffffffffffff166108fc848361209591906133c6565b346120a09190613173565b9081150290604051600060405180830381858888f193505050501580156120cb573d6000803e3d6000fd5b505b50505050505050565b6000600660003373ffffffffffffffffffffffffffffffffffffffff1673ffffffffffffffffffffffffffffffffffffffff168152602001908152602001600020549050612123836106b2565b5060008373ffffffffffffffffffffffffffffffffffffffff166318160ddd6040518163ffffffff1660e01b8152600401602060405180830381865afa158015612171573d6000803e3d6000fd5b505050506040513d601f19601f820116820180604052508101906121959190612c23565b116121d5576040517f08c379a00000000000000000000000000000000000000000000000000000000081526004016121cc90612cad565b60405180910390fd5b3373ffffffffffffffffffffffffffffffffffffffff1660008083815260200190815260200160002060009054906101000a900473ffffffffffffffffffffffffffffffffffffffff1673ffffffffffffffffffffffffffffffffffffffff1614612275576040517f08c379a000000000000000000000000000000000000000000000000000000000815260040161226c90612d3f565b60405180910390fd5b600115156005600083815260200190815260200160002060008573ffffffffffffffffffffffffffffffffffffffff1673ffffffffffffffffffffffffffffffffffffffff16815260200190815260200160002060009054906101000a900460ff16151514612319576040517f08c379a0000000000000000000000000000000000000000000000000000000008152600401612310906137ea565b60405180910390fd5b60008373ffffffffffffffffffffffffffffffffffffffff166370a08231336040518263ffffffff1660e01b8152600401612354919061295e565b602060405180830381865afa158015612371573d6000803e3d6000fd5b505050506040513d601f19601f820116820180604052508101906123959190612c23565b9050808311156123da576040517f08c379a00000000000000000000000000000000000000000000000000000000081526004016123d19061387c565b60405180910390fd5b60008473ffffffffffffffffffffffffffffffffffffffff1663dd62ed3e33306040518363ffffffff1660e01b815260040161241792919061389c565b602060405180830381865afa158015612434573d6000803e3d6000fd5b505050506040513d601f19601f820116820180604052508101906124589190612c23565b90508381101561249d576040517f08c379a000000000000000000000000000000000000000000000000000000000815260040161249490613937565b60405180910390fd5b600760008673ffffffffffffffffffffffffffffffffffffffff1673ffffffffffffffffffffffffffffffffffffffff16815260200190815260200160002060405180604001604052803373ffffffffffffffffffffffffffffffffffffffff16815260200186815250908060018154018082558091505060019003906000526020600020906002020160009091909190915060008201518160000160006101000a81548173ffffffffffffffffffffffffffffffffffffffff021916908373ffffffffffffffffffffffffffffffffffffffff16021790555060208201518160010155505083600860008773ffffffffffffffffffffffffffffffffffffffff1673ffffffffffffffffffffffffffffffffffffffff16815260200190815260200160002060008282546125d29190612f8a565b925050819055505050505050565b60056020528160005260406000206020528060005260406000206000915091509054906101000a900460ff1681565b60036020528160005260406000206020528060005260406000206000915091509054906101000a900460ff1681565b60008373ffffffffffffffffffffffffffffffffffffffff168373ffffffffffffffffffffffffffffffffffffffff1614806127005750600360008573ffffffffffffffffffffffffffffffffffffffff1673ffffffffffffffffffffffffffffffffffffffff16815260200190815260200160002060008473ffffffffffffffffffffffffffffffffffffffff1673ffffffffffffffffffffffffffffffffffffffff16815260200190815260200160002060009054906101000a900460ff165b8061276957506002600083815260200190815260200160002060009054906101000a900473ffffffffffffffffffffffffffffffffffffffff1673ffffffffffffffffffffffffffffffffffffffff168373ffffffffffffffffffffffffffffffffffffffff16145b90509392505050565b600080fd5b600080fd5b600073ffffffffffffffffffffffffffffffffffffffff82169050919050565b60006127a78261277c565b9050919050565b6127b78161279c565b81146127c257600080fd5b50565b6000813590506127d4816127ae565b92915050565b6000602082840312156127f0576127ef612772565b5b60006127fe848285016127c5565b91505092915050565b6000819050919050565b61281a81612807565b82525050565b60006020820190506128356000830184612811565b92915050565b60007fffffffff0000000000000000000000000000000000000000000000000000000082169050919050565b6128708161283b565b811461287b57600080fd5b50565b60008135905061288d81612867565b92915050565b6000602082840312156128a9576128a8612772565b5b60006128b78482850161287e565b91505092915050565b60008115159050919050565b6128d5816128c0565b82525050565b60006020820190506128f060008301846128cc565b92915050565b6128ff81612807565b811461290a57600080fd5b50565b60008135905061291c816128f6565b92915050565b60006020828403121561293857612937612772565b5b60006129468482850161290d565b91505092915050565b6129588161279c565b82525050565b6000602082019050612973600083018461294f565b92915050565b600080604083850312156129905761298f612772565b5b600061299e858286016127c5565b92505060206129af8582860161290d565b9150509250929050565b6000806000606084860312156129d2576129d1612772565b5b60006129e0868287016127c5565b93505060206129f1868287016127c5565b9250506040612a028682870161290d565b9150509250925092565b6000604082019050612a21600083018561294f565b612a2e6020830184612811565b9392505050565b612a3e816128c0565b8114612a4957600080fd5b50565b600081359050612a5b81612a35565b92915050565b60008060408385031215612a7857612a77612772565b5b6000612a86858286016127c5565b9250506020612a9785828601612a4c565b9150509250929050565b600080fd5b600080fd5b600080fd5b60008083601f840112612ac657612ac5612aa1565b5b8235905067ffffffffffffffff811115612ae357612ae2612aa6565b5b602083019150836001820283011115612aff57612afe612aab565b5b9250929050565b600080600080600060808688031215612b2257612b21612772565b5b6000612b30888289016127c5565b9550506020612b41888289016127c5565b9450506040612b528882890161290d565b935050606086013567ffffffffffffffff811115612b7357612b72612777565b5b612b7f88828901612ab0565b92509250509295509295909350565b60008060408385031215612ba557612ba4612772565b5b6000612bb38582860161290d565b9250506020612bc4858286016127c5565b9150509250929050565b60008060408385031215612be557612be4612772565b5b6000612bf3858286016127c5565b9250506020612c04858286016127c5565b9150509250929050565b600081519050612c1d816128f6565b92915050565b600060208284031215612c3957612c38612772565b5b6000612c4784828501612c0e565b91505092915050565b600082825260208201905092915050565b7f496e76616c6964204552432d323020636f6e7472616374000000000000000000600082015250565b6000612c97601783612c50565b9150612ca282612c61565b602082019050919050565b60006020820190508181036000830152612cc681612c8a565b9050919050565b7f796f7520617265206e6f7420746865206f776e6572206f66207468697320706f60008201527f7274666f6c696f21000000000000000000000000000000000000000000000000602082015250565b6000612d29602883612c50565b9150612d3482612ccd565b604082019050919050565b60006020820190508181036000830152612d5881612d1c565b9050919050565b7f796f7520646f6e74206f776e20616e792073746f636b20696e2074686973206360008201527f6f6d70616e792021210000000000000000000000000000000000000000000000602082015250565b6000612dbb602983612c50565b9150612dc682612d5f565b604082019050919050565b60006020820190508181036000830152612dea81612dae565b9050919050565b7f746f6b656e20646f65736e277420657869737400000000000000000000000000600082015250565b6000612e27601383612c50565b9150612e3282612df1565b602082019050919050565b60006020820190508181036000830152612e5681612e1a565b9050919050565b7f6e6f7420617574686f72697a6564000000000000000000000000000000000000600082015250565b6000612e93600e83612c50565b9150612e9e82612e5d565b602082019050919050565b60006020820190508181036000830152612ec281612e86565b9050919050565b7f796f75206861766520616c726561647920616c7265616479206d696e7465642060008201527f796f757220706f7274666f6c696f202100000000000000000000000000000000602082015250565b6000612f25603083612c50565b9150612f3082612ec9565b604082019050919050565b60006020820190508181036000830152612f5481612f18565b9050919050565b7f4e487b7100000000000000000000000000000000000000000000000000000000600052601160045260246000fd5b6000612f9582612807565b9150612fa083612807565b9250828201905080821115612fb857612fb7612f5b565b5b92915050565b6000612fc982612807565b91507fffffffffffffffffffffffffffffffffffffffffffffffffffffffffffffffff8203612ffb57612ffa612f5b565b5b600182019050919050565b7f66726f6d20213d206f776e657200000000000000000000000000000000000000600082015250565b600061303c600d83612c50565b915061304782613006565b602082019050919050565b6000602082019050818103600083015261306b8161302f565b9050919050565b7f7472616e7366657220746f207a65726f20616464726573730000000000000000600082015250565b60006130a8601883612c50565b91506130b382613072565b602082019050919050565b600060208201905081810360008301526130d78161309b565b9050919050565b60006130e982612807565b9150600082036130fc576130fb612f5b565b5b600182039050919050565b7f496e76616c6964206c697374696e6720696e6465780000000000000000000000600082015250565b600061313d601583612c50565b915061314882613107565b602082019050919050565b6000602082019050818103600083015261316c81613130565b9050919050565b600061317e82612807565b915061318983612807565b92508282039050818111156131a1576131a0612f5b565b5b92915050565b7f4e487b7100000000000000000000000000000000000000000000000000000000600052603260045260246000fd5b7f4e487b7100000000000000000000000000000000000000000000000000000000600052603160045260246000fd5b600082825260208201905092915050565b50565b6000613226600083613205565b915061323182613216565b600082019050919050565b6000608082019050613251600083018661294f565b61325e602083018561294f565b61326b6040830184612811565b818103606083015261327c81613219565b9050949350505050565b60008151905061329581612867565b92915050565b6000602082840312156132b1576132b0612772565b5b60006132bf84828501613286565b91505092915050565b7f756e7361666520726563697069656e7400000000000000000000000000000000600082015250565b60006132fe601083612c50565b9150613309826132c8565b602082019050919050565b6000602082019050818103600083015261332d816132f1565b9050919050565b7f736f727279202c206e6f7420656e6f7567682073746f636b206861732062656560008201527f6e206c697374656420757020666f722073616c65000000000000000000000000602082015250565b6000613390603483612c50565b915061339b82613334565b604082019050919050565b600060208201905081810360008301526133bf81613383565b9050919050565b60006133d182612807565b91506133dc83612807565b92508282026133ea81612807565b9150828204841483151761340157613400612f5b565b5b5092915050565b7f6f776e6572203d207a65726f2061646472657373000000000000000000000000600082015250565b600061343e601483612c50565b915061344982613408565b602082019050919050565b6000602082019050818103600083015261346d81613431565b9050919050565b82818337600083830152505050565b6000601f19601f8301169050919050565b60006134a08385613205565b93506134ad838584613474565b6134b683613483565b840190509392505050565b60006080820190506134d6600083018861294f565b6134e3602083018761294f565b6134f06040830186612811565b8181036060830152613503818486613494565b90509695505050505050565b7f4e6f7420656e6f7567682073746f636b20617661696c61626c6520666f72207360008201527f616c650000000000000000000000000000000000000000000000000000000000602082015250565b600061356b602383612c50565b91506135768261350f565b604082019050919050565b6000602082019050818103600083015261359a8161355e565b9050919050565b7f596f7520617265206e6f7420746865206f776e6572206f66207468697320706f60008201527f7274666f6c696f21000000000000000000000000000000000000000000000000602082015250565b60006135fd602883612c50565b9150613608826135a1565b604082019050919050565b6000602082019050818103600083015261362c816135f0565b9050919050565b7f496e73756666696369656e74207061796d656e74000000000000000000000000600082015250565b6000613669601483612c50565b915061367482613633565b602082019050919050565b600060208201905081810360008301526136988161365c565b9050919050565b60006060820190506136b4600083018661294f565b6136c1602083018561294f565b6136ce6040830184612811565b949350505050565b6000815190506136e581612a35565b92915050565b60006020828403121561370157613700612772565b5b600061370f848285016136d6565b91505092915050565b7f4e487b7100000000000000000000000000000000000000000000000000000000600052601260045260246000fd5b600061375282612807565b915061375d83612807565b92508261376d5761376c613718565b5b828204905092915050565b7f796f757220706f7274666f6c696f28746f6b656e6e49442920686173206e6f2060008201527f73746f636b207468697320636f6d70616e790000000000000000000000000000602082015250565b60006137d4603283612c50565b91506137df82613778565b604082019050919050565b60006020820190508181036000830152613803816137c7565b9050919050565b7f796f752063616e74206c697374206d6f72652073746f636b207468616e20796f60008201527f75206f776e20696e2074686520636f6d70616e79212100000000000000000000602082015250565b6000613866603683612c50565b91506138718261380a565b604082019050919050565b6000602082019050818103600083015261389581613859565b9050919050565b60006040820190506138b1600083018561294f565b6138be602083018461294f565b9392505050565b7f6e6f7420656e6f7567682073746f636b20697320617574686f72697a6564207460008201527f6f20626520736f6c640000000000000000000000000000000000000000000000602082015250565b6000613921602983612c50565b915061392c826138c5565b604082019050919050565b6000602082019050818103600083015261395081613914565b905091905056fea2646970667358221220afe6a5d18cd9161e43513b7191355773f9e642da2732069a7997448fdf286e7064736f6c634300081c0033",
  "linkReferences": {},
  "deployedLinkReferences": {}
}