{
  "_format": "hh-sol-artifact-1",
  "contractName": "portfolio",
  "sourceName": "contracts/portfolio.sol",
  "abi": [
    {
      "inputs": [
        {
          "internalType": "address",
          "name": "paymentTokenAddress",
          "type": "address"
        }
      ],
      "stateMutability": "nonpayable",
      "type": "constructor"
    },
    {
      "anonymous": false,
      "inputs": [
        {
          "indexed": true,
          "internalType": "address",
          "name": "owner",
          "type": "address"
        },
        {
          "indexed": true,
          "internalType": "address",
          "name": "spender",
          "type": "address"
        },
        {
          "indexed": true,
          "internalType": "uint256",
          "name": "id",
          "type": "uint256"
        }
      ],
      "name": "Approval",
      "type": "event"
    },
    {
      "anonymous": false,
      "inputs": [
        {
          "indexed": true,
          "internalType": "address",
          "name": "owner",
          "type": "address"
        },
        {
          "indexed": true,
          "internalType": "address",
          "name": "operator",
          "type": "address"
        },
        {
          "indexed": false,
          "internalType": "bool",
          "name": "approved",
          "type": "bool"
        }
      ],
      "name": "ApprovalForAll",
      "type": "event"
    },
    {
      "anonymous": false,
      "inputs": [
        {
          "indexed": true,
          "internalType": "address",
          "name": "seller",
          "type": "address"
        },
        {
          "indexed": true,
          "internalType": "uint256",
          "name": "tokenId",
          "type": "uint256"
        }
      ],
      "name": "PortfolioListed",
      "type": "event"
    },
    {
      "anonymous": false,
      "inputs": [
        {
          "indexed": true,
          "internalType": "address",
          "name": "buyer",
          "type": "address"
        },
        {
          "indexed": true,
          "internalType": "address",
          "name": "seller",
          "type": "address"
        },
        {
          "indexed": true,
          "internalType": "uint256",
          "name": "tokenId",
          "type": "uint256"
        },
        {
          "indexed": false,
          "internalType": "address",
          "name": "stockToken",
          "type": "address"
        },
        {
          "indexed": false,
          "internalType": "uint256",
          "name": "count",
          "type": "uint256"
        },
        {
          "indexed": false,
          "internalType": "uint256",
          "name": "unitPrice",
          "type": "uint256"
        },
        {
          "indexed": false,
          "internalType": "uint256",
          "name": "totalPrice",
          "type": "uint256"
        }
      ],
      "name": "PortfolioTradeItem",
      "type": "event"
    },
    {
      "anonymous": false,
      "inputs": [
        {
          "indexed": true,
          "internalType": "address",
          "name": "buyer",
          "type": "address"
        },
        {
          "indexed": true,
          "internalType": "address",
          "name": "seller",
          "type": "address"
        },
        {
          "indexed": true,
          "internalType": "uint256",
          "name": "tokenId",
          "type": "uint256"
        },
        {
          "indexed": false,
          "internalType": "uint256",
          "name": "totalPrice",
          "type": "uint256"
        }
      ],
      "name": "PortfolioTraded",
      "type": "event"
    },
    {
      "anonymous": false,
      "inputs": [
        {
          "indexed": true,
          "internalType": "address",
          "name": "seller",
          "type": "address"
        },
        {
          "indexed": true,
          "internalType": "address",
          "name": "stockToken",
          "type": "address"
        },
        {
          "indexed": false,
          "internalType": "uint256",
          "name": "count",
          "type": "uint256"
        }
      ],
      "name": "StockListed",
      "type": "event"
    },
    {
      "anonymous": false,
      "inputs": [
        {
          "indexed": true,
          "internalType": "address",
          "name": "stockFtAddress",
          "type": "address"
        },
        {
          "indexed": true,
          "internalType": "address",
          "name": "seller",
          "type": "address"
        }
      ],
      "name": "StockListingDelisted",
      "type": "event"
    },
    {
      "anonymous": false,
      "inputs": [
        {
          "indexed": true,
          "internalType": "address",
          "name": "buyer",
          "type": "address"
        },
        {
          "indexed": true,
          "internalType": "address",
          "name": "seller",
          "type": "address"
        },
        {
          "indexed": true,
          "internalType": "address",
          "name": "stockToken",
          "type": "address"
        },
        {
          "indexed": false,
          "internalType": "uint256",
          "name": "count",
          "type": "uint256"
        },
        {
          "indexed": false,
          "internalType": "uint256",
          "name": "unitPrice",
          "type": "uint256"
        },
        {
          "indexed": false,
          "internalType": "uint256",
          "name": "totalPrice",
          "type": "uint256"
        }
      ],
      "name": "StockTraded",
      "type": "event"
    },
    {
      "anonymous": false,
      "inputs": [
        {
          "indexed": true,
          "internalType": "address",
          "name": "from",
          "type": "address"
        },
        {
          "indexed": true,
          "internalType": "address",
          "name": "to",
          "type": "address"
        },
        {
          "indexed": true,
          "internalType": "uint256",
          "name": "id",
          "type": "uint256"
        }
      ],
      "name": "Transfer",
      "type": "event"
    },
    {
      "inputs": [
        {
          "internalType": "uint256",
          "name": "",
          "type": "uint256"
        }
      ],
      "name": "_isPortfolioForSale",
      "outputs": [
        {
          "internalType": "bool",
          "name": "",
          "type": "bool"
        }
      ],
      "stateMutability": "view",
      "type": "function"
    },
    {
      "inputs": [
        {
          "internalType": "uint256",
          "name": "",
          "type": "uint256"
        }
      ],
      "name": "_listedPortfolioOwner",
      "outputs": [
        {
          "internalType": "address",
          "name": "",
          "type": "address"
        }
      ],
      "stateMutability": "view",
      "type": "function"
    },
    {
      "inputs": [
        {
          "internalType": "address",
          "name": "",
          "type": "address"
        }
      ],
      "name": "_ownedToken",
      "outputs": [
        {
          "internalType": "uint256",
          "name": "",
          "type": "uint256"
        }
      ],
      "stateMutability": "view",
      "type": "function"
    },
    {
      "inputs": [
        {
          "internalType": "address",
          "name": "",
          "type": "address"
        },
        {
          "internalType": "uint256",
          "name": "",
          "type": "uint256"
        }
      ],
      "name": "_stocksForSale",
      "outputs": [
        {
          "internalType": "address",
          "name": "seller",
          "type": "address"
        },
        {
          "internalType": "uint256",
          "name": "count",
          "type": "uint256"
        }
      ],
      "stateMutability": "view",
      "type": "function"
    },
    {
      "inputs": [
        {
          "internalType": "uint256",
          "name": "",
          "type": "uint256"
        },
        {
          "internalType": "address",
          "name": "",
          "type": "address"
        }
      ],
      "name": "_tokenHasStock",
      "outputs": [
        {
          "internalType": "bool",
          "name": "",
          "type": "bool"
        }
      ],
      "stateMutability": "view",
      "type": "function"
    },
    {
      "inputs": [
        {
          "internalType": "uint256",
          "name": "",
          "type": "uint256"
        },
        {
          "internalType": "uint256",
          "name": "",
          "type": "uint256"
        }
      ],
      "name": "_tokenStockAddresses",
      "outputs": [
        {
          "internalType": "address",
          "name": "",
          "type": "address"
        }
      ],
      "stateMutability": "view",
      "type": "function"
    },
    {
      "inputs": [
        {
          "internalType": "address",
          "name": "",
          "type": "address"
        }
      ],
      "name": "_totalSellCount",
      "outputs": [
        {
          "internalType": "uint256",
          "name": "",
          "type": "uint256"
        }
      ],
      "stateMutability": "view",
      "type": "function"
    },
    {
      "inputs": [
        {
          "internalType": "address",
          "name": "",
          "type": "address"
        },
        {
          "internalType": "address",
          "name": "",
          "type": "address"
        }
      ],
      "name": "_userListedStocks",
      "outputs": [
        {
          "internalType": "uint256",
          "name": "",
          "type": "uint256"
        }
      ],
      "stateMutability": "view",
      "type": "function"
    },
    {
      "inputs": [
        {
          "internalType": "address",
          "name": "spender",
          "type": "address"
        },
        {
          "internalType": "uint256",
          "name": "id",
          "type": "uint256"
        }
      ],
      "name": "approve",
      "outputs": [],
      "stateMutability": "nonpayable",
      "type": "function"
    },
    {
      "inputs": [
        {
          "internalType": "address",
          "name": "owner",
          "type": "address"
        }
      ],
      "name": "balanceOf",
      "outputs": [
        {
          "internalType": "uint256",
          "name": "",
          "type": "uint256"
        }
      ],
      "stateMutability": "view",
      "type": "function"
    },
    {
      "inputs": [
        {
          "internalType": "address",
          "name": "stockFtAddress",
          "type": "address"
        },
        {
          "internalType": "uint256",
          "name": "count",
          "type": "uint256"
        }
      ],
      "name": "buy",
      "outputs": [],
      "stateMutability": "nonpayable",
      "type": "function"
    },
    {
      "inputs": [
        {
          "internalType": "uint256",
          "name": "token_id",
          "type": "uint256"
        }
      ],
      "name": "buyPortfolio",
      "outputs": [],
      "stateMutability": "nonpayable",
      "type": "function"
    },
    {
      "inputs": [
        {
          "internalType": "address",
          "name": "stockFtAddress",
          "type": "address"
        }
      ],
      "name": "getAPrice",
      "outputs": [
        {
          "internalType": "uint256",
          "name": "",
          "type": "uint256"
        }
      ],
      "stateMutability": "pure",
      "type": "function"
    },
    {
      "inputs": [
        {
          "internalType": "uint256",
          "name": "id",
          "type": "uint256"
        }
      ],
      "name": "getApproved",
      "outputs": [
        {
          "internalType": "address",
          "name": "",
          "type": "address"
        }
      ],
      "stateMutability": "view",
      "type": "function"
    },
    {
      "inputs": [
        {
          "internalType": "address",
          "name": "stockFtAddress",
          "type": "address"
        },
        {
          "internalType": "uint256",
          "name": "count",
          "type": "uint256"
        }
      ],
      "name": "getPrice",
      "outputs": [
        {
          "internalType": "uint256",
          "name": "",
          "type": "uint256"
        }
      ],
      "stateMutability": "view",
      "type": "function"
    },
    {
      "inputs": [
        {
          "internalType": "address",
          "name": "stockAddress",
          "type": "address"
        }
      ],
      "name": "getStockListingsLength",
      "outputs": [
        {
          "internalType": "uint256",
          "name": "",
          "type": "uint256"
        }
      ],
      "stateMutability": "view",
      "type": "function"
    },
    {
      "inputs": [
        {
          "internalType": "uint256",
          "name": "tokenId",
          "type": "uint256"
        }
      ],
      "name": "getTokenStockAddresses",
      "outputs": [
        {
          "internalType": "address[]",
          "name": "",
          "type": "address[]"
        }
      ],
      "stateMutability": "view",
      "type": "function"
    },
    {
      "inputs": [
        {
          "internalType": "address",
          "name": "",
          "type": "address"
        },
        {
          "internalType": "address",
          "name": "",
          "type": "address"
        }
      ],
      "name": "isApprovedForAll",
      "outputs": [
        {
          "internalType": "bool",
          "name": "",
          "type": "bool"
        }
      ],
      "stateMutability": "view",
      "type": "function"
    },
    {
      "inputs": [],
      "name": "listPortfolioToSell",
      "outputs": [],
      "stateMutability": "nonpayable",
      "type": "function"
    },
    {
      "inputs": [
        {
          "internalType": "address",
          "name": "stockFtAddress",
          "type": "address"
        },
        {
          "internalType": "uint256",
          "name": "count",
          "type": "uint256"
        }
      ],
      "name": "list_stock_to_sell",
      "outputs": [],
      "stateMutability": "nonpayable",
      "type": "function"
    },
    {
      "inputs": [],
      "name": "mint",
      "outputs": [],
      "stateMutability": "nonpayable",
      "type": "function"
    },
    {
      "inputs": [
        {
          "internalType": "address",
          "name": "from",
          "type": "address"
        },
        {
          "internalType": "address",
          "name": "to",
          "type": "address"
        },
        {
          "internalType": "uint256",
          "name": "id",
          "type": "uint256"
        }
      ],
      "name": "myTransferFrom",
      "outputs": [],
      "stateMutability": "nonpayable",
      "type": "function"
    },
    {
      "inputs": [],
      "name": "name",
      "outputs": [
        {
          "internalType": "string",
          "name": "",
          "type": "string"
        }
      ],
      "stateMutability": "view",
      "type": "function"
    },
    {
      "inputs": [
        {
          "internalType": "uint256",
          "name": "id",
          "type": "uint256"
        }
      ],
      "name": "ownerOf",
      "outputs": [
        {
          "internalType": "address",
          "name": "owner",
          "type": "address"
        }
      ],
      "stateMutability": "view",
      "type": "function"
    },
    {
      "inputs": [
        {
          "internalType": "address",
          "name": "from",
          "type": "address"
        },
        {
          "internalType": "address",
          "name": "to",
          "type": "address"
        },
        {
          "internalType": "uint256",
          "name": "id",
          "type": "uint256"
        }
      ],
      "name": "safeTransferFrom",
      "outputs": [],
      "stateMutability": "nonpayable",
      "type": "function"
    },
    {
      "inputs": [
        {
          "internalType": "address",
          "name": "from",
          "type": "address"
        },
        {
          "internalType": "address",
          "name": "to",
          "type": "address"
        },
        {
          "internalType": "uint256",
          "name": "id",
          "type": "uint256"
        },
        {
          "internalType": "bytes",
          "name": "data",
          "type": "bytes"
        }
      ],
      "name": "safeTransferFrom",
      "outputs": [],
      "stateMutability": "nonpayable",
      "type": "function"
    },
    {
      "inputs": [
        {
          "internalType": "address",
          "name": "operator",
          "type": "address"
        },
        {
          "internalType": "bool",
          "name": "approved",
          "type": "bool"
        }
      ],
      "name": "setApprovalForAll",
      "outputs": [],
      "stateMutability": "nonpayable",
      "type": "function"
    },
    {
      "inputs": [
        {
          "internalType": "bytes4",
          "name": "interfaceId",
          "type": "bytes4"
        }
      ],
      "name": "supportsInterface",
      "outputs": [
        {
          "internalType": "bool",
          "name": "",
          "type": "bool"
        }
      ],
      "stateMutability": "pure",
      "type": "function"
    },
    {
      "inputs": [],
      "name": "symbol",
      "outputs": [
        {
          "internalType": "string",
          "name": "",
          "type": "string"
        }
      ],
      "stateMutability": "view",
      "type": "function"
    },
    {
      "inputs": [],
      "name": "tokenCount",
      "outputs": [
        {
          "internalType": "uint256",
          "name": "",
          "type": "uint256"
        }
      ],
      "stateMutability": "view",
      "type": "function"
    },
    {
      "inputs": [
        {
          "internalType": "uint256",
          "name": "tokenId",
          "type": "uint256"
        }
      ],
      "name": "tokenURI",
      "outputs": [
        {
          "internalType": "string",
          "name": "",
          "type": "string"
        }
      ],
      "stateMutability": "view",
      "type": "function"
    },
    {
      "inputs": [
        {
          "internalType": "address",
          "name": "from",
          "type": "address"
        },
        {
          "internalType": "address",
          "name": "to",
          "type": "address"
        },
        {
          "internalType": "uint256",
          "name": "id",
          "type": "uint256"
        }
      ],
      "name": "transferFrom",
      "outputs": [],
      "stateMutability": "nonpayable",
      "type": "function"
    },
    {
      "inputs": [
        {
          "internalType": "address",
          "name": "stockFtAddress",
          "type": "address"
        }
      ],
      "name": "updatePortfolio",
      "outputs": [
        {
          "internalType": "uint256",
          "name": "",
          "type": "uint256"
        }
      ],
      "stateMutability": "nonpayable",
      "type": "function"
    }
  ],
  "bytecode": "0x608060405234801561001057600080fd5b50604051615dc8380380615dc8833981810160405281019061003291906100e4565b600060048190555080600760006101000a81548173ffffffffffffffffffffffffffffffffffffffff021916908373ffffffffffffffffffffffffffffffffffffffff16021790555050610111565b600080fd5b600073ffffffffffffffffffffffffffffffffffffffff82169050919050565b60006100b182610086565b9050919050565b6100c1816100a6565b81146100cc57600080fd5b50565b6000815190506100de816100b8565b92915050565b6000602082840312156100fa576100f9610081565b5b6000610108848285016100cf565b91505092915050565b615ca8806101206000396000f3fe608060405234801561001057600080fd5b50600436106101fb5760003560e01c80636352211e1161011a578063a22cb465116100ad578063cce7ec131161007c578063cce7ec1314610633578063d24b20f51461064f578063d2863e751461066b578063d7305c831461069b578063e985e9c5146106cb576101fb565b8063a22cb465146105af578063afb21f2f146105cb578063b88d4fde146105e7578063c87b56dd14610603576101fb565b806385ad5085116100e957806385ad50851461051257806395d89b41146105425780639b232ab0146105605780639f181b5e14610591576101fb565b80636352211e146104525780636c13e6511461048257806370a08231146104b257806373bd5bb4146104e2576101fb565b80631249c58b11610192578063449e815d11610161578063449e815d1461039257806356724115146103c257806356a8c117146103f25780635ba5f51014610422576101fb565b80631249c58b1461034657806312e67db41461035057806323b872dd1461035a57806342842e0e14610376576101fb565b8063078a235e116101ce578063078a235e1461029a578063081812fc146102ca578063095ea7b3146102fa5780630dbf53e814610316576101fb565b8063016e44e7146102005780630175b22f1461023057806301ffc9a71461024c57806306fdde031461027c575b600080fd5b61021a60048036038101906102159190614389565b6106fb565b60405161022791906143cf565b60405180910390f35b61024a60048036038101906102459190614416565b610747565b005b610266600480360381019061026191906144c1565b6109b1565b6040516102739190614509565b60405180910390f35b610284610a83565b60405161029191906145b4565b60405180910390f35b6102b460048036038101906102af9190614389565b610ac0565b6040516102c191906143cf565b60405180910390f35b6102e460048036038101906102df91906145d6565b610e68565b6040516102f19190614612565b60405180910390f35b610314600480360381019061030f919061462d565b610f45565b005b610330600480360381019061032b91906145d6565b61112d565b60405161033d9190614612565b60405180910390f35b61034e611160565b005b610358611345565b005b610374600480360381019061036f9190614416565b611555565b005b610390600480360381019061038b9190614416565b61183f565b005b6103ac60048036038101906103a7919061462d565b611977565b6040516103b991906143cf565b60405180910390f35b6103dc60048036038101906103d791906145d6565b611ac6565b6040516103e99190614509565b60405180910390f35b61040c600480360381019061040791906145d6565b611ae6565b604051610419919061472b565b60405180910390f35b61043c6004803603810190610437919061474d565b611be0565b60405161044991906143cf565b60405180910390f35b61046c600480360381019061046791906145d6565b611c05565b6040516104799190614612565b60405180910390f35b61049c60048036038101906104979190614389565b611cb0565b6040516104a991906143cf565b60405180910390f35b6104cc60048036038101906104c79190614389565b611cc8565b6040516104d991906143cf565b60405180910390f35b6104fc60048036038101906104f79190614389565b611d7f565b60405161050991906143cf565b60405180910390f35b61052c60048036038101906105279190614389565b611dfe565b60405161053991906143cf565b60405180910390f35b61054a611e16565b60405161055791906145b4565b60405180910390f35b61057a6004803603810190610575919061462d565b611e53565b60405161058892919061478d565b60405180910390f35b610599611eb4565b6040516105a691906143cf565b60405180910390f35b6105c960048036038101906105c491906147e2565b611eba565b005b6105e560048036038101906105e091906145d6565b611fb7565b005b61060160048036038101906105fc9190614887565b612865565b005b61061d600480360381019061061891906145d6565b6129a3565b60405161062a91906145b4565b60405180910390f35b61064d6004803603810190610648919061462d565b612a66565b005b6106696004803603810190610664919061462d565b613591565b005b6106856004803603810190610680919061490f565b613cc4565b6040516106929190614509565b60405180910390f35b6106b560048036038101906106b0919061494f565b613cf3565b6040516106c29190614612565b60405180910390f35b6106e560048036038101906106e0919061474d565b613d41565b6040516106f29190614509565b60405180910390f35b6000600860008373ffffffffffffffffffffffffffffffffffffffff1673ffffffffffffffffffffffffffffffffffffffff168152602001908152602001600020805490509050919050565b60008082815260200190815260200160002060009054906101000a900473ffffffffffffffffffffffffffffffffffffffff1673ffffffffffffffffffffffffffffffffffffffff168373ffffffffffffffffffffffffffffffffffffffff16146107e7576040517f08c379a00000000000000000000000000000000000000000000000000000000081526004016107de906149db565b60405180910390fd5b600073ffffffffffffffffffffffffffffffffffffffff168273ffffffffffffffffffffffffffffffffffffffff1603610856576040517f08c379a000000000000000000000000000000000000000000000000000000000815260040161084d90614a47565b60405180910390fd5b600160008473ffffffffffffffffffffffffffffffffffffffff1673ffffffffffffffffffffffffffffffffffffffff16815260200190815260200160002060008154809291906108a690614a96565b9190505550600160008373ffffffffffffffffffffffffffffffffffffffff1673ffffffffffffffffffffffffffffffffffffffff16815260200190815260200160002060008154809291906108fb90614abf565b91905055508160008083815260200190815260200160002060006101000a81548173ffffffffffffffffffffffffffffffffffffffff021916908373ffffffffffffffffffffffffffffffffffffffff160217905550808273ffffffffffffffffffffffffffffffffffffffff168473ffffffffffffffffffffffffffffffffffffffff167fddf252ad1be2c89b69c2b068fc378daa952ba7f163c4a11628f55a4df523b3ef60405160405180910390a4505050565b60007f80ac58cd000000000000000000000000000000000000000000000000000000007bffffffffffffffffffffffffffffffffffffffffffffffffffffffff1916827bffffffffffffffffffffffffffffffffffffffffffffffffffffffff19161480610a7c57507f01ffc9a7000000000000000000000000000000000000000000000000000000007bffffffffffffffffffffffffffffffffffffffffffffffffffffffff1916827bffffffffffffffffffffffffffffffffffffffffffffffffffffffff1916145b9050919050565b60606040518060400160405280600a81526020017f426c6f636b666f6c696f00000000000000000000000000000000000000000000815250905090565b6000808273ffffffffffffffffffffffffffffffffffffffff166318160ddd6040518163ffffffff1660e01b8152600401602060405180830381865afa158015610b0e573d6000803e3d6000fd5b505050506040513d601f19601f82011682018060405250810190610b329190614b1c565b11610b72576040517f08c379a0000000000000000000000000000000000000000000000000000000008152600401610b6990614b95565b60405180910390fd5b6000600660003373ffffffffffffffffffffffffffffffffffffffff1673ffffffffffffffffffffffffffffffffffffffff1681526020019081526020016000205490503373ffffffffffffffffffffffffffffffffffffffff1660008083815260200190815260200160002060009054906101000a900473ffffffffffffffffffffffffffffffffffffffff1673ffffffffffffffffffffffffffffffffffffffff1614610c56576040517f08c379a0000000000000000000000000000000000000000000000000000000008152600401610c4d90614c27565b60405180910390fd5b60008373ffffffffffffffffffffffffffffffffffffffff166370a08231336040518263ffffffff1660e01b8152600401610c919190614612565b602060405180830381865afa158015610cae573d6000803e3d6000fd5b505050506040513d601f19601f82011682018060405250810190610cd29190614b1c565b905060008111610d17576040517f08c379a0000000000000000000000000000000000000000000000000000000008152600401610d0e90614cb9565b60405180910390fd5b600115156005600084815260200190815260200160002060008673ffffffffffffffffffffffffffffffffffffffff1673ffffffffffffffffffffffffffffffffffffffff16815260200190815260200160002060009054906101000a900460ff16151514610e5e5760016005600084815260200190815260200160002060008673ffffffffffffffffffffffffffffffffffffffff1673ffffffffffffffffffffffffffffffffffffffff16815260200190815260200160002060006101000a81548160ff021916908315150217905550600c6000838152602001908152602001600020849080600181540180825580915050600190039060005260206000200160009091909190916101000a81548173ffffffffffffffffffffffffffffffffffffffff021916908373ffffffffffffffffffffffffffffffffffffffff1602179055505b8092505050919050565b60008073ffffffffffffffffffffffffffffffffffffffff1660008084815260200190815260200160002060009054906101000a900473ffffffffffffffffffffffffffffffffffffffff1673ffffffffffffffffffffffffffffffffffffffff1603610f0a576040517f08c379a0000000000000000000000000000000000000000000000000000000008152600401610f0190614d25565b60405180910390fd5b6002600083815260200190815260200160002060009054906101000a900473ffffffffffffffffffffffffffffffffffffffff169050919050565b600080600083815260200190815260200160002060009054906101000a900473ffffffffffffffffffffffffffffffffffffffff1690508073ffffffffffffffffffffffffffffffffffffffff163373ffffffffffffffffffffffffffffffffffffffff16148061103c5750600360008273ffffffffffffffffffffffffffffffffffffffff1673ffffffffffffffffffffffffffffffffffffffff16815260200190815260200160002060003373ffffffffffffffffffffffffffffffffffffffff1673ffffffffffffffffffffffffffffffffffffffff16815260200190815260200160002060009054906101000a900460ff165b61107b576040517f08c379a000000000000000000000000000000000000000000000000000000000815260040161107290614d91565b60405180910390fd5b826002600084815260200190815260200160002060006101000a81548173ffffffffffffffffffffffffffffffffffffffff021916908373ffffffffffffffffffffffffffffffffffffffff160217905550818373ffffffffffffffffffffffffffffffffffffffff168273ffffffffffffffffffffffffffffffffffffffff167f8c5be1e5ebec7d5bd14f71427d1e84f3dd0314c0f7b2291e5b200ac8c7c3b92560405160405180910390a4505050565b600d6020528060005260406000206000915054906101000a900473ffffffffffffffffffffffffffffffffffffffff1681565b6000600160003373ffffffffffffffffffffffffffffffffffffffff1673ffffffffffffffffffffffffffffffffffffffff16815260200190815260200160002054146111e2576040517f08c379a00000000000000000000000000000000000000000000000000000000081526004016111d990614e23565b60405180910390fd5b60016004546111f19190614e43565b600481905550600160003373ffffffffffffffffffffffffffffffffffffffff1673ffffffffffffffffffffffffffffffffffffffff168152602001908152602001600020600081548092919061124790614abf565b919050555033600080600454815260200190815260200160002060006101000a81548173ffffffffffffffffffffffffffffffffffffffff021916908373ffffffffffffffffffffffffffffffffffffffff160217905550600454600660003373ffffffffffffffffffffffffffffffffffffffff1673ffffffffffffffffffffffffffffffffffffffff168152602001908152602001600020819055506004543373ffffffffffffffffffffffffffffffffffffffff16600073ffffffffffffffffffffffffffffffffffffffff167fddf252ad1be2c89b69c2b068fc378daa952ba7f163c4a11628f55a4df523b3ef60405160405180910390a4565b6000600660003373ffffffffffffffffffffffffffffffffffffffff1673ffffffffffffffffffffffffffffffffffffffff1681526020019081526020016000205490503373ffffffffffffffffffffffffffffffffffffffff1660008083815260200190815260200160002060009054906101000a900473ffffffffffffffffffffffffffffffffffffffff1673ffffffffffffffffffffffffffffffffffffffff1614611429576040517f08c379a000000000000000000000000000000000000000000000000000000000815260040161142090614c27565b60405180910390fd5b60001515600b600083815260200190815260200160002060009054906101000a900460ff16151514611490576040517f08c379a000000000000000000000000000000000000000000000000000000000815260040161148790614ee9565b60405180910390fd5b6001600b600083815260200190815260200160002060006101000a81548160ff02191690831515021790555033600d600083815260200190815260200160002060006101000a81548173ffffffffffffffffffffffffffffffffffffffff021916908373ffffffffffffffffffffffffffffffffffffffff160217905550803373ffffffffffffffffffffffffffffffffffffffff167fee0bcf78f4e808a3158d33da5bdf7f2d1b12f262ca315097767819536f9650d060405160405180910390a350565b60008082815260200190815260200160002060009054906101000a900473ffffffffffffffffffffffffffffffffffffffff1673ffffffffffffffffffffffffffffffffffffffff168373ffffffffffffffffffffffffffffffffffffffff16146115f5576040517f08c379a00000000000000000000000000000000000000000000000000000000081526004016115ec906149db565b60405180910390fd5b600073ffffffffffffffffffffffffffffffffffffffff168273ffffffffffffffffffffffffffffffffffffffff1603611664576040517f08c379a000000000000000000000000000000000000000000000000000000000815260040161165b90614a47565b60405180910390fd5b61166f833383613d70565b6116ae576040517f08c379a00000000000000000000000000000000000000000000000000000000081526004016116a590614d91565b60405180910390fd5b600160008473ffffffffffffffffffffffffffffffffffffffff1673ffffffffffffffffffffffffffffffffffffffff16815260200190815260200160002060008154809291906116fe90614a96565b9190505550600160008373ffffffffffffffffffffffffffffffffffffffff1673ffffffffffffffffffffffffffffffffffffffff168152602001908152602001600020600081548092919061175390614abf565b91905055508160008083815260200190815260200160002060006101000a81548173ffffffffffffffffffffffffffffffffffffffff021916908373ffffffffffffffffffffffffffffffffffffffff1602179055506002600082815260200190815260200160002060006101000a81549073ffffffffffffffffffffffffffffffffffffffff0219169055808273ffffffffffffffffffffffffffffffffffffffff168473ffffffffffffffffffffffffffffffffffffffff167fddf252ad1be2c89b69c2b068fc378daa952ba7f163c4a11628f55a4df523b3ef60405160405180910390a4505050565b61184a838383611555565b60008273ffffffffffffffffffffffffffffffffffffffff163b1480611933575063150b7a0260e01b7bffffffffffffffffffffffffffffffffffffffffffffffffffffffff19168273ffffffffffffffffffffffffffffffffffffffff1663150b7a023386856040518463ffffffff1660e01b81526004016118cf93929190614f40565b6020604051808303816000875af11580156118ee573d6000803e3d6000fd5b505050506040513d601f19601f820116820180604052508101906119129190614f9f565b7bffffffffffffffffffffffffffffffffffffffffffffffffffffffff1916145b611972576040517f08c379a000000000000000000000000000000000000000000000000000000000815260040161196990615018565b60405180910390fd5b505050565b6000808373ffffffffffffffffffffffffffffffffffffffff166318160ddd6040518163ffffffff1660e01b8152600401602060405180830381865afa1580156119c5573d6000803e3d6000fd5b505050506040513d601f19601f820116820180604052508101906119e99190614b1c565b11611a29576040517f08c379a0000000000000000000000000000000000000000000000000000000008152600401611a2090614b95565b60405180910390fd5b81600960008573ffffffffffffffffffffffffffffffffffffffff1673ffffffffffffffffffffffffffffffffffffffff168152602001908152602001600020541015611aab576040517f08c379a0000000000000000000000000000000000000000000000000000000008152600401611aa2906150aa565b60405180910390fd5b6000606490508281611abd91906150ca565b91505092915050565b600b6020528060005260406000206000915054906101000a900460ff1681565b60606000600c60008481526020019081526020016000208054905011611b41576040517f08c379a0000000000000000000000000000000000000000000000000000000008152600401611b389061517e565b60405180910390fd5b600c6000838152602001908152602001600020805480602002602001604051908101604052809291908181526020018280548015611bd457602002820191906000526020600020905b8160009054906101000a900473ffffffffffffffffffffffffffffffffffffffff1673ffffffffffffffffffffffffffffffffffffffff1681526020019060010190808311611b8a575b50505050509050919050565b600a602052816000526040600020602052806000526040600020600091509150505481565b600080600083815260200190815260200160002060009054906101000a900473ffffffffffffffffffffffffffffffffffffffff169050600073ffffffffffffffffffffffffffffffffffffffff168173ffffffffffffffffffffffffffffffffffffffff1603611cab576040517f08c379a0000000000000000000000000000000000000000000000000000000008152600401611ca290614d25565b60405180910390fd5b919050565b60096020528060005260406000206000915090505481565b60008073ffffffffffffffffffffffffffffffffffffffff168273ffffffffffffffffffffffffffffffffffffffff1603611d38576040517f08c379a0000000000000000000000000000000000000000000000000000000008152600401611d2f906151ea565b60405180910390fd5b600160008373ffffffffffffffffffffffffffffffffffffffff1673ffffffffffffffffffffffffffffffffffffffff168152602001908152602001600020549050919050565b60008073ffffffffffffffffffffffffffffffffffffffff168273ffffffffffffffffffffffffffffffffffffffff1603611def576040517f08c379a0000000000000000000000000000000000000000000000000000000008152600401611de690615256565b60405180910390fd5b60006064905080915050919050565b60066020528060005260406000206000915090505481565b60606040518060400160405280600481526020017f42464f4c00000000000000000000000000000000000000000000000000000000815250905090565b60086020528160005260406000208181548110611e6f57600080fd5b9060005260206000209060020201600091509150508060000160009054906101000a900473ffffffffffffffffffffffffffffffffffffffff16908060010154905082565b60045481565b80600360003373ffffffffffffffffffffffffffffffffffffffff1673ffffffffffffffffffffffffffffffffffffffff16815260200190815260200160002060008473ffffffffffffffffffffffffffffffffffffffff1673ffffffffffffffffffffffffffffffffffffffff16815260200190815260200160002060006101000a81548160ff0219169083151502179055508173ffffffffffffffffffffffffffffffffffffffff163373ffffffffffffffffffffffffffffffffffffffff167f17307eab39ab6107e8899845ad3d59bd9653f200f220920489ca2b5937696c3183604051611fab9190614509565b60405180910390a35050565b600b600082815260200190815260200160002060009054906101000a900460ff16612017576040517f08c379a000000000000000000000000000000000000000000000000000000000815260040161200e906152e8565b60405180910390fd5b6000600d600083815260200190815260200160002060009054906101000a900473ffffffffffffffffffffffffffffffffffffffff169050600073ffffffffffffffffffffffffffffffffffffffff168173ffffffffffffffffffffffffffffffffffffffff16036120be576040517f08c379a00000000000000000000000000000000000000000000000000000000081526004016120b590615354565b60405180910390fd5b3373ffffffffffffffffffffffffffffffffffffffff168173ffffffffffffffffffffffffffffffffffffffff160361212c576040517f08c379a0000000000000000000000000000000000000000000000000000000008152600401612123906153e6565b60405180910390fd5b6000805b600c6000858152602001908152602001600020805490508110156122ba576000600c6000868152602001908152602001600020828154811061217557612174615406565b5b9060005260206000200160009054906101000a900473ffffffffffffffffffffffffffffffffffffffff1690506005600086815260200190815260200160002060008273ffffffffffffffffffffffffffffffffffffffff1673ffffffffffffffffffffffffffffffffffffffff16815260200190815260200160002060009054906101000a900460ff16156122ac5760008173ffffffffffffffffffffffffffffffffffffffff166370a08231866040518263ffffffff1660e01b81526004016122409190614612565b602060405180830381865afa15801561225d573d6000803e3d6000fd5b505050506040513d601f19601f820116820180604052508101906122819190614b1c565b9050600061228e83611d7f565b9050818161229c91906150ca565b856122a79190614e43565b945050505b508080600101915050612130565b506000600760009054906101000a900473ffffffffffffffffffffffffffffffffffffffff1673ffffffffffffffffffffffffffffffffffffffff1663dd62ed3e33306040518363ffffffff1660e01b815260040161231a929190615435565b602060405180830381865afa158015612337573d6000803e3d6000fd5b505050506040513d601f19601f8201168201806040525081019061235b9190614b1c565b9050818110156123a0576040517f08c379a0000000000000000000000000000000000000000000000000000000008152600401612397906154aa565b60405180910390fd5b60005b600c60008681526020019081526020016000208054905081101561261c576000600c600087815260200190815260200160002082815481106123e8576123e7615406565b5b9060005260206000200160009054906101000a900473ffffffffffffffffffffffffffffffffffffffff1690506005600087815260200190815260200160002060008273ffffffffffffffffffffffffffffffffffffffff1673ffffffffffffffffffffffffffffffffffffffff16815260200190815260200160002060009054906101000a900460ff161561260e5760008173ffffffffffffffffffffffffffffffffffffffff166370a08231876040518263ffffffff1660e01b81526004016124b39190614612565b602060405180830381865afa1580156124d0573d6000803e3d6000fd5b505050506040513d601f19601f820116820180604052508101906124f49190614b1c565b9050600081111561260c57600061250a83611d7f565b90506000828261251a91906150ca565b90508373ffffffffffffffffffffffffffffffffffffffff166323b872dd8933866040518463ffffffff1660e01b8152600401612559939291906154ca565b6020604051808303816000875af1158015612578573d6000803e3d6000fd5b505050506040513d601f19601f8201168201806040525081019061259c9190615516565b50888873ffffffffffffffffffffffffffffffffffffffff163373ffffffffffffffffffffffffffffffffffffffff167f5a1fea12c13973fce9ae1e5be708276e0e6d34700655e0ca4238c22563f1e411878787876040516126019493929190615543565b60405180910390a450505b505b5080806001019150506123a3565b50612628833386610747565b83600660003373ffffffffffffffffffffffffffffffffffffffff1673ffffffffffffffffffffffffffffffffffffffff168152602001908152602001600020819055506000600660008573ffffffffffffffffffffffffffffffffffffffff1673ffffffffffffffffffffffffffffffffffffffff16815260200190815260200160002081905550600660008473ffffffffffffffffffffffffffffffffffffffff1673ffffffffffffffffffffffffffffffffffffffff168152602001908152602001600020600090556000600b600086815260200190815260200160002060006101000a81548160ff021916908315150217905550600d600085815260200190815260200160002060006101000a81549073ffffffffffffffffffffffffffffffffffffffff0219169055600760009054906101000a900473ffffffffffffffffffffffffffffffffffffffff1673ffffffffffffffffffffffffffffffffffffffff166323b872dd3385856040518463ffffffff1660e01b81526004016127b5939291906154ca565b6020604051808303816000875af11580156127d4573d6000803e3d6000fd5b505050506040513d601f19601f820116820180604052508101906127f89190615516565b50838373ffffffffffffffffffffffffffffffffffffffff163373ffffffffffffffffffffffffffffffffffffffff167f951488965e134c1b53eade18a21d3a1c6b19fb7f98fd3abb5547f2dc59f96f6a8560405161285791906143cf565b60405180910390a450505050565b612870858585611555565b60008473ffffffffffffffffffffffffffffffffffffffff163b148061295d575063150b7a0260e01b7bffffffffffffffffffffffffffffffffffffffffffffffffffffffff19168473ffffffffffffffffffffffffffffffffffffffff1663150b7a0233888787876040518663ffffffff1660e01b81526004016128f99594939291906155c4565b6020604051808303816000875af1158015612918573d6000803e3d6000fd5b505050506040513d601f19601f8201168201806040525081019061293c9190614f9f565b7bffffffffffffffffffffffffffffffffffffffffffffffffffffffff1916145b61299c576040517f08c379a000000000000000000000000000000000000000000000000000000000815260040161299390615018565b60405180910390fd5b5050505050565b6060600073ffffffffffffffffffffffffffffffffffffffff1660008084815260200190815260200160002060009054906101000a900473ffffffffffffffffffffffffffffffffffffffff1673ffffffffffffffffffffffffffffffffffffffff1603612a46576040517f08c379a0000000000000000000000000000000000000000000000000000000008152600401612a3d90615684565b60405180910390fd5b6040518060800160405280605e8152602001615c15605e91399050919050565b60008273ffffffffffffffffffffffffffffffffffffffff166318160ddd6040518163ffffffff1660e01b8152600401602060405180830381865afa158015612ab3573d6000803e3d6000fd5b505050506040513d601f19601f82011682018060405250810190612ad79190614b1c565b11612b17576040517f08c379a0000000000000000000000000000000000000000000000000000000008152600401612b0e90614b95565b60405180910390fd5b80600960008473ffffffffffffffffffffffffffffffffffffffff1673ffffffffffffffffffffffffffffffffffffffff168152602001908152602001600020541015612b99576040517f08c379a0000000000000000000000000000000000000000000000000000000008152600401612b9090615716565b60405180910390fd5b6000600660003373ffffffffffffffffffffffffffffffffffffffff1673ffffffffffffffffffffffffffffffffffffffff168152602001908152602001600020549050600b600082815260200190815260200160002060009054906101000a900460ff1615612c3e576040517f08c379a0000000000000000000000000000000000000000000000000000000008152600401612c35906157a8565b60405180910390fd5b3373ffffffffffffffffffffffffffffffffffffffff1660008083815260200190815260200160002060009054906101000a900473ffffffffffffffffffffffffffffffffffffffff1673ffffffffffffffffffffffffffffffffffffffff1614612cde576040517f08c379a0000000000000000000000000000000000000000000000000000000008152600401612cd59061583a565b60405180910390fd5b6000612cea8484611977565b90506000600760009054906101000a900473ffffffffffffffffffffffffffffffffffffffff1673ffffffffffffffffffffffffffffffffffffffff1663dd62ed3e33306040518363ffffffff1660e01b8152600401612d4b929190615435565b602060405180830381865afa158015612d68573d6000803e3d6000fd5b505050506040513d601f19601f82011682018060405250810190612d8c9190614b1c565b905081811015612dd1576040517f08c379a0000000000000000000000000000000000000000000000000000000008152600401612dc8906154aa565b60405180910390fd5b600084905060005b600860008873ffffffffffffffffffffffffffffffffffffffff1673ffffffffffffffffffffffffffffffffffffffff1681526020019081526020016000208054905081108015612e2a5750600082115b1561357e576000600860008973ffffffffffffffffffffffffffffffffffffffff1673ffffffffffffffffffffffffffffffffffffffff1681526020019081526020016000208281548110612e8257612e81615406565b5b906000526020600020906002020190508060010154831061320e576000612ea889611d7f565b90506000826001015482612ebc91906150ca565b90508973ffffffffffffffffffffffffffffffffffffffff166323b872dd8460000160009054906101000a900473ffffffffffffffffffffffffffffffffffffffff163386600101546040518463ffffffff1660e01b8152600401612f23939291906154ca565b6020604051808303816000875af1158015612f42573d6000803e3d6000fd5b505050506040513d601f19601f82011682018060405250810190612f669190615516565b50600760009054906101000a900473ffffffffffffffffffffffffffffffffffffffff1673ffffffffffffffffffffffffffffffffffffffff166323b872dd338560000160009054906101000a900473ffffffffffffffffffffffffffffffffffffffff16846040518463ffffffff1660e01b8152600401612fea939291906154ca565b6020604051808303816000875af1158015613009573d6000803e3d6000fd5b505050506040513d601f19601f8201168201806040525081019061302d9190615516565b508973ffffffffffffffffffffffffffffffffffffffff168360000160009054906101000a900473ffffffffffffffffffffffffffffffffffffffff1673ffffffffffffffffffffffffffffffffffffffff163373ffffffffffffffffffffffffffffffffffffffff167f995447d54f79aaba2c4b25f1ee08f570e7686ef41d82536109125774f65a8489866001015486866040516130ce9392919061585a565b60405180910390a48260010154856130e69190615891565b94508260010154600960008c73ffffffffffffffffffffffffffffffffffffffff1673ffffffffffffffffffffffffffffffffffffffff168152602001908152602001600020600082825461313b9190615891565b925050819055508260010154600a60008560000160009054906101000a900473ffffffffffffffffffffffffffffffffffffffff1673ffffffffffffffffffffffffffffffffffffffff1673ffffffffffffffffffffffffffffffffffffffff16815260200190815260200160002060008c73ffffffffffffffffffffffffffffffffffffffff1673ffffffffffffffffffffffffffffffffffffffff16815260200190815260200160002060008282546131f69190615891565b925050819055506132078a85613ea4565b5050613578565b600061321989611d7f565b90506000848261322991906150ca565b90508973ffffffffffffffffffffffffffffffffffffffff166323b872dd8460000160009054906101000a900473ffffffffffffffffffffffffffffffffffffffff1633886040518463ffffffff1660e01b815260040161328c939291906154ca565b6020604051808303816000875af11580156132ab573d6000803e3d6000fd5b505050506040513d601f19601f820116820180604052508101906132cf9190615516565b50600760009054906101000a900473ffffffffffffffffffffffffffffffffffffffff1673ffffffffffffffffffffffffffffffffffffffff166323b872dd338560000160009054906101000a900473ffffffffffffffffffffffffffffffffffffffff16846040518463ffffffff1660e01b8152600401613353939291906154ca565b6020604051808303816000875af1158015613372573d6000803e3d6000fd5b505050506040513d601f19601f820116820180604052508101906133969190615516565b508973ffffffffffffffffffffffffffffffffffffffff168360000160009054906101000a900473ffffffffffffffffffffffffffffffffffffffff1673ffffffffffffffffffffffffffffffffffffffff163373ffffffffffffffffffffffffffffffffffffffff167f995447d54f79aaba2c4b25f1ee08f570e7686ef41d82536109125774f65a84898886866040516134339392919061585a565b60405180910390a48483600101600082825461344f9190615891565b9250508190555084600960008c73ffffffffffffffffffffffffffffffffffffffff1673ffffffffffffffffffffffffffffffffffffffff16815260200190815260200160002060008282546134a59190615891565b9250508190555084600a60008560000160009054906101000a900473ffffffffffffffffffffffffffffffffffffffff1673ffffffffffffffffffffffffffffffffffffffff1673ffffffffffffffffffffffffffffffffffffffff16815260200190815260200160002060008c73ffffffffffffffffffffffffffffffffffffffff1673ffffffffffffffffffffffffffffffffffffffff168152602001908152602001600020600082825461355c9190615891565b9250508190555060009450838061357290614abf565b94505050505b50612dd9565b61358787610ac0565b5050505050505050565b6000600660003373ffffffffffffffffffffffffffffffffffffffff1673ffffffffffffffffffffffffffffffffffffffff168152602001908152602001600020549050600b600082815260200190815260200160002060009054906101000a900460ff1615613636576040517f08c379a000000000000000000000000000000000000000000000000000000000815260040161362d90615911565b60405180910390fd5b61363f83610ac0565b5060008373ffffffffffffffffffffffffffffffffffffffff166318160ddd6040518163ffffffff1660e01b8152600401602060405180830381865afa15801561368d573d6000803e3d6000fd5b505050506040513d601f19601f820116820180604052508101906136b19190614b1c565b116136f1576040517f08c379a00000000000000000000000000000000000000000000000000000000081526004016136e890614b95565b60405180910390fd5b3373ffffffffffffffffffffffffffffffffffffffff1660008083815260200190815260200160002060009054906101000a900473ffffffffffffffffffffffffffffffffffffffff1673ffffffffffffffffffffffffffffffffffffffff1614613791576040517f08c379a000000000000000000000000000000000000000000000000000000000815260040161378890614c27565b60405180910390fd5b600115156005600083815260200190815260200160002060008573ffffffffffffffffffffffffffffffffffffffff1673ffffffffffffffffffffffffffffffffffffffff16815260200190815260200160002060009054906101000a900460ff16151514613835576040517f08c379a000000000000000000000000000000000000000000000000000000000815260040161382c906159a3565b60405180910390fd5b60008373ffffffffffffffffffffffffffffffffffffffff166370a08231336040518263ffffffff1660e01b81526004016138709190614612565b602060405180830381865afa15801561388d573d6000803e3d6000fd5b505050506040513d601f19601f820116820180604052508101906138b19190614b1c565b9050808311156138f6576040517f08c379a00000000000000000000000000000000000000000000000000000000081526004016138ed90615a35565b60405180910390fd5b6000600a60003373ffffffffffffffffffffffffffffffffffffffff1673ffffffffffffffffffffffffffffffffffffffff16815260200190815260200160002060008673ffffffffffffffffffffffffffffffffffffffff1673ffffffffffffffffffffffffffffffffffffffff1681526020019081526020016000205490508184826139849190614e43565b11156139c5576040517f08c379a00000000000000000000000000000000000000000000000000000000081526004016139bc90615ac7565b60405180910390fd5b60008573ffffffffffffffffffffffffffffffffffffffff1663dd62ed3e33306040518363ffffffff1660e01b8152600401613a02929190615435565b602060405180830381865afa158015613a1f573d6000803e3d6000fd5b505050506040513d601f19601f82011682018060405250810190613a439190614b1c565b905084811015613a88576040517f08c379a0000000000000000000000000000000000000000000000000000000008152600401613a7f90615b59565b60405180910390fd5b600860008773ffffffffffffffffffffffffffffffffffffffff1673ffffffffffffffffffffffffffffffffffffffff16815260200190815260200160002060405180604001604052803373ffffffffffffffffffffffffffffffffffffffff16815260200187815250908060018154018082558091505060019003906000526020600020906002020160009091909190915060008201518160000160006101000a81548173ffffffffffffffffffffffffffffffffffffffff021916908373ffffffffffffffffffffffffffffffffffffffff16021790555060208201518160010155505084600960008873ffffffffffffffffffffffffffffffffffffffff1673ffffffffffffffffffffffffffffffffffffffff1681526020019081526020016000206000828254613bbd9190614e43565b9250508190555084600a60003373ffffffffffffffffffffffffffffffffffffffff1673ffffffffffffffffffffffffffffffffffffffff16815260200190815260200160002060008873ffffffffffffffffffffffffffffffffffffffff1673ffffffffffffffffffffffffffffffffffffffff1681526020019081526020016000206000828254613c509190614e43565b925050819055508573ffffffffffffffffffffffffffffffffffffffff163373ffffffffffffffffffffffffffffffffffffffff167f8ac1fe594efa7bd6644e294b002848a3fc1a5fda176fc7e207b2298b6260ae4087604051613cb491906143cf565b60405180910390a3505050505050565b60056020528160005260406000206020528060005260406000206000915091509054906101000a900460ff1681565b600c6020528160005260406000208181548110613d0f57600080fd5b906000526020600020016000915091509054906101000a900473ffffffffffffffffffffffffffffffffffffffff1681565b60036020528160005260406000206020528060005260406000206000915091509054906101000a900460ff1681565b60008373ffffffffffffffffffffffffffffffffffffffff168373ffffffffffffffffffffffffffffffffffffffff161480613e325750600360008573ffffffffffffffffffffffffffffffffffffffff1673ffffffffffffffffffffffffffffffffffffffff16815260200190815260200160002060008473ffffffffffffffffffffffffffffffffffffffff1673ffffffffffffffffffffffffffffffffffffffff16815260200190815260200160002060009054906101000a900460ff165b80613e9b57506002600083815260200190815260200160002060009054906101000a900473ffffffffffffffffffffffffffffffffffffffff1673ffffffffffffffffffffffffffffffffffffffff168373ffffffffffffffffffffffffffffffffffffffff16145b90509392505050565b600860008373ffffffffffffffffffffffffffffffffffffffff1673ffffffffffffffffffffffffffffffffffffffff168152602001908152602001600020805490508110613f28576040517f08c379a0000000000000000000000000000000000000000000000000000000008152600401613f1f90615bc5565b60405180910390fd5b6000600860008473ffffffffffffffffffffffffffffffffffffffff1673ffffffffffffffffffffffffffffffffffffffff1681526020019081526020016000208281548110613f7b57613f7a615406565b5b906000526020600020906002020160000160009054906101000a900473ffffffffffffffffffffffffffffffffffffffff1690506000600a60008373ffffffffffffffffffffffffffffffffffffffff1673ffffffffffffffffffffffffffffffffffffffff16815260200190815260200160002060008573ffffffffffffffffffffffffffffffffffffffff1673ffffffffffffffffffffffffffffffffffffffff16815260200190815260200160002054036140b457600a60008273ffffffffffffffffffffffffffffffffffffffff1673ffffffffffffffffffffffffffffffffffffffff16815260200190815260200160002060008473ffffffffffffffffffffffffffffffffffffffff1673ffffffffffffffffffffffffffffffffffffffff168152602001908152602001600020600090555b6000600860008573ffffffffffffffffffffffffffffffffffffffff1673ffffffffffffffffffffffffffffffffffffffff1681526020019081526020016000206001600860008773ffffffffffffffffffffffffffffffffffffffff1673ffffffffffffffffffffffffffffffffffffffff168152602001908152602001600020805490506141449190615891565b8154811061415557614154615406565b5b90600052602060002090600202016040518060400160405290816000820160009054906101000a900473ffffffffffffffffffffffffffffffffffffffff1673ffffffffffffffffffffffffffffffffffffffff1673ffffffffffffffffffffffffffffffffffffffff168152602001600182015481525050905080600860008673ffffffffffffffffffffffffffffffffffffffff1673ffffffffffffffffffffffffffffffffffffffff168152602001908152602001600020848154811061422257614221615406565b5b906000526020600020906002020160008201518160000160006101000a81548173ffffffffffffffffffffffffffffffffffffffff021916908373ffffffffffffffffffffffffffffffffffffffff16021790555060208201518160010155905050600860008573ffffffffffffffffffffffffffffffffffffffff1673ffffffffffffffffffffffffffffffffffffffff1681526020019081526020016000208054806142d3576142d2615be5565b5b6001900381819060005260206000209060020201600080820160006101000a81549073ffffffffffffffffffffffffffffffffffffffff021916905560018201600090555050905550505050565b600080fd5b600080fd5b600073ffffffffffffffffffffffffffffffffffffffff82169050919050565b60006143568261432b565b9050919050565b6143668161434b565b811461437157600080fd5b50565b6000813590506143838161435d565b92915050565b60006020828403121561439f5761439e614321565b5b60006143ad84828501614374565b91505092915050565b6000819050919050565b6143c9816143b6565b82525050565b60006020820190506143e460008301846143c0565b92915050565b6143f3816143b6565b81146143fe57600080fd5b50565b600081359050614410816143ea565b92915050565b60008060006060848603121561442f5761442e614321565b5b600061443d86828701614374565b935050602061444e86828701614374565b925050604061445f86828701614401565b9150509250925092565b60007fffffffff0000000000000000000000000000000000000000000000000000000082169050919050565b61449e81614469565b81146144a957600080fd5b50565b6000813590506144bb81614495565b92915050565b6000602082840312156144d7576144d6614321565b5b60006144e5848285016144ac565b91505092915050565b60008115159050919050565b614503816144ee565b82525050565b600060208201905061451e60008301846144fa565b92915050565b600081519050919050565b600082825260208201905092915050565b60005b8381101561455e578082015181840152602081019050614543565b60008484015250505050565b6000601f19601f8301169050919050565b600061458682614524565b614590818561452f565b93506145a0818560208601614540565b6145a98161456a565b840191505092915050565b600060208201905081810360008301526145ce818461457b565b905092915050565b6000602082840312156145ec576145eb614321565b5b60006145fa84828501614401565b91505092915050565b61460c8161434b565b82525050565b60006020820190506146276000830184614603565b92915050565b6000806040838503121561464457614643614321565b5b600061465285828601614374565b925050602061466385828601614401565b9150509250929050565b600081519050919050565b600082825260208201905092915050565b6000819050602082019050919050565b6146a28161434b565b82525050565b60006146b48383614699565b60208301905092915050565b6000602082019050919050565b60006146d88261466d565b6146e28185614678565b93506146ed83614689565b8060005b8381101561471e57815161470588826146a8565b9750614710836146c0565b9250506001810190506146f1565b5085935050505092915050565b6000602082019050818103600083015261474581846146cd565b905092915050565b6000806040838503121561476457614763614321565b5b600061477285828601614374565b925050602061478385828601614374565b9150509250929050565b60006040820190506147a26000830185614603565b6147af60208301846143c0565b9392505050565b6147bf816144ee565b81146147ca57600080fd5b50565b6000813590506147dc816147b6565b92915050565b600080604083850312156147f9576147f8614321565b5b600061480785828601614374565b9250506020614818858286016147cd565b9150509250929050565b600080fd5b600080fd5b600080fd5b60008083601f84011261484757614846614822565b5b8235905067ffffffffffffffff81111561486457614863614827565b5b6020830191508360018202830111156148805761487f61482c565b5b9250929050565b6000806000806000608086880312156148a3576148a2614321565b5b60006148b188828901614374565b95505060206148c288828901614374565b94505060406148d388828901614401565b935050606086013567ffffffffffffffff8111156148f4576148f3614326565b5b61490088828901614831565b92509250509295509295909350565b6000806040838503121561492657614925614321565b5b600061493485828601614401565b925050602061494585828601614374565b9150509250929050565b6000806040838503121561496657614965614321565b5b600061497485828601614401565b925050602061498585828601614401565b9150509250929050565b7f66726f6d20213d206f776e657200000000000000000000000000000000000000600082015250565b60006149c5600d8361452f565b91506149d08261498f565b602082019050919050565b600060208201905081810360008301526149f4816149b8565b9050919050565b7f7472616e7366657220746f207a65726f20616464726573730000000000000000600082015250565b6000614a3160188361452f565b9150614a3c826149fb565b602082019050919050565b60006020820190508181036000830152614a6081614a24565b9050919050565b7f4e487b7100000000000000000000000000000000000000000000000000000000600052601160045260246000fd5b6000614aa1826143b6565b915060008203614ab457614ab3614a67565b5b600182039050919050565b6000614aca826143b6565b91507fffffffffffffffffffffffffffffffffffffffffffffffffffffffffffffffff8203614afc57614afb614a67565b5b600182019050919050565b600081519050614b16816143ea565b92915050565b600060208284031215614b3257614b31614321565b5b6000614b4084828501614b07565b91505092915050565b7f496e76616c6964204552432d323020636f6e7472616374000000000000000000600082015250565b6000614b7f60178361452f565b9150614b8a82614b49565b602082019050919050565b60006020820190508181036000830152614bae81614b72565b9050919050565b7f796f7520617265206e6f7420746865206f776e6572206f66207468697320706f60008201527f7274666f6c696f21000000000000000000000000000000000000000000000000602082015250565b6000614c1160288361452f565b9150614c1c82614bb5565b604082019050919050565b60006020820190508181036000830152614c4081614c04565b9050919050565b7f796f7520646f6e74206f776e20616e792073746f636b20696e2074686973206360008201527f6f6d70616e792021210000000000000000000000000000000000000000000000602082015250565b6000614ca360298361452f565b9150614cae82614c47565b604082019050919050565b60006020820190508181036000830152614cd281614c96565b9050919050565b7f746f6b656e20646f65736e277420657869737400000000000000000000000000600082015250565b6000614d0f60138361452f565b9150614d1a82614cd9565b602082019050919050565b60006020820190508181036000830152614d3e81614d02565b9050919050565b7f6e6f7420617574686f72697a6564000000000000000000000000000000000000600082015250565b6000614d7b600e8361452f565b9150614d8682614d45565b602082019050919050565b60006020820190508181036000830152614daa81614d6e565b9050919050565b7f796f75206861766520616c726561647920616c7265616479206d696e7465642060008201527f796f757220706f7274666f6c696f202100000000000000000000000000000000602082015250565b6000614e0d60308361452f565b9150614e1882614db1565b604082019050919050565b60006020820190508181036000830152614e3c81614e00565b9050919050565b6000614e4e826143b6565b9150614e59836143b6565b9250828201905080821115614e7157614e70614a67565b5b92915050565b7f796f757220706f7274666f6c696f2068617320616c7265616479206265656e2060008201527f6c697374656420666f722073616c650000000000000000000000000000000000602082015250565b6000614ed3602f8361452f565b9150614ede82614e77565b604082019050919050565b60006020820190508181036000830152614f0281614ec6565b9050919050565b600082825260208201905092915050565b50565b6000614f2a600083614f09565b9150614f3582614f1a565b600082019050919050565b6000608082019050614f556000830186614603565b614f626020830185614603565b614f6f60408301846143c0565b8181036060830152614f8081614f1d565b9050949350505050565b600081519050614f9981614495565b92915050565b600060208284031215614fb557614fb4614321565b5b6000614fc384828501614f8a565b91505092915050565b7f756e7361666520726563697069656e7400000000000000000000000000000000600082015250565b600061500260108361452f565b915061500d82614fcc565b602082019050919050565b6000602082019050818103600083015261503181614ff5565b9050919050565b7f736f727279202c206e6f7420656e6f7567682073746f636b206861732062656560008201527f6e206c697374656420757020666f722073616c65000000000000000000000000602082015250565b600061509460348361452f565b915061509f82615038565b604082019050919050565b600060208201905081810360008301526150c381615087565b9050919050565b60006150d5826143b6565b91506150e0836143b6565b92508282026150ee816143b6565b9150828204841483151761510557615104614a67565b5b5092915050565b7f4e6f2073746f636b7320666f756e6420666f72207468697320746f6b656e204960008201527f4400000000000000000000000000000000000000000000000000000000000000602082015250565b600061516860218361452f565b91506151738261510c565b604082019050919050565b600060208201905081810360008301526151978161515b565b9050919050565b7f6f776e6572203d207a65726f2061646472657373000000000000000000000000600082015250565b60006151d460148361452f565b91506151df8261519e565b602082019050919050565b60006020820190508181036000830152615203816151c7565b9050919050565b7f796f752073656e74207a65726f20616464726573732100000000000000000000600082015250565b600061524060168361452f565b915061524b8261520a565b602082019050919050565b6000602082019050818103600083015261526f81615233565b9050919050565b7f74686520706f7274666f6c696f206861736e2774206265656e206c697374656460008201527f20666f722073616c652079657400000000000000000000000000000000000000602082015250565b60006152d2602d8361452f565b91506152dd82615276565b604082019050919050565b60006020820190508181036000830152615301816152c5565b9050919050565b7f496e76616c696420706f7274666f6c696f206f776e6572000000000000000000600082015250565b600061533e60178361452f565b915061534982615308565b602082019050919050565b6000602082019050818103600083015261536d81615331565b9050919050565b7f596f752063616e6e6f742062757920796f7572206f776e20706f7274666f6c6960008201527f6f00000000000000000000000000000000000000000000000000000000000000602082015250565b60006153d060218361452f565b91506153db82615374565b604082019050919050565b600060208201905081810360008301526153ff816153c3565b9050919050565b7f4e487b7100000000000000000000000000000000000000000000000000000000600052603260045260246000fd5b600060408201905061544a6000830185614603565b6154576020830184614603565b9392505050565b7f496e73756666696369656e7420617574686f72697a6174696f6e000000000000600082015250565b6000615494601a8361452f565b915061549f8261545e565b602082019050919050565b600060208201905081810360008301526154c381615487565b9050919050565b60006060820190506154df6000830186614603565b6154ec6020830185614603565b6154f960408301846143c0565b949350505050565b600081519050615510816147b6565b92915050565b60006020828403121561552c5761552b614321565b5b600061553a84828501615501565b91505092915050565b60006080820190506155586000830187614603565b61556560208301866143c0565b61557260408301856143c0565b61557f60608301846143c0565b95945050505050565b82818337600083830152505050565b60006155a38385614f09565b93506155b0838584615588565b6155b98361456a565b840190509392505050565b60006080820190506155d96000830188614603565b6155e66020830187614603565b6155f360408301866143c0565b8181036060830152615606818486615597565b90509695505050505050565b7f4552433732314d657461646174613a2055524920717565727920666f72206e6f60008201527f6e6578697374656e7420746f6b656e0000000000000000000000000000000000602082015250565b600061566e602f8361452f565b915061567982615612565b604082019050919050565b6000602082019050818103600083015261569d81615661565b9050919050565b7f4e6f7420656e6f7567682073746f636b20617661696c61626c6520666f72207360008201527f616c650000000000000000000000000000000000000000000000000000000000602082015250565b600061570060238361452f565b915061570b826156a4565b604082019050919050565b6000602082019050818103600083015261572f816156f3565b9050919050565b7f706f7274666f6c696f206973206c697374656420666f722073616c6520796f7560008201527f2063616e74206275790000000000000000000000000000000000000000000000602082015250565b600061579260298361452f565b915061579d82615736565b604082019050919050565b600060208201905081810360008301526157c181615785565b9050919050565b7f596f7520617265206e6f7420746865206f776e6572206f66207468697320706f60008201527f7274666f6c696f21000000000000000000000000000000000000000000000000602082015250565b600061582460288361452f565b915061582f826157c8565b604082019050919050565b6000602082019050818103600083015261585381615817565b9050919050565b600060608201905061586f60008301866143c0565b61587c60208301856143c0565b61588960408301846143c0565b949350505050565b600061589c826143b6565b91506158a7836143b6565b92508282039050818111156158bf576158be614a67565b5b92915050565b7f706f7274666f6c696f206973206c697374656420666f722073616c6500000000600082015250565b60006158fb601c8361452f565b9150615906826158c5565b602082019050919050565b6000602082019050818103600083015261592a816158ee565b9050919050565b7f796f757220706f7274666f6c696f28746f6b656e6e49442920686173206e6f2060008201527f73746f636b207468697320636f6d70616e790000000000000000000000000000602082015250565b600061598d60328361452f565b915061599882615931565b604082019050919050565b600060208201905081810360008301526159bc81615980565b9050919050565b7f796f752063616e74206c697374206d6f72652073746f636b207468616e20796f60008201527f75206f776e20696e2074686520636f6d70616e79212100000000000000000000602082015250565b6000615a1f60368361452f565b9150615a2a826159c3565b604082019050919050565b60006020820190508181036000830152615a4e81615a12565b9050919050565b7f546f74616c206c697374656420616d6f756e7420776f756c642065786365656460008201527f206f776e65642062616c616e6365000000000000000000000000000000000000602082015250565b6000615ab1602e8361452f565b9150615abc82615a55565b604082019050919050565b60006020820190508181036000830152615ae081615aa4565b9050919050565b7f6e6f7420656e6f7567682073746f636b20697320617574686f72697a6564207460008201527f6f20626520736f6c640000000000000000000000000000000000000000000000602082015250565b6000615b4360298361452f565b9150615b4e82615ae7565b604082019050919050565b60006020820190508181036000830152615b7281615b36565b9050919050565b7f496e76616c6964206c697374696e6720696e6465780000000000000000000000600082015250565b6000615baf60158361452f565b9150615bba82615b79565b602082019050919050565b60006020820190508181036000830152615bde81615ba2565b9050919050565b7f4e487b7100000000000000000000000000000000000000000000000000000000600052603160045260246000fdfe68747470733a2f2f7261772e67697468756275736572636f6e74656e742e636f6d2f74656a6173313930342f626c6f636b666f6c696f2f726566732f68656164732f6d61696e2f6d657461646174612f73746f636b2d6e66742e6a736f6ea2646970667358221220531f870f590a31125963f1b8471f7531802011c78096a3d0d7847b2582e1401d64736f6c634300081c0033",
  "linkReferences": {},
  "deployedLinkReferences": {}
}