{
  "_format": "hh-sol-artifact-1",
  "contractName": "portfolio",
  "sourceName": "contracts/portfolio.sol",
  "abi": [
    {
      "inputs": [
        {
          "internalType": "address",
          "name": "paymentTokenAddress",
          "type": "address"
        }
      ],
      "stateMutability": "nonpayable",
      "type": "constructor"
    },
    {
      "anonymous": false,
      "inputs": [
        {
          "indexed": true,
          "internalType": "address",
          "name": "owner",
          "type": "address"
        },
        {
          "indexed": true,
          "internalType": "address",
          "name": "spender",
          "type": "address"
        },
        {
          "indexed": true,
          "internalType": "uint256",
          "name": "id",
          "type": "uint256"
        }
      ],
      "name": "Approval",
      "type": "event"
    },
    {
      "anonymous": false,
      "inputs": [
        {
          "indexed": true,
          "internalType": "address",
          "name": "owner",
          "type": "address"
        },
        {
          "indexed": true,
          "internalType": "address",
          "name": "operator",
          "type": "address"
        },
        {
          "indexed": false,
          "internalType": "bool",
          "name": "approved",
          "type": "bool"
        }
      ],
      "name": "ApprovalForAll",
      "type": "event"
    },
    {
      "anonymous": false,
      "inputs": [
        {
          "indexed": true,
          "internalType": "address",
          "name": "seller",
          "type": "address"
        },
        {
          "indexed": true,
          "internalType": "uint256",
          "name": "tokenId",
          "type": "uint256"
        }
      ],
      "name": "PortfolioListed",
      "type": "event"
    },
    {
      "anonymous": false,
      "inputs": [
        {
          "indexed": true,
          "internalType": "address",
          "name": "buyer",
          "type": "address"
        },
        {
          "indexed": true,
          "internalType": "address",
          "name": "seller",
          "type": "address"
        },
        {
          "indexed": true,
          "internalType": "uint256",
          "name": "tokenId",
          "type": "uint256"
        },
        {
          "indexed": false,
          "internalType": "address",
          "name": "stockToken",
          "type": "address"
        },
        {
          "indexed": false,
          "internalType": "uint256",
          "name": "count",
          "type": "uint256"
        },
        {
          "indexed": false,
          "internalType": "uint256",
          "name": "unitPrice",
          "type": "uint256"
        },
        {
          "indexed": false,
          "internalType": "uint256",
          "name": "totalPrice",
          "type": "uint256"
        }
      ],
      "name": "PortfolioTradeItem",
      "type": "event"
    },
    {
      "anonymous": false,
      "inputs": [
        {
          "indexed": true,
          "internalType": "address",
          "name": "buyer",
          "type": "address"
        },
        {
          "indexed": true,
          "internalType": "address",
          "name": "seller",
          "type": "address"
        },
        {
          "indexed": true,
          "internalType": "uint256",
          "name": "tokenId",
          "type": "uint256"
        },
        {
          "indexed": false,
          "internalType": "uint256",
          "name": "totalPrice",
          "type": "uint256"
        }
      ],
      "name": "PortfolioTraded",
      "type": "event"
    },
    {
      "anonymous": false,
      "inputs": [
        {
          "indexed": true,
          "internalType": "address",
          "name": "seller",
          "type": "address"
        },
        {
          "indexed": true,
          "internalType": "address",
          "name": "stockToken",
          "type": "address"
        },
        {
          "indexed": false,
          "internalType": "uint256",
          "name": "count",
          "type": "uint256"
        }
      ],
      "name": "StockListed",
      "type": "event"
    },
    {
      "anonymous": false,
      "inputs": [
        {
          "indexed": true,
          "internalType": "address",
          "name": "stockFtAddress",
          "type": "address"
        },
        {
          "indexed": true,
          "internalType": "address",
          "name": "seller",
          "type": "address"
        }
      ],
      "name": "StockListingDelisted",
      "type": "event"
    },
    {
      "anonymous": false,
      "inputs": [
        {
          "indexed": true,
          "internalType": "address",
          "name": "buyer",
          "type": "address"
        },
        {
          "indexed": true,
          "internalType": "address",
          "name": "seller",
          "type": "address"
        },
        {
          "indexed": true,
          "internalType": "address",
          "name": "stockToken",
          "type": "address"
        },
        {
          "indexed": false,
          "internalType": "uint256",
          "name": "count",
          "type": "uint256"
        },
        {
          "indexed": false,
          "internalType": "uint256",
          "name": "unitPrice",
          "type": "uint256"
        },
        {
          "indexed": false,
          "internalType": "uint256",
          "name": "totalPrice",
          "type": "uint256"
        }
      ],
      "name": "StockTraded",
      "type": "event"
    },
    {
      "anonymous": false,
      "inputs": [
        {
          "indexed": true,
          "internalType": "address",
          "name": "from",
          "type": "address"
        },
        {
          "indexed": true,
          "internalType": "address",
          "name": "to",
          "type": "address"
        },
        {
          "indexed": true,
          "internalType": "uint256",
          "name": "id",
          "type": "uint256"
        }
      ],
      "name": "Transfer",
      "type": "event"
    },
    {
      "inputs": [
        {
          "internalType": "uint256",
          "name": "",
          "type": "uint256"
        }
      ],
      "name": "_isPortfolioForSale",
      "outputs": [
        {
          "internalType": "bool",
          "name": "",
          "type": "bool"
        }
      ],
      "stateMutability": "view",
      "type": "function"
    },
    {
      "inputs": [
        {
          "internalType": "uint256",
          "name": "",
          "type": "uint256"
        }
      ],
      "name": "_listedPortfolioOwner",
      "outputs": [
        {
          "internalType": "address",
          "name": "",
          "type": "address"
        }
      ],
      "stateMutability": "view",
      "type": "function"
    },
    {
      "inputs": [
        {
          "internalType": "address",
          "name": "",
          "type": "address"
        }
      ],
      "name": "_ownedToken",
      "outputs": [
        {
          "internalType": "uint256",
          "name": "",
          "type": "uint256"
        }
      ],
      "stateMutability": "view",
      "type": "function"
    },
    {
      "inputs": [
        {
          "internalType": "address",
          "name": "",
          "type": "address"
        },
        {
          "internalType": "uint256",
          "name": "",
          "type": "uint256"
        }
      ],
      "name": "_stocksForSale",
      "outputs": [
        {
          "internalType": "address",
          "name": "seller",
          "type": "address"
        },
        {
          "internalType": "uint256",
          "name": "count",
          "type": "uint256"
        }
      ],
      "stateMutability": "view",
      "type": "function"
    },
    {
      "inputs": [
        {
          "internalType": "uint256",
          "name": "",
          "type": "uint256"
        },
        {
          "internalType": "address",
          "name": "",
          "type": "address"
        }
      ],
      "name": "_tokenHasStock",
      "outputs": [
        {
          "internalType": "bool",
          "name": "",
          "type": "bool"
        }
      ],
      "stateMutability": "view",
      "type": "function"
    },
    {
      "inputs": [
        {
          "internalType": "uint256",
          "name": "",
          "type": "uint256"
        },
        {
          "internalType": "uint256",
          "name": "",
          "type": "uint256"
        }
      ],
      "name": "_tokenStockAddresses",
      "outputs": [
        {
          "internalType": "address",
          "name": "",
          "type": "address"
        }
      ],
      "stateMutability": "view",
      "type": "function"
    },
    {
      "inputs": [
        {
          "internalType": "address",
          "name": "",
          "type": "address"
        }
      ],
      "name": "_totalSellCount",
      "outputs": [
        {
          "internalType": "uint256",
          "name": "",
          "type": "uint256"
        }
      ],
      "stateMutability": "view",
      "type": "function"
    },
    {
      "inputs": [
        {
          "internalType": "address",
          "name": "",
          "type": "address"
        },
        {
          "internalType": "address",
          "name": "",
          "type": "address"
        }
      ],
      "name": "_userListedStocks",
      "outputs": [
        {
          "internalType": "uint256",
          "name": "",
          "type": "uint256"
        }
      ],
      "stateMutability": "view",
      "type": "function"
    },
    {
      "inputs": [
        {
          "internalType": "address",
          "name": "spender",
          "type": "address"
        },
        {
          "internalType": "uint256",
          "name": "id",
          "type": "uint256"
        }
      ],
      "name": "approve",
      "outputs": [],
      "stateMutability": "nonpayable",
      "type": "function"
    },
    {
      "inputs": [
        {
          "internalType": "address",
          "name": "owner",
          "type": "address"
        }
      ],
      "name": "balanceOf",
      "outputs": [
        {
          "internalType": "uint256",
          "name": "",
          "type": "uint256"
        }
      ],
      "stateMutability": "view",
      "type": "function"
    },
    {
      "inputs": [
        {
          "internalType": "address",
          "name": "stockFtAddress",
          "type": "address"
        },
        {
          "internalType": "uint256",
          "name": "count",
          "type": "uint256"
        }
      ],
      "name": "buy",
      "outputs": [],
      "stateMutability": "nonpayable",
      "type": "function"
    },
    {
      "inputs": [
        {
          "internalType": "uint256",
          "name": "token_id",
          "type": "uint256"
        }
      ],
      "name": "buyPortfolio",
      "outputs": [],
      "stateMutability": "nonpayable",
      "type": "function"
    },
    {
      "inputs": [
        {
          "internalType": "address",
          "name": "stockFtAddress",
          "type": "address"
        }
      ],
      "name": "getAPrice",
      "outputs": [
        {
          "internalType": "uint256",
          "name": "",
          "type": "uint256"
        }
      ],
      "stateMutability": "pure",
      "type": "function"
    },
    {
      "inputs": [
        {
          "internalType": "uint256",
          "name": "id",
          "type": "uint256"
        }
      ],
      "name": "getApproved",
      "outputs": [
        {
          "internalType": "address",
          "name": "",
          "type": "address"
        }
      ],
      "stateMutability": "view",
      "type": "function"
    },
    {
      "inputs": [
        {
          "internalType": "address",
          "name": "stockFtAddress",
          "type": "address"
        },
        {
          "internalType": "uint256",
          "name": "count",
          "type": "uint256"
        }
      ],
      "name": "getPrice",
      "outputs": [
        {
          "internalType": "uint256",
          "name": "",
          "type": "uint256"
        }
      ],
      "stateMutability": "view",
      "type": "function"
    },
    {
      "inputs": [
        {
          "internalType": "address",
          "name": "stockAddress",
          "type": "address"
        }
      ],
      "name": "getStockListingsLength",
      "outputs": [
        {
          "internalType": "uint256",
          "name": "",
          "type": "uint256"
        }
      ],
      "stateMutability": "view",
      "type": "function"
    },
    {
      "inputs": [
        {
          "internalType": "uint256",
          "name": "tokenId",
          "type": "uint256"
        }
      ],
      "name": "getTokenStockAddresses",
      "outputs": [
        {
          "internalType": "address[]",
          "name": "",
          "type": "address[]"
        }
      ],
      "stateMutability": "view",
      "type": "function"
    },
    {
      "inputs": [
        {
          "internalType": "address",
          "name": "",
          "type": "address"
        },
        {
          "internalType": "address",
          "name": "",
          "type": "address"
        }
      ],
      "name": "isApprovedForAll",
      "outputs": [
        {
          "internalType": "bool",
          "name": "",
          "type": "bool"
        }
      ],
      "stateMutability": "view",
      "type": "function"
    },
    {
      "inputs": [],
      "name": "listPortfolioToSell",
      "outputs": [],
      "stateMutability": "nonpayable",
      "type": "function"
    },
    {
      "inputs": [
        {
          "internalType": "address",
          "name": "stockFtAddress",
          "type": "address"
        },
        {
          "internalType": "uint256",
          "name": "count",
          "type": "uint256"
        }
      ],
      "name": "list_stock_to_sell",
      "outputs": [],
      "stateMutability": "nonpayable",
      "type": "function"
    },
    {
      "inputs": [],
      "name": "mint",
      "outputs": [],
      "stateMutability": "nonpayable",
      "type": "function"
    },
    {
      "inputs": [
        {
          "internalType": "address",
          "name": "from",
          "type": "address"
        },
        {
          "internalType": "address",
          "name": "to",
          "type": "address"
        },
        {
          "internalType": "uint256",
          "name": "id",
          "type": "uint256"
        }
      ],
      "name": "myTransferFrom",
      "outputs": [],
      "stateMutability": "nonpayable",
      "type": "function"
    },
    {
      "inputs": [],
      "name": "name",
      "outputs": [
        {
          "internalType": "string",
          "name": "",
          "type": "string"
        }
      ],
      "stateMutability": "view",
      "type": "function"
    },
    {
      "inputs": [
        {
          "internalType": "uint256",
          "name": "id",
          "type": "uint256"
        }
      ],
      "name": "ownerOf",
      "outputs": [
        {
          "internalType": "address",
          "name": "owner",
          "type": "address"
        }
      ],
      "stateMutability": "view",
      "type": "function"
    },
    {
      "inputs": [
        {
          "internalType": "address",
          "name": "from",
          "type": "address"
        },
        {
          "internalType": "address",
          "name": "to",
          "type": "address"
        },
        {
          "internalType": "uint256",
          "name": "id",
          "type": "uint256"
        }
      ],
      "name": "safeTransferFrom",
      "outputs": [],
      "stateMutability": "nonpayable",
      "type": "function"
    },
    {
      "inputs": [
        {
          "internalType": "address",
          "name": "from",
          "type": "address"
        },
        {
          "internalType": "address",
          "name": "to",
          "type": "address"
        },
        {
          "internalType": "uint256",
          "name": "id",
          "type": "uint256"
        },
        {
          "internalType": "bytes",
          "name": "data",
          "type": "bytes"
        }
      ],
      "name": "safeTransferFrom",
      "outputs": [],
      "stateMutability": "nonpayable",
      "type": "function"
    },
    {
      "inputs": [
        {
          "internalType": "address",
          "name": "operator",
          "type": "address"
        },
        {
          "internalType": "bool",
          "name": "approved",
          "type": "bool"
        }
      ],
      "name": "setApprovalForAll",
      "outputs": [],
      "stateMutability": "nonpayable",
      "type": "function"
    },
    {
      "inputs": [
        {
          "internalType": "bytes4",
          "name": "interfaceId",
          "type": "bytes4"
        }
      ],
      "name": "supportsInterface",
      "outputs": [
        {
          "internalType": "bool",
          "name": "",
          "type": "bool"
        }
      ],
      "stateMutability": "pure",
      "type": "function"
    },
    {
      "inputs": [],
      "name": "symbol",
      "outputs": [
        {
          "internalType": "string",
          "name": "",
          "type": "string"
        }
      ],
      "stateMutability": "view",
      "type": "function"
    },
    {
      "inputs": [],
      "name": "tokenCount",
      "outputs": [
        {
          "internalType": "uint256",
          "name": "",
          "type": "uint256"
        }
      ],
      "stateMutability": "view",
      "type": "function"
    },
    {
      "inputs": [
        {
          "internalType": "uint256",
          "name": "tokenId",
          "type": "uint256"
        }
      ],
      "name": "tokenURI",
      "outputs": [
        {
          "internalType": "string",
          "name": "",
          "type": "string"
        }
      ],
      "stateMutability": "view",
      "type": "function"
    },
    {
      "inputs": [
        {
          "internalType": "address",
          "name": "from",
          "type": "address"
        },
        {
          "internalType": "address",
          "name": "to",
          "type": "address"
        },
        {
          "internalType": "uint256",
          "name": "id",
          "type": "uint256"
        }
      ],
      "name": "transferFrom",
      "outputs": [],
      "stateMutability": "nonpayable",
      "type": "function"
    },
    {
      "inputs": [
        {
          "internalType": "address",
          "name": "stockFtAddress",
          "type": "address"
        }
      ],
      "name": "updatePortfolio",
      "outputs": [
        {
          "internalType": "uint256",
          "name": "",
          "type": "uint256"
        }
      ],
      "stateMutability": "nonpayable",
      "type": "function"
    }
  ],
  "bytecode": "0x608060405234801561001057600080fd5b50604051615e22380380615e22833981810160405281019061003291906100e4565b600060048190555080600760006101000a81548173ffffffffffffffffffffffffffffffffffffffff021916908373ffffffffffffffffffffffffffffffffffffffff16021790555050610111565b600080fd5b600073ffffffffffffffffffffffffffffffffffffffff82169050919050565b60006100b182610086565b9050919050565b6100c1816100a6565b81146100cc57600080fd5b50565b6000815190506100de816100b8565b92915050565b6000602082840312156100fa576100f9610081565b5b6000610108848285016100cf565b91505092915050565b615d02806101206000396000f3fe608060405234801561001057600080fd5b50600436106101fb5760003560e01c80636352211e1161011a578063a22cb465116100ad578063cce7ec131161007c578063cce7ec1314610633578063d24b20f51461064f578063d2863e751461066b578063d7305c831461069b578063e985e9c5146106cb576101fb565b8063a22cb465146105af578063afb21f2f146105cb578063b88d4fde146105e7578063c87b56dd14610603576101fb565b806385ad5085116100e957806385ad50851461051257806395d89b41146105425780639b232ab0146105605780639f181b5e14610591576101fb565b80636352211e146104525780636c13e6511461048257806370a08231146104b257806373bd5bb4146104e2576101fb565b80631249c58b11610192578063449e815d11610161578063449e815d1461039257806356724115146103c257806356a8c117146103f25780635ba5f51014610422576101fb565b80631249c58b1461034657806312e67db41461035057806323b872dd1461035a57806342842e0e14610376576101fb565b8063078a235e116101ce578063078a235e1461029a578063081812fc146102ca578063095ea7b3146102fa5780630dbf53e814610316576101fb565b8063016e44e7146102005780630175b22f1461023057806301ffc9a71461024c57806306fdde031461027c575b600080fd5b61021a600480360381019061021591906143e3565b6106fb565b6040516102279190614429565b60405180910390f35b61024a60048036038101906102459190614470565b610747565b005b6102666004803603810190610261919061451b565b6109b1565b6040516102739190614563565b60405180910390f35b610284610a83565b604051610291919061460e565b60405180910390f35b6102b460048036038101906102af91906143e3565b610ac0565b6040516102c19190614429565b60405180910390f35b6102e460048036038101906102df9190614630565b610e68565b6040516102f1919061466c565b60405180910390f35b610314600480360381019061030f9190614687565b610f45565b005b610330600480360381019061032b9190614630565b61112d565b60405161033d919061466c565b60405180910390f35b61034e611160565b005b610358611345565b005b610374600480360381019061036f9190614470565b611555565b005b610390600480360381019061038b9190614470565b61183f565b005b6103ac60048036038101906103a79190614687565b611977565b6040516103b99190614429565b60405180910390f35b6103dc60048036038101906103d79190614630565b611ac6565b6040516103e99190614563565b60405180910390f35b61040c60048036038101906104079190614630565b611ae6565b6040516104199190614785565b60405180910390f35b61043c600480360381019061043791906147a7565b611be0565b6040516104499190614429565b60405180910390f35b61046c60048036038101906104679190614630565b611c05565b604051610479919061466c565b60405180910390f35b61049c600480360381019061049791906143e3565b611cb0565b6040516104a99190614429565b60405180910390f35b6104cc60048036038101906104c791906143e3565b611cc8565b6040516104d99190614429565b60405180910390f35b6104fc60048036038101906104f791906143e3565b611d7f565b6040516105099190614429565b60405180910390f35b61052c600480360381019061052791906143e3565b611dfe565b6040516105399190614429565b60405180910390f35b61054a611e16565b604051610557919061460e565b60405180910390f35b61057a60048036038101906105759190614687565b611e53565b6040516105889291906147e7565b60405180910390f35b610599611eb4565b6040516105a69190614429565b60405180910390f35b6105c960048036038101906105c4919061483c565b611eba565b005b6105e560048036038101906105e09190614630565b611fb7565b005b61060160048036038101906105fc91906148e1565b612865565b005b61061d60048036038101906106189190614630565b6129a3565b60405161062a919061460e565b60405180910390f35b61064d60048036038101906106489190614687565b612a66565b005b61066960048036038101906106649190614687565b613591565b005b61068560048036038101906106809190614969565b613cc4565b6040516106929190614563565b60405180910390f35b6106b560048036038101906106b091906149a9565b613cf3565b6040516106c2919061466c565b60405180910390f35b6106e560048036038101906106e091906147a7565b613d41565b6040516106f29190614563565b60405180910390f35b6000600860008373ffffffffffffffffffffffffffffffffffffffff1673ffffffffffffffffffffffffffffffffffffffff168152602001908152602001600020805490509050919050565b60008082815260200190815260200160002060009054906101000a900473ffffffffffffffffffffffffffffffffffffffff1673ffffffffffffffffffffffffffffffffffffffff168373ffffffffffffffffffffffffffffffffffffffff16146107e7576040517f08c379a00000000000000000000000000000000000000000000000000000000081526004016107de90614a35565b60405180910390fd5b600073ffffffffffffffffffffffffffffffffffffffff168273ffffffffffffffffffffffffffffffffffffffff1603610856576040517f08c379a000000000000000000000000000000000000000000000000000000000815260040161084d90614aa1565b60405180910390fd5b600160008473ffffffffffffffffffffffffffffffffffffffff1673ffffffffffffffffffffffffffffffffffffffff16815260200190815260200160002060008154809291906108a690614af0565b9190505550600160008373ffffffffffffffffffffffffffffffffffffffff1673ffffffffffffffffffffffffffffffffffffffff16815260200190815260200160002060008154809291906108fb90614b19565b91905055508160008083815260200190815260200160002060006101000a81548173ffffffffffffffffffffffffffffffffffffffff021916908373ffffffffffffffffffffffffffffffffffffffff160217905550808273ffffffffffffffffffffffffffffffffffffffff168473ffffffffffffffffffffffffffffffffffffffff167fddf252ad1be2c89b69c2b068fc378daa952ba7f163c4a11628f55a4df523b3ef60405160405180910390a4505050565b60007f80ac58cd000000000000000000000000000000000000000000000000000000007bffffffffffffffffffffffffffffffffffffffffffffffffffffffff1916827bffffffffffffffffffffffffffffffffffffffffffffffffffffffff19161480610a7c57507f01ffc9a7000000000000000000000000000000000000000000000000000000007bffffffffffffffffffffffffffffffffffffffffffffffffffffffff1916827bffffffffffffffffffffffffffffffffffffffffffffffffffffffff1916145b9050919050565b60606040518060400160405280600a81526020017f426c6f636b666f6c696f00000000000000000000000000000000000000000000815250905090565b6000808273ffffffffffffffffffffffffffffffffffffffff166318160ddd6040518163ffffffff1660e01b8152600401602060405180830381865afa158015610b0e573d6000803e3d6000fd5b505050506040513d601f19601f82011682018060405250810190610b329190614b76565b11610b72576040517f08c379a0000000000000000000000000000000000000000000000000000000008152600401610b6990614bef565b60405180910390fd5b6000600660003373ffffffffffffffffffffffffffffffffffffffff1673ffffffffffffffffffffffffffffffffffffffff1681526020019081526020016000205490503373ffffffffffffffffffffffffffffffffffffffff1660008083815260200190815260200160002060009054906101000a900473ffffffffffffffffffffffffffffffffffffffff1673ffffffffffffffffffffffffffffffffffffffff1614610c56576040517f08c379a0000000000000000000000000000000000000000000000000000000008152600401610c4d90614c81565b60405180910390fd5b60008373ffffffffffffffffffffffffffffffffffffffff166370a08231336040518263ffffffff1660e01b8152600401610c91919061466c565b602060405180830381865afa158015610cae573d6000803e3d6000fd5b505050506040513d601f19601f82011682018060405250810190610cd29190614b76565b905060008111610d17576040517f08c379a0000000000000000000000000000000000000000000000000000000008152600401610d0e90614d13565b60405180910390fd5b600115156005600084815260200190815260200160002060008673ffffffffffffffffffffffffffffffffffffffff1673ffffffffffffffffffffffffffffffffffffffff16815260200190815260200160002060009054906101000a900460ff16151514610e5e5760016005600084815260200190815260200160002060008673ffffffffffffffffffffffffffffffffffffffff1673ffffffffffffffffffffffffffffffffffffffff16815260200190815260200160002060006101000a81548160ff021916908315150217905550600c6000838152602001908152602001600020849080600181540180825580915050600190039060005260206000200160009091909190916101000a81548173ffffffffffffffffffffffffffffffffffffffff021916908373ffffffffffffffffffffffffffffffffffffffff1602179055505b8092505050919050565b60008073ffffffffffffffffffffffffffffffffffffffff1660008084815260200190815260200160002060009054906101000a900473ffffffffffffffffffffffffffffffffffffffff1673ffffffffffffffffffffffffffffffffffffffff1603610f0a576040517f08c379a0000000000000000000000000000000000000000000000000000000008152600401610f0190614d7f565b60405180910390fd5b6002600083815260200190815260200160002060009054906101000a900473ffffffffffffffffffffffffffffffffffffffff169050919050565b600080600083815260200190815260200160002060009054906101000a900473ffffffffffffffffffffffffffffffffffffffff1690508073ffffffffffffffffffffffffffffffffffffffff163373ffffffffffffffffffffffffffffffffffffffff16148061103c5750600360008273ffffffffffffffffffffffffffffffffffffffff1673ffffffffffffffffffffffffffffffffffffffff16815260200190815260200160002060003373ffffffffffffffffffffffffffffffffffffffff1673ffffffffffffffffffffffffffffffffffffffff16815260200190815260200160002060009054906101000a900460ff165b61107b576040517f08c379a000000000000000000000000000000000000000000000000000000000815260040161107290614deb565b60405180910390fd5b826002600084815260200190815260200160002060006101000a81548173ffffffffffffffffffffffffffffffffffffffff021916908373ffffffffffffffffffffffffffffffffffffffff160217905550818373ffffffffffffffffffffffffffffffffffffffff168273ffffffffffffffffffffffffffffffffffffffff167f8c5be1e5ebec7d5bd14f71427d1e84f3dd0314c0f7b2291e5b200ac8c7c3b92560405160405180910390a4505050565b600d6020528060005260406000206000915054906101000a900473ffffffffffffffffffffffffffffffffffffffff1681565b6000600160003373ffffffffffffffffffffffffffffffffffffffff1673ffffffffffffffffffffffffffffffffffffffff16815260200190815260200160002054146111e2576040517f08c379a00000000000000000000000000000000000000000000000000000000081526004016111d990614e7d565b60405180910390fd5b60016004546111f19190614e9d565b600481905550600160003373ffffffffffffffffffffffffffffffffffffffff1673ffffffffffffffffffffffffffffffffffffffff168152602001908152602001600020600081548092919061124790614b19565b919050555033600080600454815260200190815260200160002060006101000a81548173ffffffffffffffffffffffffffffffffffffffff021916908373ffffffffffffffffffffffffffffffffffffffff160217905550600454600660003373ffffffffffffffffffffffffffffffffffffffff1673ffffffffffffffffffffffffffffffffffffffff168152602001908152602001600020819055506004543373ffffffffffffffffffffffffffffffffffffffff16600073ffffffffffffffffffffffffffffffffffffffff167fddf252ad1be2c89b69c2b068fc378daa952ba7f163c4a11628f55a4df523b3ef60405160405180910390a4565b6000600660003373ffffffffffffffffffffffffffffffffffffffff1673ffffffffffffffffffffffffffffffffffffffff1681526020019081526020016000205490503373ffffffffffffffffffffffffffffffffffffffff1660008083815260200190815260200160002060009054906101000a900473ffffffffffffffffffffffffffffffffffffffff1673ffffffffffffffffffffffffffffffffffffffff1614611429576040517f08c379a000000000000000000000000000000000000000000000000000000000815260040161142090614c81565b60405180910390fd5b60001515600b600083815260200190815260200160002060009054906101000a900460ff16151514611490576040517f08c379a000000000000000000000000000000000000000000000000000000000815260040161148790614f43565b60405180910390fd5b6001600b600083815260200190815260200160002060006101000a81548160ff02191690831515021790555033600d600083815260200190815260200160002060006101000a81548173ffffffffffffffffffffffffffffffffffffffff021916908373ffffffffffffffffffffffffffffffffffffffff160217905550803373ffffffffffffffffffffffffffffffffffffffff167fee0bcf78f4e808a3158d33da5bdf7f2d1b12f262ca315097767819536f9650d060405160405180910390a350565b60008082815260200190815260200160002060009054906101000a900473ffffffffffffffffffffffffffffffffffffffff1673ffffffffffffffffffffffffffffffffffffffff168373ffffffffffffffffffffffffffffffffffffffff16146115f5576040517f08c379a00000000000000000000000000000000000000000000000000000000081526004016115ec90614a35565b60405180910390fd5b600073ffffffffffffffffffffffffffffffffffffffff168273ffffffffffffffffffffffffffffffffffffffff1603611664576040517f08c379a000000000000000000000000000000000000000000000000000000000815260040161165b90614aa1565b60405180910390fd5b61166f833383613d70565b6116ae576040517f08c379a00000000000000000000000000000000000000000000000000000000081526004016116a590614deb565b60405180910390fd5b600160008473ffffffffffffffffffffffffffffffffffffffff1673ffffffffffffffffffffffffffffffffffffffff16815260200190815260200160002060008154809291906116fe90614af0565b9190505550600160008373ffffffffffffffffffffffffffffffffffffffff1673ffffffffffffffffffffffffffffffffffffffff168152602001908152602001600020600081548092919061175390614b19565b91905055508160008083815260200190815260200160002060006101000a81548173ffffffffffffffffffffffffffffffffffffffff021916908373ffffffffffffffffffffffffffffffffffffffff1602179055506002600082815260200190815260200160002060006101000a81549073ffffffffffffffffffffffffffffffffffffffff0219169055808273ffffffffffffffffffffffffffffffffffffffff168473ffffffffffffffffffffffffffffffffffffffff167fddf252ad1be2c89b69c2b068fc378daa952ba7f163c4a11628f55a4df523b3ef60405160405180910390a4505050565b61184a838383611555565b60008273ffffffffffffffffffffffffffffffffffffffff163b1480611933575063150b7a0260e01b7bffffffffffffffffffffffffffffffffffffffffffffffffffffffff19168273ffffffffffffffffffffffffffffffffffffffff1663150b7a023386856040518463ffffffff1660e01b81526004016118cf93929190614f9a565b6020604051808303816000875af11580156118ee573d6000803e3d6000fd5b505050506040513d601f19601f820116820180604052508101906119129190614ff9565b7bffffffffffffffffffffffffffffffffffffffffffffffffffffffff1916145b611972576040517f08c379a000000000000000000000000000000000000000000000000000000000815260040161196990615072565b60405180910390fd5b505050565b6000808373ffffffffffffffffffffffffffffffffffffffff166318160ddd6040518163ffffffff1660e01b8152600401602060405180830381865afa1580156119c5573d6000803e3d6000fd5b505050506040513d601f19601f820116820180604052508101906119e99190614b76565b11611a29576040517f08c379a0000000000000000000000000000000000000000000000000000000008152600401611a2090614bef565b60405180910390fd5b81600960008573ffffffffffffffffffffffffffffffffffffffff1673ffffffffffffffffffffffffffffffffffffffff168152602001908152602001600020541015611aab576040517f08c379a0000000000000000000000000000000000000000000000000000000008152600401611aa290615104565b60405180910390fd5b6000606490508281611abd9190615124565b91505092915050565b600b6020528060005260406000206000915054906101000a900460ff1681565b60606000600c60008481526020019081526020016000208054905011611b41576040517f08c379a0000000000000000000000000000000000000000000000000000000008152600401611b38906151d8565b60405180910390fd5b600c6000838152602001908152602001600020805480602002602001604051908101604052809291908181526020018280548015611bd457602002820191906000526020600020905b8160009054906101000a900473ffffffffffffffffffffffffffffffffffffffff1673ffffffffffffffffffffffffffffffffffffffff1681526020019060010190808311611b8a575b50505050509050919050565b600a602052816000526040600020602052806000526040600020600091509150505481565b600080600083815260200190815260200160002060009054906101000a900473ffffffffffffffffffffffffffffffffffffffff169050600073ffffffffffffffffffffffffffffffffffffffff168173ffffffffffffffffffffffffffffffffffffffff1603611cab576040517f08c379a0000000000000000000000000000000000000000000000000000000008152600401611ca290614d7f565b60405180910390fd5b919050565b60096020528060005260406000206000915090505481565b60008073ffffffffffffffffffffffffffffffffffffffff168273ffffffffffffffffffffffffffffffffffffffff1603611d38576040517f08c379a0000000000000000000000000000000000000000000000000000000008152600401611d2f90615244565b60405180910390fd5b600160008373ffffffffffffffffffffffffffffffffffffffff1673ffffffffffffffffffffffffffffffffffffffff168152602001908152602001600020549050919050565b60008073ffffffffffffffffffffffffffffffffffffffff168273ffffffffffffffffffffffffffffffffffffffff1603611def576040517f08c379a0000000000000000000000000000000000000000000000000000000008152600401611de6906152b0565b60405180910390fd5b60006064905080915050919050565b60066020528060005260406000206000915090505481565b60606040518060400160405280600481526020017f42464f4c00000000000000000000000000000000000000000000000000000000815250905090565b60086020528160005260406000208181548110611e6f57600080fd5b9060005260206000209060020201600091509150508060000160009054906101000a900473ffffffffffffffffffffffffffffffffffffffff16908060010154905082565b60045481565b80600360003373ffffffffffffffffffffffffffffffffffffffff1673ffffffffffffffffffffffffffffffffffffffff16815260200190815260200160002060008473ffffffffffffffffffffffffffffffffffffffff1673ffffffffffffffffffffffffffffffffffffffff16815260200190815260200160002060006101000a81548160ff0219169083151502179055508173ffffffffffffffffffffffffffffffffffffffff163373ffffffffffffffffffffffffffffffffffffffff167f17307eab39ab6107e8899845ad3d59bd9653f200f220920489ca2b5937696c3183604051611fab9190614563565b60405180910390a35050565b600b600082815260200190815260200160002060009054906101000a900460ff16612017576040517f08c379a000000000000000000000000000000000000000000000000000000000815260040161200e90615342565b60405180910390fd5b6000600d600083815260200190815260200160002060009054906101000a900473ffffffffffffffffffffffffffffffffffffffff169050600073ffffffffffffffffffffffffffffffffffffffff168173ffffffffffffffffffffffffffffffffffffffff16036120be576040517f08c379a00000000000000000000000000000000000000000000000000000000081526004016120b5906153ae565b60405180910390fd5b3373ffffffffffffffffffffffffffffffffffffffff168173ffffffffffffffffffffffffffffffffffffffff160361212c576040517f08c379a000000000000000000000000000000000000000000000000000000000815260040161212390615440565b60405180910390fd5b6000805b600c6000858152602001908152602001600020805490508110156122ba576000600c6000868152602001908152602001600020828154811061217557612174615460565b5b9060005260206000200160009054906101000a900473ffffffffffffffffffffffffffffffffffffffff1690506005600086815260200190815260200160002060008273ffffffffffffffffffffffffffffffffffffffff1673ffffffffffffffffffffffffffffffffffffffff16815260200190815260200160002060009054906101000a900460ff16156122ac5760008173ffffffffffffffffffffffffffffffffffffffff166370a08231866040518263ffffffff1660e01b8152600401612240919061466c565b602060405180830381865afa15801561225d573d6000803e3d6000fd5b505050506040513d601f19601f820116820180604052508101906122819190614b76565b9050600061228e83611d7f565b9050818161229c9190615124565b856122a79190614e9d565b945050505b508080600101915050612130565b506000600760009054906101000a900473ffffffffffffffffffffffffffffffffffffffff1673ffffffffffffffffffffffffffffffffffffffff1663dd62ed3e33306040518363ffffffff1660e01b815260040161231a92919061548f565b602060405180830381865afa158015612337573d6000803e3d6000fd5b505050506040513d601f19601f8201168201806040525081019061235b9190614b76565b9050818110156123a0576040517f08c379a000000000000000000000000000000000000000000000000000000000815260040161239790615504565b60405180910390fd5b60005b600c60008681526020019081526020016000208054905081101561261c576000600c600087815260200190815260200160002082815481106123e8576123e7615460565b5b9060005260206000200160009054906101000a900473ffffffffffffffffffffffffffffffffffffffff1690506005600087815260200190815260200160002060008273ffffffffffffffffffffffffffffffffffffffff1673ffffffffffffffffffffffffffffffffffffffff16815260200190815260200160002060009054906101000a900460ff161561260e5760008173ffffffffffffffffffffffffffffffffffffffff166370a08231876040518263ffffffff1660e01b81526004016124b3919061466c565b602060405180830381865afa1580156124d0573d6000803e3d6000fd5b505050506040513d601f19601f820116820180604052508101906124f49190614b76565b9050600081111561260c57600061250a83611d7f565b90506000828261251a9190615124565b90508373ffffffffffffffffffffffffffffffffffffffff166323b872dd8933866040518463ffffffff1660e01b815260040161255993929190615524565b6020604051808303816000875af1158015612578573d6000803e3d6000fd5b505050506040513d601f19601f8201168201806040525081019061259c9190615570565b50888873ffffffffffffffffffffffffffffffffffffffff163373ffffffffffffffffffffffffffffffffffffffff167f5a1fea12c13973fce9ae1e5be708276e0e6d34700655e0ca4238c22563f1e41187878787604051612601949392919061559d565b60405180910390a450505b505b5080806001019150506123a3565b50612628833386610747565b83600660003373ffffffffffffffffffffffffffffffffffffffff1673ffffffffffffffffffffffffffffffffffffffff168152602001908152602001600020819055506000600660008573ffffffffffffffffffffffffffffffffffffffff1673ffffffffffffffffffffffffffffffffffffffff16815260200190815260200160002081905550600660008473ffffffffffffffffffffffffffffffffffffffff1673ffffffffffffffffffffffffffffffffffffffff168152602001908152602001600020600090556000600b600086815260200190815260200160002060006101000a81548160ff021916908315150217905550600d600085815260200190815260200160002060006101000a81549073ffffffffffffffffffffffffffffffffffffffff0219169055600760009054906101000a900473ffffffffffffffffffffffffffffffffffffffff1673ffffffffffffffffffffffffffffffffffffffff166323b872dd3385856040518463ffffffff1660e01b81526004016127b593929190615524565b6020604051808303816000875af11580156127d4573d6000803e3d6000fd5b505050506040513d601f19601f820116820180604052508101906127f89190615570565b50838373ffffffffffffffffffffffffffffffffffffffff163373ffffffffffffffffffffffffffffffffffffffff167f951488965e134c1b53eade18a21d3a1c6b19fb7f98fd3abb5547f2dc59f96f6a856040516128579190614429565b60405180910390a450505050565b612870858585611555565b60008473ffffffffffffffffffffffffffffffffffffffff163b148061295d575063150b7a0260e01b7bffffffffffffffffffffffffffffffffffffffffffffffffffffffff19168473ffffffffffffffffffffffffffffffffffffffff1663150b7a0233888787876040518663ffffffff1660e01b81526004016128f995949392919061561e565b6020604051808303816000875af1158015612918573d6000803e3d6000fd5b505050506040513d601f19601f8201168201806040525081019061293c9190614ff9565b7bffffffffffffffffffffffffffffffffffffffffffffffffffffffff1916145b61299c576040517f08c379a000000000000000000000000000000000000000000000000000000000815260040161299390615072565b60405180910390fd5b5050505050565b6060600073ffffffffffffffffffffffffffffffffffffffff1660008084815260200190815260200160002060009054906101000a900473ffffffffffffffffffffffffffffffffffffffff1673ffffffffffffffffffffffffffffffffffffffff1603612a46576040517f08c379a0000000000000000000000000000000000000000000000000000000008152600401612a3d906156de565b60405180910390fd5b6040518060800160405280605e8152602001615c6f605e91399050919050565b60008273ffffffffffffffffffffffffffffffffffffffff166318160ddd6040518163ffffffff1660e01b8152600401602060405180830381865afa158015612ab3573d6000803e3d6000fd5b505050506040513d601f19601f82011682018060405250810190612ad79190614b76565b11612b17576040517f08c379a0000000000000000000000000000000000000000000000000000000008152600401612b0e90614bef565b60405180910390fd5b80600960008473ffffffffffffffffffffffffffffffffffffffff1673ffffffffffffffffffffffffffffffffffffffff168152602001908152602001600020541015612b99576040517f08c379a0000000000000000000000000000000000000000000000000000000008152600401612b9090615770565b60405180910390fd5b6000600660003373ffffffffffffffffffffffffffffffffffffffff1673ffffffffffffffffffffffffffffffffffffffff168152602001908152602001600020549050600b600082815260200190815260200160002060009054906101000a900460ff1615612c3e576040517f08c379a0000000000000000000000000000000000000000000000000000000008152600401612c3590615802565b60405180910390fd5b3373ffffffffffffffffffffffffffffffffffffffff1660008083815260200190815260200160002060009054906101000a900473ffffffffffffffffffffffffffffffffffffffff1673ffffffffffffffffffffffffffffffffffffffff1614612cde576040517f08c379a0000000000000000000000000000000000000000000000000000000008152600401612cd590615894565b60405180910390fd5b6000612cea8484611977565b90506000600760009054906101000a900473ffffffffffffffffffffffffffffffffffffffff1673ffffffffffffffffffffffffffffffffffffffff1663dd62ed3e33306040518363ffffffff1660e01b8152600401612d4b92919061548f565b602060405180830381865afa158015612d68573d6000803e3d6000fd5b505050506040513d601f19601f82011682018060405250810190612d8c9190614b76565b905081811015612dd1576040517f08c379a0000000000000000000000000000000000000000000000000000000008152600401612dc890615504565b60405180910390fd5b600084905060005b600860008873ffffffffffffffffffffffffffffffffffffffff1673ffffffffffffffffffffffffffffffffffffffff1681526020019081526020016000208054905081108015612e2a5750600082115b1561357e576000600860008973ffffffffffffffffffffffffffffffffffffffff1673ffffffffffffffffffffffffffffffffffffffff1681526020019081526020016000208281548110612e8257612e81615460565b5b906000526020600020906002020190508060010154831061320e576000612ea889611d7f565b90506000826001015482612ebc9190615124565b90508973ffffffffffffffffffffffffffffffffffffffff166323b872dd8460000160009054906101000a900473ffffffffffffffffffffffffffffffffffffffff163386600101546040518463ffffffff1660e01b8152600401612f2393929190615524565b6020604051808303816000875af1158015612f42573d6000803e3d6000fd5b505050506040513d601f19601f82011682018060405250810190612f669190615570565b50600760009054906101000a900473ffffffffffffffffffffffffffffffffffffffff1673ffffffffffffffffffffffffffffffffffffffff166323b872dd338560000160009054906101000a900473ffffffffffffffffffffffffffffffffffffffff16846040518463ffffffff1660e01b8152600401612fea93929190615524565b6020604051808303816000875af1158015613009573d6000803e3d6000fd5b505050506040513d601f19601f8201168201806040525081019061302d9190615570565b508973ffffffffffffffffffffffffffffffffffffffff168360000160009054906101000a900473ffffffffffffffffffffffffffffffffffffffff1673ffffffffffffffffffffffffffffffffffffffff163373ffffffffffffffffffffffffffffffffffffffff167f995447d54f79aaba2c4b25f1ee08f570e7686ef41d82536109125774f65a8489866001015486866040516130ce939291906158b4565b60405180910390a48260010154856130e691906158eb565b94508260010154600960008c73ffffffffffffffffffffffffffffffffffffffff1673ffffffffffffffffffffffffffffffffffffffff168152602001908152602001600020600082825461313b91906158eb565b925050819055508260010154600a60008560000160009054906101000a900473ffffffffffffffffffffffffffffffffffffffff1673ffffffffffffffffffffffffffffffffffffffff1673ffffffffffffffffffffffffffffffffffffffff16815260200190815260200160002060008c73ffffffffffffffffffffffffffffffffffffffff1673ffffffffffffffffffffffffffffffffffffffff16815260200190815260200160002060008282546131f691906158eb565b925050819055506132078a85613ea4565b5050613578565b600061321989611d7f565b9050600084826132299190615124565b90508973ffffffffffffffffffffffffffffffffffffffff166323b872dd8460000160009054906101000a900473ffffffffffffffffffffffffffffffffffffffff1633886040518463ffffffff1660e01b815260040161328c93929190615524565b6020604051808303816000875af11580156132ab573d6000803e3d6000fd5b505050506040513d601f19601f820116820180604052508101906132cf9190615570565b50600760009054906101000a900473ffffffffffffffffffffffffffffffffffffffff1673ffffffffffffffffffffffffffffffffffffffff166323b872dd338560000160009054906101000a900473ffffffffffffffffffffffffffffffffffffffff16846040518463ffffffff1660e01b815260040161335393929190615524565b6020604051808303816000875af1158015613372573d6000803e3d6000fd5b505050506040513d601f19601f820116820180604052508101906133969190615570565b508973ffffffffffffffffffffffffffffffffffffffff168360000160009054906101000a900473ffffffffffffffffffffffffffffffffffffffff1673ffffffffffffffffffffffffffffffffffffffff163373ffffffffffffffffffffffffffffffffffffffff167f995447d54f79aaba2c4b25f1ee08f570e7686ef41d82536109125774f65a8489888686604051613433939291906158b4565b60405180910390a48483600101600082825461344f91906158eb565b9250508190555084600960008c73ffffffffffffffffffffffffffffffffffffffff1673ffffffffffffffffffffffffffffffffffffffff16815260200190815260200160002060008282546134a591906158eb565b9250508190555084600a60008560000160009054906101000a900473ffffffffffffffffffffffffffffffffffffffff1673ffffffffffffffffffffffffffffffffffffffff1673ffffffffffffffffffffffffffffffffffffffff16815260200190815260200160002060008c73ffffffffffffffffffffffffffffffffffffffff1673ffffffffffffffffffffffffffffffffffffffff168152602001908152602001600020600082825461355c91906158eb565b9250508190555060009450838061357290614b19565b94505050505b50612dd9565b61358787610ac0565b5050505050505050565b6000600660003373ffffffffffffffffffffffffffffffffffffffff1673ffffffffffffffffffffffffffffffffffffffff168152602001908152602001600020549050600b600082815260200190815260200160002060009054906101000a900460ff1615613636576040517f08c379a000000000000000000000000000000000000000000000000000000000815260040161362d9061596b565b60405180910390fd5b61363f83610ac0565b5060008373ffffffffffffffffffffffffffffffffffffffff166318160ddd6040518163ffffffff1660e01b8152600401602060405180830381865afa15801561368d573d6000803e3d6000fd5b505050506040513d601f19601f820116820180604052508101906136b19190614b76565b116136f1576040517f08c379a00000000000000000000000000000000000000000000000000000000081526004016136e890614bef565b60405180910390fd5b3373ffffffffffffffffffffffffffffffffffffffff1660008083815260200190815260200160002060009054906101000a900473ffffffffffffffffffffffffffffffffffffffff1673ffffffffffffffffffffffffffffffffffffffff1614613791576040517f08c379a000000000000000000000000000000000000000000000000000000000815260040161378890614c81565b60405180910390fd5b600115156005600083815260200190815260200160002060008573ffffffffffffffffffffffffffffffffffffffff1673ffffffffffffffffffffffffffffffffffffffff16815260200190815260200160002060009054906101000a900460ff16151514613835576040517f08c379a000000000000000000000000000000000000000000000000000000000815260040161382c906159fd565b60405180910390fd5b60008373ffffffffffffffffffffffffffffffffffffffff166370a08231336040518263ffffffff1660e01b8152600401613870919061466c565b602060405180830381865afa15801561388d573d6000803e3d6000fd5b505050506040513d601f19601f820116820180604052508101906138b19190614b76565b9050808311156138f6576040517f08c379a00000000000000000000000000000000000000000000000000000000081526004016138ed90615a8f565b60405180910390fd5b6000600a60003373ffffffffffffffffffffffffffffffffffffffff1673ffffffffffffffffffffffffffffffffffffffff16815260200190815260200160002060008673ffffffffffffffffffffffffffffffffffffffff1673ffffffffffffffffffffffffffffffffffffffff1681526020019081526020016000205490508184826139849190614e9d565b11156139c5576040517f08c379a00000000000000000000000000000000000000000000000000000000081526004016139bc90615b21565b60405180910390fd5b60008573ffffffffffffffffffffffffffffffffffffffff1663dd62ed3e33306040518363ffffffff1660e01b8152600401613a0292919061548f565b602060405180830381865afa158015613a1f573d6000803e3d6000fd5b505050506040513d601f19601f82011682018060405250810190613a439190614b76565b905084811015613a88576040517f08c379a0000000000000000000000000000000000000000000000000000000008152600401613a7f90615bb3565b60405180910390fd5b600860008773ffffffffffffffffffffffffffffffffffffffff1673ffffffffffffffffffffffffffffffffffffffff16815260200190815260200160002060405180604001604052803373ffffffffffffffffffffffffffffffffffffffff16815260200187815250908060018154018082558091505060019003906000526020600020906002020160009091909190915060008201518160000160006101000a81548173ffffffffffffffffffffffffffffffffffffffff021916908373ffffffffffffffffffffffffffffffffffffffff16021790555060208201518160010155505084600960008873ffffffffffffffffffffffffffffffffffffffff1673ffffffffffffffffffffffffffffffffffffffff1681526020019081526020016000206000828254613bbd9190614e9d565b9250508190555084600a60003373ffffffffffffffffffffffffffffffffffffffff1673ffffffffffffffffffffffffffffffffffffffff16815260200190815260200160002060008873ffffffffffffffffffffffffffffffffffffffff1673ffffffffffffffffffffffffffffffffffffffff1681526020019081526020016000206000828254613c509190614e9d565b925050819055508573ffffffffffffffffffffffffffffffffffffffff163373ffffffffffffffffffffffffffffffffffffffff167f8ac1fe594efa7bd6644e294b002848a3fc1a5fda176fc7e207b2298b6260ae4087604051613cb49190614429565b60405180910390a3505050505050565b60056020528160005260406000206020528060005260406000206000915091509054906101000a900460ff1681565b600c6020528160005260406000208181548110613d0f57600080fd5b906000526020600020016000915091509054906101000a900473ffffffffffffffffffffffffffffffffffffffff1681565b60036020528160005260406000206020528060005260406000206000915091509054906101000a900460ff1681565b60008373ffffffffffffffffffffffffffffffffffffffff168373ffffffffffffffffffffffffffffffffffffffff161480613e325750600360008573ffffffffffffffffffffffffffffffffffffffff1673ffffffffffffffffffffffffffffffffffffffff16815260200190815260200160002060008473ffffffffffffffffffffffffffffffffffffffff1673ffffffffffffffffffffffffffffffffffffffff16815260200190815260200160002060009054906101000a900460ff165b80613e9b57506002600083815260200190815260200160002060009054906101000a900473ffffffffffffffffffffffffffffffffffffffff1673ffffffffffffffffffffffffffffffffffffffff168373ffffffffffffffffffffffffffffffffffffffff16145b90509392505050565b600860008373ffffffffffffffffffffffffffffffffffffffff1673ffffffffffffffffffffffffffffffffffffffff168152602001908152602001600020805490508110613f28576040517f08c379a0000000000000000000000000000000000000000000000000000000008152600401613f1f90615c1f565b60405180910390fd5b6000600860008473ffffffffffffffffffffffffffffffffffffffff1673ffffffffffffffffffffffffffffffffffffffff1681526020019081526020016000208281548110613f7b57613f7a615460565b5b906000526020600020906002020160000160009054906101000a900473ffffffffffffffffffffffffffffffffffffffff1690506000600a60008373ffffffffffffffffffffffffffffffffffffffff1673ffffffffffffffffffffffffffffffffffffffff16815260200190815260200160002060008573ffffffffffffffffffffffffffffffffffffffff1673ffffffffffffffffffffffffffffffffffffffff16815260200190815260200160002054036140b457600a60008273ffffffffffffffffffffffffffffffffffffffff1673ffffffffffffffffffffffffffffffffffffffff16815260200190815260200160002060008473ffffffffffffffffffffffffffffffffffffffff1673ffffffffffffffffffffffffffffffffffffffff168152602001908152602001600020600090555b6000600860008573ffffffffffffffffffffffffffffffffffffffff1673ffffffffffffffffffffffffffffffffffffffff1681526020019081526020016000206001600860008773ffffffffffffffffffffffffffffffffffffffff1673ffffffffffffffffffffffffffffffffffffffff1681526020019081526020016000208054905061414491906158eb565b8154811061415557614154615460565b5b90600052602060002090600202016040518060400160405290816000820160009054906101000a900473ffffffffffffffffffffffffffffffffffffffff1673ffffffffffffffffffffffffffffffffffffffff1673ffffffffffffffffffffffffffffffffffffffff168152602001600182015481525050905080600860008673ffffffffffffffffffffffffffffffffffffffff1673ffffffffffffffffffffffffffffffffffffffff168152602001908152602001600020848154811061422257614221615460565b5b906000526020600020906002020160008201518160000160006101000a81548173ffffffffffffffffffffffffffffffffffffffff021916908373ffffffffffffffffffffffffffffffffffffffff16021790555060208201518160010155905050600860008573ffffffffffffffffffffffffffffffffffffffff1673ffffffffffffffffffffffffffffffffffffffff1681526020019081526020016000208054806142d3576142d2615c3f565b5b6001900381819060005260206000209060020201600080820160006101000a81549073ffffffffffffffffffffffffffffffffffffffff02191690556001820160009055505090558173ffffffffffffffffffffffffffffffffffffffff168473ffffffffffffffffffffffffffffffffffffffff167f7219d1a6d74e4a1b0da41d23ffbfbb0f3cc4959e4e119f15309c440fe85fef5960405160405180910390a350505050565b600080fd5b600080fd5b600073ffffffffffffffffffffffffffffffffffffffff82169050919050565b60006143b082614385565b9050919050565b6143c0816143a5565b81146143cb57600080fd5b50565b6000813590506143dd816143b7565b92915050565b6000602082840312156143f9576143f861437b565b5b6000614407848285016143ce565b91505092915050565b6000819050919050565b61442381614410565b82525050565b600060208201905061443e600083018461441a565b92915050565b61444d81614410565b811461445857600080fd5b50565b60008135905061446a81614444565b92915050565b6000806000606084860312156144895761448861437b565b5b6000614497868287016143ce565b93505060206144a8868287016143ce565b92505060406144b98682870161445b565b9150509250925092565b60007fffffffff0000000000000000000000000000000000000000000000000000000082169050919050565b6144f8816144c3565b811461450357600080fd5b50565b600081359050614515816144ef565b92915050565b6000602082840312156145315761453061437b565b5b600061453f84828501614506565b91505092915050565b60008115159050919050565b61455d81614548565b82525050565b60006020820190506145786000830184614554565b92915050565b600081519050919050565b600082825260208201905092915050565b60005b838110156145b857808201518184015260208101905061459d565b60008484015250505050565b6000601f19601f8301169050919050565b60006145e08261457e565b6145ea8185614589565b93506145fa81856020860161459a565b614603816145c4565b840191505092915050565b6000602082019050818103600083015261462881846145d5565b905092915050565b6000602082840312156146465761464561437b565b5b60006146548482850161445b565b91505092915050565b614666816143a5565b82525050565b6000602082019050614681600083018461465d565b92915050565b6000806040838503121561469e5761469d61437b565b5b60006146ac858286016143ce565b92505060206146bd8582860161445b565b9150509250929050565b600081519050919050565b600082825260208201905092915050565b6000819050602082019050919050565b6146fc816143a5565b82525050565b600061470e83836146f3565b60208301905092915050565b6000602082019050919050565b6000614732826146c7565b61473c81856146d2565b9350614747836146e3565b8060005b8381101561477857815161475f8882614702565b975061476a8361471a565b92505060018101905061474b565b5085935050505092915050565b6000602082019050818103600083015261479f8184614727565b905092915050565b600080604083850312156147be576147bd61437b565b5b60006147cc858286016143ce565b92505060206147dd858286016143ce565b9150509250929050565b60006040820190506147fc600083018561465d565b614809602083018461441a565b9392505050565b61481981614548565b811461482457600080fd5b50565b60008135905061483681614810565b92915050565b600080604083850312156148535761485261437b565b5b6000614861858286016143ce565b925050602061487285828601614827565b9150509250929050565b600080fd5b600080fd5b600080fd5b60008083601f8401126148a1576148a061487c565b5b8235905067ffffffffffffffff8111156148be576148bd614881565b5b6020830191508360018202830111156148da576148d9614886565b5b9250929050565b6000806000806000608086880312156148fd576148fc61437b565b5b600061490b888289016143ce565b955050602061491c888289016143ce565b945050604061492d8882890161445b565b935050606086013567ffffffffffffffff81111561494e5761494d614380565b5b61495a8882890161488b565b92509250509295509295909350565b600080604083850312156149805761497f61437b565b5b600061498e8582860161445b565b925050602061499f858286016143ce565b9150509250929050565b600080604083850312156149c0576149bf61437b565b5b60006149ce8582860161445b565b92505060206149df8582860161445b565b9150509250929050565b7f66726f6d20213d206f776e657200000000000000000000000000000000000000600082015250565b6000614a1f600d83614589565b9150614a2a826149e9565b602082019050919050565b60006020820190508181036000830152614a4e81614a12565b9050919050565b7f7472616e7366657220746f207a65726f20616464726573730000000000000000600082015250565b6000614a8b601883614589565b9150614a9682614a55565b602082019050919050565b60006020820190508181036000830152614aba81614a7e565b9050919050565b7f4e487b7100000000000000000000000000000000000000000000000000000000600052601160045260246000fd5b6000614afb82614410565b915060008203614b0e57614b0d614ac1565b5b600182039050919050565b6000614b2482614410565b91507fffffffffffffffffffffffffffffffffffffffffffffffffffffffffffffffff8203614b5657614b55614ac1565b5b600182019050919050565b600081519050614b7081614444565b92915050565b600060208284031215614b8c57614b8b61437b565b5b6000614b9a84828501614b61565b91505092915050565b7f496e76616c6964204552432d323020636f6e7472616374000000000000000000600082015250565b6000614bd9601783614589565b9150614be482614ba3565b602082019050919050565b60006020820190508181036000830152614c0881614bcc565b9050919050565b7f796f7520617265206e6f7420746865206f776e6572206f66207468697320706f60008201527f7274666f6c696f21000000000000000000000000000000000000000000000000602082015250565b6000614c6b602883614589565b9150614c7682614c0f565b604082019050919050565b60006020820190508181036000830152614c9a81614c5e565b9050919050565b7f796f7520646f6e74206f776e20616e792073746f636b20696e2074686973206360008201527f6f6d70616e792021210000000000000000000000000000000000000000000000602082015250565b6000614cfd602983614589565b9150614d0882614ca1565b604082019050919050565b60006020820190508181036000830152614d2c81614cf0565b9050919050565b7f746f6b656e20646f65736e277420657869737400000000000000000000000000600082015250565b6000614d69601383614589565b9150614d7482614d33565b602082019050919050565b60006020820190508181036000830152614d9881614d5c565b9050919050565b7f6e6f7420617574686f72697a6564000000000000000000000000000000000000600082015250565b6000614dd5600e83614589565b9150614de082614d9f565b602082019050919050565b60006020820190508181036000830152614e0481614dc8565b9050919050565b7f796f75206861766520616c726561647920616c7265616479206d696e7465642060008201527f796f757220706f7274666f6c696f202100000000000000000000000000000000602082015250565b6000614e67603083614589565b9150614e7282614e0b565b604082019050919050565b60006020820190508181036000830152614e9681614e5a565b9050919050565b6000614ea882614410565b9150614eb383614410565b9250828201905080821115614ecb57614eca614ac1565b5b92915050565b7f796f757220706f7274666f6c696f2068617320616c7265616479206265656e2060008201527f6c697374656420666f722073616c650000000000000000000000000000000000602082015250565b6000614f2d602f83614589565b9150614f3882614ed1565b604082019050919050565b60006020820190508181036000830152614f5c81614f20565b9050919050565b600082825260208201905092915050565b50565b6000614f84600083614f63565b9150614f8f82614f74565b600082019050919050565b6000608082019050614faf600083018661465d565b614fbc602083018561465d565b614fc9604083018461441a565b8181036060830152614fda81614f77565b9050949350505050565b600081519050614ff3816144ef565b92915050565b60006020828403121561500f5761500e61437b565b5b600061501d84828501614fe4565b91505092915050565b7f756e7361666520726563697069656e7400000000000000000000000000000000600082015250565b600061505c601083614589565b915061506782615026565b602082019050919050565b6000602082019050818103600083015261508b8161504f565b9050919050565b7f736f727279202c206e6f7420656e6f7567682073746f636b206861732062656560008201527f6e206c697374656420757020666f722073616c65000000000000000000000000602082015250565b60006150ee603483614589565b91506150f982615092565b604082019050919050565b6000602082019050818103600083015261511d816150e1565b9050919050565b600061512f82614410565b915061513a83614410565b925082820261514881614410565b9150828204841483151761515f5761515e614ac1565b5b5092915050565b7f4e6f2073746f636b7320666f756e6420666f72207468697320746f6b656e204960008201527f4400000000000000000000000000000000000000000000000000000000000000602082015250565b60006151c2602183614589565b91506151cd82615166565b604082019050919050565b600060208201905081810360008301526151f1816151b5565b9050919050565b7f6f776e6572203d207a65726f2061646472657373000000000000000000000000600082015250565b600061522e601483614589565b9150615239826151f8565b602082019050919050565b6000602082019050818103600083015261525d81615221565b9050919050565b7f796f752073656e74207a65726f20616464726573732100000000000000000000600082015250565b600061529a601683614589565b91506152a582615264565b602082019050919050565b600060208201905081810360008301526152c98161528d565b9050919050565b7f74686520706f7274666f6c696f206861736e2774206265656e206c697374656460008201527f20666f722073616c652079657400000000000000000000000000000000000000602082015250565b600061532c602d83614589565b9150615337826152d0565b604082019050919050565b6000602082019050818103600083015261535b8161531f565b9050919050565b7f496e76616c696420706f7274666f6c696f206f776e6572000000000000000000600082015250565b6000615398601783614589565b91506153a382615362565b602082019050919050565b600060208201905081810360008301526153c78161538b565b9050919050565b7f596f752063616e6e6f742062757920796f7572206f776e20706f7274666f6c6960008201527f6f00000000000000000000000000000000000000000000000000000000000000602082015250565b600061542a602183614589565b9150615435826153ce565b604082019050919050565b600060208201905081810360008301526154598161541d565b9050919050565b7f4e487b7100000000000000000000000000000000000000000000000000000000600052603260045260246000fd5b60006040820190506154a4600083018561465d565b6154b1602083018461465d565b9392505050565b7f496e73756666696369656e7420617574686f72697a6174696f6e000000000000600082015250565b60006154ee601a83614589565b91506154f9826154b8565b602082019050919050565b6000602082019050818103600083015261551d816154e1565b9050919050565b6000606082019050615539600083018661465d565b615546602083018561465d565b615553604083018461441a565b949350505050565b60008151905061556a81614810565b92915050565b6000602082840312156155865761558561437b565b5b60006155948482850161555b565b91505092915050565b60006080820190506155b2600083018761465d565b6155bf602083018661441a565b6155cc604083018561441a565b6155d9606083018461441a565b95945050505050565b82818337600083830152505050565b60006155fd8385614f63565b935061560a8385846155e2565b615613836145c4565b840190509392505050565b6000608082019050615633600083018861465d565b615640602083018761465d565b61564d604083018661441a565b81810360608301526156608184866155f1565b90509695505050505050565b7f4552433732314d657461646174613a2055524920717565727920666f72206e6f60008201527f6e6578697374656e7420746f6b656e0000000000000000000000000000000000602082015250565b60006156c8602f83614589565b91506156d38261566c565b604082019050919050565b600060208201905081810360008301526156f7816156bb565b9050919050565b7f4e6f7420656e6f7567682073746f636b20617661696c61626c6520666f72207360008201527f616c650000000000000000000000000000000000000000000000000000000000602082015250565b600061575a602383614589565b9150615765826156fe565b604082019050919050565b600060208201905081810360008301526157898161574d565b9050919050565b7f706f7274666f6c696f206973206c697374656420666f722073616c6520796f7560008201527f2063616e74206275790000000000000000000000000000000000000000000000602082015250565b60006157ec602983614589565b91506157f782615790565b604082019050919050565b6000602082019050818103600083015261581b816157df565b9050919050565b7f596f7520617265206e6f7420746865206f776e6572206f66207468697320706f60008201527f7274666f6c696f21000000000000000000000000000000000000000000000000602082015250565b600061587e602883614589565b915061588982615822565b604082019050919050565b600060208201905081810360008301526158ad81615871565b9050919050565b60006060820190506158c9600083018661441a565b6158d6602083018561441a565b6158e3604083018461441a565b949350505050565b60006158f682614410565b915061590183614410565b925082820390508181111561591957615918614ac1565b5b92915050565b7f706f7274666f6c696f206973206c697374656420666f722073616c6500000000600082015250565b6000615955601c83614589565b91506159608261591f565b602082019050919050565b6000602082019050818103600083015261598481615948565b9050919050565b7f796f757220706f7274666f6c696f28746f6b656e6e49442920686173206e6f2060008201527f73746f636b207468697320636f6d70616e790000000000000000000000000000602082015250565b60006159e7603283614589565b91506159f28261598b565b604082019050919050565b60006020820190508181036000830152615a16816159da565b9050919050565b7f796f752063616e74206c697374206d6f72652073746f636b207468616e20796f60008201527f75206f776e20696e2074686520636f6d70616e79212100000000000000000000602082015250565b6000615a79603683614589565b9150615a8482615a1d565b604082019050919050565b60006020820190508181036000830152615aa881615a6c565b9050919050565b7f546f74616c206c697374656420616d6f756e7420776f756c642065786365656460008201527f206f776e65642062616c616e6365000000000000000000000000000000000000602082015250565b6000615b0b602e83614589565b9150615b1682615aaf565b604082019050919050565b60006020820190508181036000830152615b3a81615afe565b9050919050565b7f6e6f7420656e6f7567682073746f636b20697320617574686f72697a6564207460008201527f6f20626520736f6c640000000000000000000000000000000000000000000000602082015250565b6000615b9d602983614589565b9150615ba882615b41565b604082019050919050565b60006020820190508181036000830152615bcc81615b90565b9050919050565b7f496e76616c6964206c697374696e6720696e6465780000000000000000000000600082015250565b6000615c09601583614589565b9150615c1482615bd3565b602082019050919050565b60006020820190508181036000830152615c3881615bfc565b9050919050565b7f4e487b7100000000000000000000000000000000000000000000000000000000600052603160045260246000fdfe68747470733a2f2f7261772e67697468756275736572636f6e74656e742e636f6d2f74656a6173313930342f626c6f636b666f6c696f2f726566732f68656164732f6d61696e2f6d657461646174612f73746f636b2d6e66742e6a736f6ea2646970667358221220e567ee5a8c67e232b43078e03b7791894dd718df211dbb2f430b50065c41caae64736f6c634300081c0033",
  "linkReferences": {},
  "deployedLinkReferences": {}
}